{
	"storageFactory/inheritance_override.sol": {
		"AnotherStorage": {
			"abi": [
				{
					"inputs": [
						{
							"internalType": "int256",
							"name": "number",
							"type": "int256"
						}
					],
					"name": "addNumber",
					"outputs": [],
					"stateMutability": "nonpayable",
					"type": "function"
				},
				{
					"inputs": [
						{
							"internalType": "string",
							"name": "name",
							"type": "string"
						},
						{
							"internalType": "int256",
							"name": "number",
							"type": "int256"
						}
					],
					"name": "addPerson",
					"outputs": [],
					"stateMutability": "nonpayable",
					"type": "function"
				},
				{
					"inputs": [
						{
							"internalType": "uint256",
							"name": "number",
							"type": "uint256"
						}
					],
					"name": "getPerson",
					"outputs": [
						{
							"internalType": "int256",
							"name": "",
							"type": "int256"
						},
						{
							"internalType": "string",
							"name": "",
							"type": "string"
						}
					],
					"stateMutability": "view",
					"type": "function"
				},
				{
					"inputs": [
						{
							"internalType": "uint256",
							"name": "number",
							"type": "uint256"
						}
					],
					"name": "getPersonName",
					"outputs": [
						{
							"internalType": "string",
							"name": "",
							"type": "string"
						}
					],
					"stateMutability": "view",
					"type": "function"
				},
				{
					"inputs": [
						{
							"internalType": "uint256",
							"name": "number",
							"type": "uint256"
						}
					],
					"name": "getPersonNumber",
					"outputs": [
						{
							"internalType": "int256",
							"name": "",
							"type": "int256"
						}
					],
					"stateMutability": "view",
					"type": "function"
				},
				{
					"inputs": [
						{
							"internalType": "int256",
							"name": "",
							"type": "int256"
						}
					],
					"name": "mapNameToNumber",
					"outputs": [
						{
							"internalType": "string",
							"name": "",
							"type": "string"
						}
					],
					"stateMutability": "view",
					"type": "function"
				},
				{
					"inputs": [],
					"name": "viewNumber",
					"outputs": [
						{
							"internalType": "int256",
							"name": "",
							"type": "int256"
						}
					],
					"stateMutability": "view",
					"type": "function"
				}
			],
			"devdoc": {
				"kind": "dev",
				"methods": {},
				"version": 1
			},
			"evm": {
				"assembly": "    /* \"storageFactory/inheritance_override.sol\":118:663  contract AnotherStorage is SimpleStorage{ // now everything defined inside SimpleStorage is also defined in AnotherStorage... */\n  mstore(0x40, 0x80)\n  callvalue\n  dup1\n  iszero\n  tag_1\n  jumpi\n  0x00\n  dup1\n  revert\ntag_1:\n  pop\n  dataSize(sub_0)\n  dup1\n  dataOffset(sub_0)\n  0x00\n  codecopy\n  0x00\n  return\nstop\n\nsub_0: assembly {\n        /* \"storageFactory/inheritance_override.sol\":118:663  contract AnotherStorage is SimpleStorage{ // now everything defined inside SimpleStorage is also defined in AnotherStorage... */\n      mstore(0x40, 0x80)\n      callvalue\n      dup1\n      iszero\n      tag_1\n      jumpi\n      0x00\n      dup1\n      revert\n    tag_1:\n      pop\n      jumpi(tag_2, lt(calldatasize, 0x04))\n      shr(0xe0, calldataload(0x00))\n      dup1\n      0x6ad7eebc\n      gt\n      tag_10\n      jumpi\n      dup1\n      0x6ad7eebc\n      eq\n      tag_6\n      jumpi\n      dup1\n      0x70d464e1\n      eq\n      tag_7\n      jumpi\n      dup1\n      0xbb496938\n      eq\n      tag_8\n      jumpi\n      dup1\n      0xd811a0f7\n      eq\n      tag_9\n      jumpi\n      jump(tag_2)\n    tag_10:\n      dup1\n      0x246982c4\n      eq\n      tag_3\n      jumpi\n      dup1\n      0x40ab422e\n      eq\n      tag_4\n      jumpi\n      dup1\n      0x63893d17\n      eq\n      tag_5\n      jumpi\n    tag_2:\n      0x00\n      dup1\n      revert\n        /* \"storageFactory/simpleStorage.sol\":1263:1418  function getPerson(uint256 number) public view returns(int256, string memory){... */\n    tag_3:\n      tag_11\n      0x04\n      dup1\n      calldatasize\n      sub\n      dup2\n      add\n      swap1\n      tag_12\n      swap2\n      swap1\n      tag_13\n      jump\t// in\n    tag_12:\n      tag_14\n      jump\t// in\n    tag_11:\n      mload(0x40)\n      tag_15\n      swap3\n      swap2\n      swap1\n      tag_16\n      jump\t// in\n    tag_15:\n      mload(0x40)\n      dup1\n      swap2\n      sub\n      swap1\n      return\n        /* \"storageFactory/simpleStorage.sol\":1426:1545  function getPersonName(uint256 number) public view returns(string memory){... */\n    tag_4:\n      tag_17\n      0x04\n      dup1\n      calldatasize\n      sub\n      dup2\n      add\n      swap1\n      tag_18\n      swap2\n      swap1\n      tag_13\n      jump\t// in\n    tag_18:\n      tag_19\n      jump\t// in\n    tag_17:\n      mload(0x40)\n      tag_20\n      swap2\n      swap1\n      tag_21\n      jump\t// in\n    tag_20:\n      mload(0x40)\n      dup1\n      swap2\n      sub\n      swap1\n      return\n        /* \"storageFactory/inheritance_override.sol\":248:660  function addNumber(int256 number) public override //so this declaration is the same as in the imported file, just override is added... */\n    tag_5:\n      tag_22\n      0x04\n      dup1\n      calldatasize\n      sub\n      dup2\n      add\n      swap1\n      tag_23\n      swap2\n      swap1\n      tag_24\n      jump\t// in\n    tag_23:\n      tag_25\n      jump\t// in\n    tag_22:\n      stop\n        /* \"storageFactory/simpleStorage.sol\":1553:1679  function getPersonNumber(uint256 number) public view returns(int256){... */\n    tag_6:\n      tag_26\n      0x04\n      dup1\n      calldatasize\n      sub\n      dup2\n      add\n      swap1\n      tag_27\n      swap2\n      swap1\n      tag_13\n      jump\t// in\n    tag_27:\n      tag_28\n      jump\t// in\n    tag_26:\n      mload(0x40)\n      tag_29\n      swap2\n      swap1\n      tag_30\n      jump\t// in\n    tag_29:\n      mload(0x40)\n      dup1\n      swap2\n      sub\n      swap1\n      return\n        /* \"storageFactory/simpleStorage.sol\":874:1257  function addPerson(string memory name, int256 number) public {... */\n    tag_7:\n      tag_31\n      0x04\n      dup1\n      calldatasize\n      sub\n      dup2\n      add\n      swap1\n      tag_32\n      swap2\n      swap1\n      tag_33\n      jump\t// in\n    tag_32:\n      tag_34\n      jump\t// in\n    tag_31:\n      stop\n        /* \"storageFactory/simpleStorage.sol\":174:222  mapping(int256 => string) public mapNameToNumber */\n    tag_8:\n      tag_35\n      0x04\n      dup1\n      calldatasize\n      sub\n      dup2\n      add\n      swap1\n      tag_36\n      swap2\n      swap1\n      tag_24\n      jump\t// in\n    tag_36:\n      tag_37\n      jump\t// in\n    tag_35:\n      mload(0x40)\n      tag_38\n      swap2\n      swap1\n      tag_21\n      jump\t// in\n    tag_38:\n      mload(0x40)\n      dup1\n      swap2\n      sub\n      swap1\n      return\n        /* \"storageFactory/simpleStorage.sol\":782:866  function viewNumber() public view returns(int256){... */\n    tag_9:\n      tag_39\n      tag_40\n      jump\t// in\n    tag_39:\n      mload(0x40)\n      tag_41\n      swap2\n      swap1\n      tag_30\n      jump\t// in\n    tag_41:\n      mload(0x40)\n      dup1\n      swap2\n      sub\n      swap1\n      return\n        /* \"storageFactory/simpleStorage.sol\":1263:1418  function getPerson(uint256 number) public view returns(int256, string memory){... */\n    tag_14:\n        /* \"storageFactory/simpleStorage.sol\":1318:1324  int256 */\n      0x00\n        /* \"storageFactory/simpleStorage.sol\":1326:1339  string memory */\n      0x60\n        /* \"storageFactory/simpleStorage.sol\":1358:1364  people */\n      0x01\n        /* \"storageFactory/simpleStorage.sol\":1365:1371  number */\n      dup4\n        /* \"storageFactory/simpleStorage.sol\":1358:1372  people[number] */\n      dup2\n      sload\n      dup2\n      lt\n      tag_43\n      jumpi\n      tag_44\n      tag_45\n      jump\t// in\n    tag_44:\n    tag_43:\n      swap1\n      0x00\n      mstore\n      keccak256(0x00, 0x20)\n      swap1\n      0x02\n      mul\n      add\n        /* \"storageFactory/simpleStorage.sol\":1358:1388  people[number].favouriteNumber */\n      0x00\n      add\n      sload\n        /* \"storageFactory/simpleStorage.sol\":1390:1396  people */\n      0x01\n        /* \"storageFactory/simpleStorage.sol\":1397:1403  number */\n      dup5\n        /* \"storageFactory/simpleStorage.sol\":1390:1404  people[number] */\n      dup2\n      sload\n      dup2\n      lt\n      tag_47\n      jumpi\n      tag_48\n      tag_45\n      jump\t// in\n    tag_48:\n    tag_47:\n      swap1\n      0x00\n      mstore\n      keccak256(0x00, 0x20)\n      swap1\n      0x02\n      mul\n      add\n        /* \"storageFactory/simpleStorage.sol\":1390:1409  people[number].name */\n      0x01\n      add\n        /* \"storageFactory/simpleStorage.sol\":1351:1410  return(people[number].favouriteNumber, people[number].name) */\n      dup1\n      dup1\n      sload\n      tag_50\n      swap1\n      tag_51\n      jump\t// in\n    tag_50:\n      dup1\n      0x1f\n      add\n      0x20\n      dup1\n      swap2\n      div\n      mul\n      0x20\n      add\n      mload(0x40)\n      swap1\n      dup2\n      add\n      0x40\n      mstore\n      dup1\n      swap3\n      swap2\n      swap1\n      dup2\n      dup2\n      mstore\n      0x20\n      add\n      dup3\n      dup1\n      sload\n      tag_52\n      swap1\n      tag_51\n      jump\t// in\n    tag_52:\n      dup1\n      iszero\n      tag_53\n      jumpi\n      dup1\n      0x1f\n      lt\n      tag_54\n      jumpi\n      0x0100\n      dup1\n      dup4\n      sload\n      div\n      mul\n      dup4\n      mstore\n      swap2\n      0x20\n      add\n      swap2\n      jump(tag_53)\n    tag_54:\n      dup3\n      add\n      swap2\n      swap1\n      0x00\n      mstore\n      keccak256(0x00, 0x20)\n      swap1\n    tag_55:\n      dup2\n      sload\n      dup2\n      mstore\n      swap1\n      0x01\n      add\n      swap1\n      0x20\n      add\n      dup1\n      dup4\n      gt\n      tag_55\n      jumpi\n      dup3\n      swap1\n      sub\n      0x1f\n      and\n      dup3\n      add\n      swap2\n    tag_53:\n      pop\n      pop\n      pop\n      pop\n      pop\n      swap1\n      pop\n      swap2\n      pop\n      swap2\n      pop\n        /* \"storageFactory/simpleStorage.sol\":1263:1418  function getPerson(uint256 number) public view returns(int256, string memory){... */\n      swap2\n      pop\n      swap2\n      jump\t// out\n        /* \"storageFactory/simpleStorage.sol\":1426:1545  function getPersonName(uint256 number) public view returns(string memory){... */\n    tag_19:\n        /* \"storageFactory/simpleStorage.sol\":1485:1498  string memory */\n      0x60\n        /* \"storageFactory/simpleStorage.sol\":1517:1523  people */\n      0x01\n        /* \"storageFactory/simpleStorage.sol\":1524:1530  number */\n      dup3\n        /* \"storageFactory/simpleStorage.sol\":1517:1531  people[number] */\n      dup2\n      sload\n      dup2\n      lt\n      tag_57\n      jumpi\n      tag_58\n      tag_45\n      jump\t// in\n    tag_58:\n    tag_57:\n      swap1\n      0x00\n      mstore\n      keccak256(0x00, 0x20)\n      swap1\n      0x02\n      mul\n      add\n        /* \"storageFactory/simpleStorage.sol\":1517:1536  people[number].name */\n      0x01\n      add\n        /* \"storageFactory/simpleStorage.sol\":1510:1537  return(people[number].name) */\n      dup1\n      sload\n      tag_60\n      swap1\n      tag_51\n      jump\t// in\n    tag_60:\n      dup1\n      0x1f\n      add\n      0x20\n      dup1\n      swap2\n      div\n      mul\n      0x20\n      add\n      mload(0x40)\n      swap1\n      dup2\n      add\n      0x40\n      mstore\n      dup1\n      swap3\n      swap2\n      swap1\n      dup2\n      dup2\n      mstore\n      0x20\n      add\n      dup3\n      dup1\n      sload\n      tag_61\n      swap1\n      tag_51\n      jump\t// in\n    tag_61:\n      dup1\n      iszero\n      tag_62\n      jumpi\n      dup1\n      0x1f\n      lt\n      tag_63\n      jumpi\n      0x0100\n      dup1\n      dup4\n      sload\n      div\n      mul\n      dup4\n      mstore\n      swap2\n      0x20\n      add\n      swap2\n      jump(tag_62)\n    tag_63:\n      dup3\n      add\n      swap2\n      swap1\n      0x00\n      mstore\n      keccak256(0x00, 0x20)\n      swap1\n    tag_64:\n      dup2\n      sload\n      dup2\n      mstore\n      swap1\n      0x01\n      add\n      swap1\n      0x20\n      add\n      dup1\n      dup4\n      gt\n      tag_64\n      jumpi\n      dup3\n      swap1\n      sub\n      0x1f\n      and\n      dup3\n      add\n      swap2\n    tag_62:\n      pop\n      pop\n      pop\n      pop\n      pop\n      swap1\n      pop\n        /* \"storageFactory/simpleStorage.sol\":1426:1545  function getPersonName(uint256 number) public view returns(string memory){... */\n      swap2\n      swap1\n      pop\n      jump\t// out\n        /* \"storageFactory/inheritance_override.sol\":248:660  function addNumber(int256 number) public override //so this declaration is the same as in the imported file, just override is added... */\n    tag_25:\n        /* \"storageFactory/inheritance_override.sol\":399:417  super.addNumber(4) */\n      tag_66\n        /* \"storageFactory/inheritance_override.sol\":415:416  4 */\n      0x04\n        /* \"storageFactory/inheritance_override.sol\":399:414  super.addNumber */\n      tag_67\n        /* \"storageFactory/inheritance_override.sol\":399:417  super.addNumber(4) */\n      jump\t// in\n    tag_66:\n        /* \"storageFactory/inheritance_override.sol\":646:652  number */\n      dup1\n        /* \"storageFactory/inheritance_override.sol\":636:645  newNumber */\n      sload(0x04)\n        /* \"storageFactory/inheritance_override.sol\":636:652  newNumber+number */\n      tag_68\n      swap2\n      swap1\n      tag_69\n      jump\t// in\n    tag_68:\n        /* \"storageFactory/inheritance_override.sol\":624:633  newNumber */\n      0x04\n        /* \"storageFactory/inheritance_override.sol\":624:652  newNumber = newNumber+number */\n      dup2\n      swap1\n      sstore\n      pop\n        /* \"storageFactory/inheritance_override.sol\":248:660  function addNumber(int256 number) public override //so this declaration is the same as in the imported file, just override is added... */\n      pop\n      jump\t// out\n        /* \"storageFactory/simpleStorage.sol\":1553:1679  function getPersonNumber(uint256 number) public view returns(int256){... */\n    tag_28:\n        /* \"storageFactory/simpleStorage.sol\":1614:1620  int256 */\n      0x00\n        /* \"storageFactory/simpleStorage.sol\":1640:1646  people */\n      0x01\n        /* \"storageFactory/simpleStorage.sol\":1647:1653  number */\n      dup3\n        /* \"storageFactory/simpleStorage.sol\":1640:1654  people[number] */\n      dup2\n      sload\n      dup2\n      lt\n      tag_71\n      jumpi\n      tag_72\n      tag_45\n      jump\t// in\n    tag_72:\n    tag_71:\n      swap1\n      0x00\n      mstore\n      keccak256(0x00, 0x20)\n      swap1\n      0x02\n      mul\n      add\n        /* \"storageFactory/simpleStorage.sol\":1640:1670  people[number].favouriteNumber */\n      0x00\n      add\n      sload\n        /* \"storageFactory/simpleStorage.sol\":1632:1671  return (people[number].favouriteNumber) */\n      swap1\n      pop\n        /* \"storageFactory/simpleStorage.sol\":1553:1679  function getPersonNumber(uint256 number) public view returns(int256){... */\n      swap2\n      swap1\n      pop\n      jump\t// out\n        /* \"storageFactory/simpleStorage.sol\":874:1257  function addPerson(string memory name, int256 number) public {... */\n    tag_34:\n        /* \"storageFactory/simpleStorage.sol\":946:952  people */\n      0x01\n        /* \"storageFactory/simpleStorage.sol\":958:978  Person(number, name) */\n      mload(0x40)\n      dup1\n      0x40\n      add\n      0x40\n      mstore\n      dup1\n        /* \"storageFactory/simpleStorage.sol\":965:971  number */\n      dup4\n        /* \"storageFactory/simpleStorage.sol\":958:978  Person(number, name) */\n      dup2\n      mstore\n      0x20\n      add\n        /* \"storageFactory/simpleStorage.sol\":973:977  name */\n      dup5\n        /* \"storageFactory/simpleStorage.sol\":958:978  Person(number, name) */\n      dup2\n      mstore\n      pop\n        /* \"storageFactory/simpleStorage.sol\":946:979  people.push(Person(number, name)) */\n      swap1\n      dup1\n      0x01\n      dup2\n      sload\n      add\n      dup1\n      dup3\n      sstore\n      dup1\n      swap2\n      pop\n      pop\n      0x01\n      swap1\n      sub\n      swap1\n      0x00\n      mstore\n      keccak256(0x00, 0x20)\n      swap1\n      0x02\n      mul\n      add\n      0x00\n      swap1\n      swap2\n      swap1\n      swap2\n      swap1\n      swap2\n      pop\n      0x00\n      dup3\n      add\n      mload\n      dup2\n      0x00\n      add\n      sstore\n      0x20\n      dup3\n      add\n      mload\n      dup2\n      0x01\n      add\n      swap1\n      dup2\n      tag_76\n      swap2\n      swap1\n      tag_77\n      jump\t// in\n    tag_76:\n      pop\n      pop\n      pop\n        /* \"storageFactory/simpleStorage.sol\":1015:1019  name */\n      dup2\n        /* \"storageFactory/simpleStorage.sol\":990:1005  mapNameToNumber */\n      0x00\n        /* \"storageFactory/simpleStorage.sol\":990:1013  mapNameToNumber[number] */\n      dup1\n        /* \"storageFactory/simpleStorage.sol\":1006:1012  number */\n      dup4\n        /* \"storageFactory/simpleStorage.sol\":990:1013  mapNameToNumber[number] */\n      dup2\n      mstore\n      0x20\n      add\n      swap1\n      dup2\n      mstore\n      0x20\n      add\n      0x00\n      keccak256\n        /* \"storageFactory/simpleStorage.sol\":990:1019  mapNameToNumber[number]= name */\n      swap1\n      dup2\n      tag_78\n      swap2\n      swap1\n      tag_77\n      jump\t// in\n    tag_78:\n      pop\n        /* \"storageFactory/simpleStorage.sol\":874:1257  function addPerson(string memory name, int256 number) public {... */\n      pop\n      pop\n      jump\t// out\n        /* \"storageFactory/simpleStorage.sol\":174:222  mapping(int256 => string) public mapNameToNumber */\n    tag_37:\n      mstore(0x20, 0x00)\n      dup1\n      0x00\n      mstore\n      keccak256(0x00, 0x40)\n      0x00\n      swap2\n      pop\n      swap1\n      pop\n      dup1\n      sload\n      tag_79\n      swap1\n      tag_51\n      jump\t// in\n    tag_79:\n      dup1\n      0x1f\n      add\n      0x20\n      dup1\n      swap2\n      div\n      mul\n      0x20\n      add\n      mload(0x40)\n      swap1\n      dup2\n      add\n      0x40\n      mstore\n      dup1\n      swap3\n      swap2\n      swap1\n      dup2\n      dup2\n      mstore\n      0x20\n      add\n      dup3\n      dup1\n      sload\n      tag_80\n      swap1\n      tag_51\n      jump\t// in\n    tag_80:\n      dup1\n      iszero\n      tag_81\n      jumpi\n      dup1\n      0x1f\n      lt\n      tag_82\n      jumpi\n      0x0100\n      dup1\n      dup4\n      sload\n      div\n      mul\n      dup4\n      mstore\n      swap2\n      0x20\n      add\n      swap2\n      jump(tag_81)\n    tag_82:\n      dup3\n      add\n      swap2\n      swap1\n      0x00\n      mstore\n      keccak256(0x00, 0x20)\n      swap1\n    tag_83:\n      dup2\n      sload\n      dup2\n      mstore\n      swap1\n      0x01\n      add\n      swap1\n      0x20\n      add\n      dup1\n      dup4\n      gt\n      tag_83\n      jumpi\n      dup3\n      swap1\n      sub\n      0x1f\n      and\n      dup3\n      add\n      swap2\n    tag_81:\n      pop\n      pop\n      pop\n      pop\n      pop\n      dup2\n      jump\t// out\n        /* \"storageFactory/simpleStorage.sol\":782:866  function viewNumber() public view returns(int256){... */\n    tag_40:\n        /* \"storageFactory/simpleStorage.sol\":824:830  int256 */\n      0x00\n        /* \"storageFactory/simpleStorage.sol\":849:858  newNumber */\n      sload(0x04)\n        /* \"storageFactory/simpleStorage.sol\":842:858  return newNumber */\n      swap1\n      pop\n        /* \"storageFactory/simpleStorage.sol\":782:866  function viewNumber() public view returns(int256){... */\n      swap1\n      jump\t// out\n        /* \"storageFactory/simpleStorage.sol\":572:774  function addNumber(int256 number) public virtual { // this means that his fucntion can be overriden, in the file inheritance_override.sol, there is an example of this... */\n    tag_67:\n        /* \"storageFactory/simpleStorage.sol\":760:766  number */\n      dup1\n        /* \"storageFactory/simpleStorage.sol\":748:757  newNumber */\n      0x04\n        /* \"storageFactory/simpleStorage.sol\":748:766  newNumber = number */\n      dup2\n      swap1\n      sstore\n      pop\n        /* \"storageFactory/simpleStorage.sol\":572:774  function addNumber(int256 number) public virtual { // this means that his fucntion can be overriden, in the file inheritance_override.sol, there is an example of this... */\n      pop\n      jump\t// out\n        /* \"#utility.yul\":7:82   */\n    tag_86:\n        /* \"#utility.yul\":40:46   */\n      0x00\n        /* \"#utility.yul\":73:75   */\n      0x40\n        /* \"#utility.yul\":67:76   */\n      mload\n        /* \"#utility.yul\":57:76   */\n      swap1\n      pop\n        /* \"#utility.yul\":7:82   */\n      swap1\n      jump\t// out\n        /* \"#utility.yul\":88:205   */\n    tag_87:\n        /* \"#utility.yul\":197:198   */\n      0x00\n        /* \"#utility.yul\":194:195   */\n      dup1\n        /* \"#utility.yul\":187:199   */\n      revert\n        /* \"#utility.yul\":211:328   */\n    tag_88:\n        /* \"#utility.yul\":320:321   */\n      0x00\n        /* \"#utility.yul\":317:318   */\n      dup1\n        /* \"#utility.yul\":310:322   */\n      revert\n        /* \"#utility.yul\":334:411   */\n    tag_89:\n        /* \"#utility.yul\":371:378   */\n      0x00\n        /* \"#utility.yul\":400:405   */\n      dup2\n        /* \"#utility.yul\":389:405   */\n      swap1\n      pop\n        /* \"#utility.yul\":334:411   */\n      swap2\n      swap1\n      pop\n      jump\t// out\n        /* \"#utility.yul\":417:539   */\n    tag_90:\n        /* \"#utility.yul\":490:514   */\n      tag_133\n        /* \"#utility.yul\":508:513   */\n      dup2\n        /* \"#utility.yul\":490:514   */\n      tag_89\n      jump\t// in\n    tag_133:\n        /* \"#utility.yul\":483:488   */\n      dup2\n        /* \"#utility.yul\":480:515   */\n      eq\n        /* \"#utility.yul\":470:533   */\n      tag_134\n      jumpi\n        /* \"#utility.yul\":529:530   */\n      0x00\n        /* \"#utility.yul\":526:527   */\n      dup1\n        /* \"#utility.yul\":519:531   */\n      revert\n        /* \"#utility.yul\":470:533   */\n    tag_134:\n        /* \"#utility.yul\":417:539   */\n      pop\n      jump\t// out\n        /* \"#utility.yul\":545:684   */\n    tag_91:\n        /* \"#utility.yul\":591:596   */\n      0x00\n        /* \"#utility.yul\":629:635   */\n      dup2\n        /* \"#utility.yul\":616:636   */\n      calldataload\n        /* \"#utility.yul\":607:636   */\n      swap1\n      pop\n        /* \"#utility.yul\":645:678   */\n      tag_136\n        /* \"#utility.yul\":672:677   */\n      dup2\n        /* \"#utility.yul\":645:678   */\n      tag_90\n      jump\t// in\n    tag_136:\n        /* \"#utility.yul\":545:684   */\n      swap3\n      swap2\n      pop\n      pop\n      jump\t// out\n        /* \"#utility.yul\":690:1019   */\n    tag_13:\n        /* \"#utility.yul\":749:755   */\n      0x00\n        /* \"#utility.yul\":798:800   */\n      0x20\n        /* \"#utility.yul\":786:795   */\n      dup3\n        /* \"#utility.yul\":777:784   */\n      dup5\n        /* \"#utility.yul\":773:796   */\n      sub\n        /* \"#utility.yul\":769:801   */\n      slt\n        /* \"#utility.yul\":766:885   */\n      iszero\n      tag_138\n      jumpi\n        /* \"#utility.yul\":804:883   */\n      tag_139\n      tag_87\n      jump\t// in\n    tag_139:\n        /* \"#utility.yul\":766:885   */\n    tag_138:\n        /* \"#utility.yul\":924:925   */\n      0x00\n        /* \"#utility.yul\":949:1002   */\n      tag_140\n        /* \"#utility.yul\":994:1001   */\n      dup5\n        /* \"#utility.yul\":985:991   */\n      dup3\n        /* \"#utility.yul\":974:983   */\n      dup6\n        /* \"#utility.yul\":970:992   */\n      add\n        /* \"#utility.yul\":949:1002   */\n      tag_91\n      jump\t// in\n    tag_140:\n        /* \"#utility.yul\":939:1002   */\n      swap2\n      pop\n        /* \"#utility.yul\":895:1012   */\n      pop\n        /* \"#utility.yul\":690:1019   */\n      swap3\n      swap2\n      pop\n      pop\n      jump\t// out\n        /* \"#utility.yul\":1025:1101   */\n    tag_92:\n        /* \"#utility.yul\":1061:1068   */\n      0x00\n        /* \"#utility.yul\":1090:1095   */\n      dup2\n        /* \"#utility.yul\":1079:1095   */\n      swap1\n      pop\n        /* \"#utility.yul\":1025:1101   */\n      swap2\n      swap1\n      pop\n      jump\t// out\n        /* \"#utility.yul\":1107:1222   */\n    tag_93:\n        /* \"#utility.yul\":1192:1215   */\n      tag_143\n        /* \"#utility.yul\":1209:1214   */\n      dup2\n        /* \"#utility.yul\":1192:1215   */\n      tag_92\n      jump\t// in\n    tag_143:\n        /* \"#utility.yul\":1187:1190   */\n      dup3\n        /* \"#utility.yul\":1180:1216   */\n      mstore\n        /* \"#utility.yul\":1107:1222   */\n      pop\n      pop\n      jump\t// out\n        /* \"#utility.yul\":1228:1327   */\n    tag_94:\n        /* \"#utility.yul\":1280:1286   */\n      0x00\n        /* \"#utility.yul\":1314:1319   */\n      dup2\n        /* \"#utility.yul\":1308:1320   */\n      mload\n        /* \"#utility.yul\":1298:1320   */\n      swap1\n      pop\n        /* \"#utility.yul\":1228:1327   */\n      swap2\n      swap1\n      pop\n      jump\t// out\n        /* \"#utility.yul\":1333:1502   */\n    tag_95:\n        /* \"#utility.yul\":1417:1428   */\n      0x00\n        /* \"#utility.yul\":1451:1457   */\n      dup3\n        /* \"#utility.yul\":1446:1449   */\n      dup3\n        /* \"#utility.yul\":1439:1458   */\n      mstore\n        /* \"#utility.yul\":1491:1495   */\n      0x20\n        /* \"#utility.yul\":1486:1489   */\n      dup3\n        /* \"#utility.yul\":1482:1496   */\n      add\n        /* \"#utility.yul\":1467:1496   */\n      swap1\n      pop\n        /* \"#utility.yul\":1333:1502   */\n      swap3\n      swap2\n      pop\n      pop\n      jump\t// out\n        /* \"#utility.yul\":1508:1647   */\n    tag_96:\n        /* \"#utility.yul\":1597:1603   */\n      dup3\n        /* \"#utility.yul\":1592:1595   */\n      dup2\n        /* \"#utility.yul\":1587:1590   */\n      dup4\n        /* \"#utility.yul\":1581:1604   */\n      mcopy\n        /* \"#utility.yul\":1638:1639   */\n      0x00\n        /* \"#utility.yul\":1629:1635   */\n      dup4\n        /* \"#utility.yul\":1624:1627   */\n      dup4\n        /* \"#utility.yul\":1620:1636   */\n      add\n        /* \"#utility.yul\":1613:1640   */\n      mstore\n        /* \"#utility.yul\":1508:1647   */\n      pop\n      pop\n      pop\n      jump\t// out\n        /* \"#utility.yul\":1653:1755   */\n    tag_97:\n        /* \"#utility.yul\":1694:1700   */\n      0x00\n        /* \"#utility.yul\":1745:1747   */\n      0x1f\n        /* \"#utility.yul\":1741:1748   */\n      not\n        /* \"#utility.yul\":1736:1738   */\n      0x1f\n        /* \"#utility.yul\":1729:1734   */\n      dup4\n        /* \"#utility.yul\":1725:1739   */\n      add\n        /* \"#utility.yul\":1721:1749   */\n      and\n        /* \"#utility.yul\":1711:1749   */\n      swap1\n      pop\n        /* \"#utility.yul\":1653:1755   */\n      swap2\n      swap1\n      pop\n      jump\t// out\n        /* \"#utility.yul\":1761:2138   */\n    tag_98:\n        /* \"#utility.yul\":1849:1852   */\n      0x00\n        /* \"#utility.yul\":1877:1916   */\n      tag_149\n        /* \"#utility.yul\":1910:1915   */\n      dup3\n        /* \"#utility.yul\":1877:1916   */\n      tag_94\n      jump\t// in\n    tag_149:\n        /* \"#utility.yul\":1932:2003   */\n      tag_150\n        /* \"#utility.yul\":1996:2002   */\n      dup2\n        /* \"#utility.yul\":1991:1994   */\n      dup6\n        /* \"#utility.yul\":1932:2003   */\n      tag_95\n      jump\t// in\n    tag_150:\n        /* \"#utility.yul\":1925:2003   */\n      swap4\n      pop\n        /* \"#utility.yul\":2012:2077   */\n      tag_151\n        /* \"#utility.yul\":2070:2076   */\n      dup2\n        /* \"#utility.yul\":2065:2068   */\n      dup6\n        /* \"#utility.yul\":2058:2062   */\n      0x20\n        /* \"#utility.yul\":2051:2056   */\n      dup7\n        /* \"#utility.yul\":2047:2063   */\n      add\n        /* \"#utility.yul\":2012:2077   */\n      tag_96\n      jump\t// in\n    tag_151:\n        /* \"#utility.yul\":2102:2131   */\n      tag_152\n        /* \"#utility.yul\":2124:2130   */\n      dup2\n        /* \"#utility.yul\":2102:2131   */\n      tag_97\n      jump\t// in\n    tag_152:\n        /* \"#utility.yul\":2097:2100   */\n      dup5\n        /* \"#utility.yul\":2093:2132   */\n      add\n        /* \"#utility.yul\":2086:2132   */\n      swap2\n      pop\n        /* \"#utility.yul\":1853:2138   */\n      pop\n        /* \"#utility.yul\":1761:2138   */\n      swap3\n      swap2\n      pop\n      pop\n      jump\t// out\n        /* \"#utility.yul\":2144:2563   */\n    tag_16:\n        /* \"#utility.yul\":2283:2287   */\n      0x00\n        /* \"#utility.yul\":2321:2323   */\n      0x40\n        /* \"#utility.yul\":2310:2319   */\n      dup3\n        /* \"#utility.yul\":2306:2324   */\n      add\n        /* \"#utility.yul\":2298:2324   */\n      swap1\n      pop\n        /* \"#utility.yul\":2334:2403   */\n      tag_154\n        /* \"#utility.yul\":2400:2401   */\n      0x00\n        /* \"#utility.yul\":2389:2398   */\n      dup4\n        /* \"#utility.yul\":2385:2402   */\n      add\n        /* \"#utility.yul\":2376:2382   */\n      dup6\n        /* \"#utility.yul\":2334:2403   */\n      tag_93\n      jump\t// in\n    tag_154:\n        /* \"#utility.yul\":2450:2459   */\n      dup2\n        /* \"#utility.yul\":2444:2448   */\n      dup2\n        /* \"#utility.yul\":2440:2460   */\n      sub\n        /* \"#utility.yul\":2435:2437   */\n      0x20\n        /* \"#utility.yul\":2424:2433   */\n      dup4\n        /* \"#utility.yul\":2420:2438   */\n      add\n        /* \"#utility.yul\":2413:2461   */\n      mstore\n        /* \"#utility.yul\":2478:2556   */\n      tag_155\n        /* \"#utility.yul\":2551:2555   */\n      dup2\n        /* \"#utility.yul\":2542:2548   */\n      dup5\n        /* \"#utility.yul\":2478:2556   */\n      tag_98\n      jump\t// in\n    tag_155:\n        /* \"#utility.yul\":2470:2556   */\n      swap1\n      pop\n        /* \"#utility.yul\":2144:2563   */\n      swap4\n      swap3\n      pop\n      pop\n      pop\n      jump\t// out\n        /* \"#utility.yul\":2569:2882   */\n    tag_21:\n        /* \"#utility.yul\":2682:2686   */\n      0x00\n        /* \"#utility.yul\":2720:2722   */\n      0x20\n        /* \"#utility.yul\":2709:2718   */\n      dup3\n        /* \"#utility.yul\":2705:2723   */\n      add\n        /* \"#utility.yul\":2697:2723   */\n      swap1\n      pop\n        /* \"#utility.yul\":2769:2778   */\n      dup2\n        /* \"#utility.yul\":2763:2767   */\n      dup2\n        /* \"#utility.yul\":2759:2779   */\n      sub\n        /* \"#utility.yul\":2755:2756   */\n      0x00\n        /* \"#utility.yul\":2744:2753   */\n      dup4\n        /* \"#utility.yul\":2740:2757   */\n      add\n        /* \"#utility.yul\":2733:2780   */\n      mstore\n        /* \"#utility.yul\":2797:2875   */\n      tag_157\n        /* \"#utility.yul\":2870:2874   */\n      dup2\n        /* \"#utility.yul\":2861:2867   */\n      dup5\n        /* \"#utility.yul\":2797:2875   */\n      tag_98\n      jump\t// in\n    tag_157:\n        /* \"#utility.yul\":2789:2875   */\n      swap1\n      pop\n        /* \"#utility.yul\":2569:2882   */\n      swap3\n      swap2\n      pop\n      pop\n      jump\t// out\n        /* \"#utility.yul\":2888:3008   */\n    tag_99:\n        /* \"#utility.yul\":2960:2983   */\n      tag_159\n        /* \"#utility.yul\":2977:2982   */\n      dup2\n        /* \"#utility.yul\":2960:2983   */\n      tag_92\n      jump\t// in\n    tag_159:\n        /* \"#utility.yul\":2953:2958   */\n      dup2\n        /* \"#utility.yul\":2950:2984   */\n      eq\n        /* \"#utility.yul\":2940:3002   */\n      tag_160\n      jumpi\n        /* \"#utility.yul\":2998:2999   */\n      0x00\n        /* \"#utility.yul\":2995:2996   */\n      dup1\n        /* \"#utility.yul\":2988:3000   */\n      revert\n        /* \"#utility.yul\":2940:3002   */\n    tag_160:\n        /* \"#utility.yul\":2888:3008   */\n      pop\n      jump\t// out\n        /* \"#utility.yul\":3014:3151   */\n    tag_100:\n        /* \"#utility.yul\":3059:3064   */\n      0x00\n        /* \"#utility.yul\":3097:3103   */\n      dup2\n        /* \"#utility.yul\":3084:3104   */\n      calldataload\n        /* \"#utility.yul\":3075:3104   */\n      swap1\n      pop\n        /* \"#utility.yul\":3113:3145   */\n      tag_162\n        /* \"#utility.yul\":3139:3144   */\n      dup2\n        /* \"#utility.yul\":3113:3145   */\n      tag_99\n      jump\t// in\n    tag_162:\n        /* \"#utility.yul\":3014:3151   */\n      swap3\n      swap2\n      pop\n      pop\n      jump\t// out\n        /* \"#utility.yul\":3157:3484   */\n    tag_24:\n        /* \"#utility.yul\":3215:3221   */\n      0x00\n        /* \"#utility.yul\":3264:3266   */\n      0x20\n        /* \"#utility.yul\":3252:3261   */\n      dup3\n        /* \"#utility.yul\":3243:3250   */\n      dup5\n        /* \"#utility.yul\":3239:3262   */\n      sub\n        /* \"#utility.yul\":3235:3267   */\n      slt\n        /* \"#utility.yul\":3232:3351   */\n      iszero\n      tag_164\n      jumpi\n        /* \"#utility.yul\":3270:3349   */\n      tag_165\n      tag_87\n      jump\t// in\n    tag_165:\n        /* \"#utility.yul\":3232:3351   */\n    tag_164:\n        /* \"#utility.yul\":3390:3391   */\n      0x00\n        /* \"#utility.yul\":3415:3467   */\n      tag_166\n        /* \"#utility.yul\":3459:3466   */\n      dup5\n        /* \"#utility.yul\":3450:3456   */\n      dup3\n        /* \"#utility.yul\":3439:3448   */\n      dup6\n        /* \"#utility.yul\":3435:3457   */\n      add\n        /* \"#utility.yul\":3415:3467   */\n      tag_100\n      jump\t// in\n    tag_166:\n        /* \"#utility.yul\":3405:3467   */\n      swap2\n      pop\n        /* \"#utility.yul\":3361:3477   */\n      pop\n        /* \"#utility.yul\":3157:3484   */\n      swap3\n      swap2\n      pop\n      pop\n      jump\t// out\n        /* \"#utility.yul\":3490:3708   */\n    tag_30:\n        /* \"#utility.yul\":3581:3585   */\n      0x00\n        /* \"#utility.yul\":3619:3621   */\n      0x20\n        /* \"#utility.yul\":3608:3617   */\n      dup3\n        /* \"#utility.yul\":3604:3622   */\n      add\n        /* \"#utility.yul\":3596:3622   */\n      swap1\n      pop\n        /* \"#utility.yul\":3632:3701   */\n      tag_168\n        /* \"#utility.yul\":3698:3699   */\n      0x00\n        /* \"#utility.yul\":3687:3696   */\n      dup4\n        /* \"#utility.yul\":3683:3700   */\n      add\n        /* \"#utility.yul\":3674:3680   */\n      dup5\n        /* \"#utility.yul\":3632:3701   */\n      tag_93\n      jump\t// in\n    tag_168:\n        /* \"#utility.yul\":3490:3708   */\n      swap3\n      swap2\n      pop\n      pop\n      jump\t// out\n        /* \"#utility.yul\":3714:3831   */\n    tag_101:\n        /* \"#utility.yul\":3823:3824   */\n      0x00\n        /* \"#utility.yul\":3820:3821   */\n      dup1\n        /* \"#utility.yul\":3813:3825   */\n      revert\n        /* \"#utility.yul\":3837:3954   */\n    tag_102:\n        /* \"#utility.yul\":3946:3947   */\n      0x00\n        /* \"#utility.yul\":3943:3944   */\n      dup1\n        /* \"#utility.yul\":3936:3948   */\n      revert\n        /* \"#utility.yul\":3960:4140   */\n    tag_103:\n        /* \"#utility.yul\":4008:4085   */\n      0x4e487b7100000000000000000000000000000000000000000000000000000000\n        /* \"#utility.yul\":4005:4006   */\n      0x00\n        /* \"#utility.yul\":3998:4086   */\n      mstore\n        /* \"#utility.yul\":4105:4109   */\n      0x41\n        /* \"#utility.yul\":4102:4103   */\n      0x04\n        /* \"#utility.yul\":4095:4110   */\n      mstore\n        /* \"#utility.yul\":4129:4133   */\n      0x24\n        /* \"#utility.yul\":4126:4127   */\n      0x00\n        /* \"#utility.yul\":4119:4134   */\n      revert\n        /* \"#utility.yul\":4146:4427   */\n    tag_104:\n        /* \"#utility.yul\":4229:4256   */\n      tag_173\n        /* \"#utility.yul\":4251:4255   */\n      dup3\n        /* \"#utility.yul\":4229:4256   */\n      tag_97\n      jump\t// in\n    tag_173:\n        /* \"#utility.yul\":4221:4227   */\n      dup2\n        /* \"#utility.yul\":4217:4257   */\n      add\n        /* \"#utility.yul\":4359:4365   */\n      dup2\n        /* \"#utility.yul\":4347:4357   */\n      dup2\n        /* \"#utility.yul\":4344:4366   */\n      lt\n        /* \"#utility.yul\":4323:4341   */\n      0xffffffffffffffff\n        /* \"#utility.yul\":4311:4321   */\n      dup3\n        /* \"#utility.yul\":4308:4342   */\n      gt\n        /* \"#utility.yul\":4305:4367   */\n      or\n        /* \"#utility.yul\":4302:4390   */\n      iszero\n      tag_174\n      jumpi\n        /* \"#utility.yul\":4370:4388   */\n      tag_175\n      tag_103\n      jump\t// in\n    tag_175:\n        /* \"#utility.yul\":4302:4390   */\n    tag_174:\n        /* \"#utility.yul\":4410:4420   */\n      dup1\n        /* \"#utility.yul\":4406:4408   */\n      0x40\n        /* \"#utility.yul\":4399:4421   */\n      mstore\n        /* \"#utility.yul\":4189:4427   */\n      pop\n        /* \"#utility.yul\":4146:4427   */\n      pop\n      pop\n      jump\t// out\n        /* \"#utility.yul\":4433:4562   */\n    tag_105:\n        /* \"#utility.yul\":4467:4473   */\n      0x00\n        /* \"#utility.yul\":4494:4514   */\n      tag_177\n      tag_86\n      jump\t// in\n    tag_177:\n        /* \"#utility.yul\":4484:4514   */\n      swap1\n      pop\n        /* \"#utility.yul\":4523:4556   */\n      tag_178\n        /* \"#utility.yul\":4551:4555   */\n      dup3\n        /* \"#utility.yul\":4543:4549   */\n      dup3\n        /* \"#utility.yul\":4523:4556   */\n      tag_104\n      jump\t// in\n    tag_178:\n        /* \"#utility.yul\":4433:4562   */\n      swap2\n      swap1\n      pop\n      jump\t// out\n        /* \"#utility.yul\":4568:4876   */\n    tag_106:\n        /* \"#utility.yul\":4630:4634   */\n      0x00\n        /* \"#utility.yul\":4720:4738   */\n      0xffffffffffffffff\n        /* \"#utility.yul\":4712:4718   */\n      dup3\n        /* \"#utility.yul\":4709:4739   */\n      gt\n        /* \"#utility.yul\":4706:4762   */\n      iszero\n      tag_180\n      jumpi\n        /* \"#utility.yul\":4742:4760   */\n      tag_181\n      tag_103\n      jump\t// in\n    tag_181:\n        /* \"#utility.yul\":4706:4762   */\n    tag_180:\n        /* \"#utility.yul\":4780:4809   */\n      tag_182\n        /* \"#utility.yul\":4802:4808   */\n      dup3\n        /* \"#utility.yul\":4780:4809   */\n      tag_97\n      jump\t// in\n    tag_182:\n        /* \"#utility.yul\":4772:4809   */\n      swap1\n      pop\n        /* \"#utility.yul\":4864:4868   */\n      0x20\n        /* \"#utility.yul\":4858:4862   */\n      dup2\n        /* \"#utility.yul\":4854:4869   */\n      add\n        /* \"#utility.yul\":4846:4869   */\n      swap1\n      pop\n        /* \"#utility.yul\":4568:4876   */\n      swap2\n      swap1\n      pop\n      jump\t// out\n        /* \"#utility.yul\":4882:5030   */\n    tag_107:\n        /* \"#utility.yul\":4980:4986   */\n      dup3\n        /* \"#utility.yul\":4975:4978   */\n      dup2\n        /* \"#utility.yul\":4970:4973   */\n      dup4\n        /* \"#utility.yul\":4957:4987   */\n      calldatacopy\n        /* \"#utility.yul\":5021:5022   */\n      0x00\n        /* \"#utility.yul\":5012:5018   */\n      dup4\n        /* \"#utility.yul\":5007:5010   */\n      dup4\n        /* \"#utility.yul\":5003:5019   */\n      add\n        /* \"#utility.yul\":4996:5023   */\n      mstore\n        /* \"#utility.yul\":4882:5030   */\n      pop\n      pop\n      pop\n      jump\t// out\n        /* \"#utility.yul\":5036:5461   */\n    tag_108:\n        /* \"#utility.yul\":5114:5119   */\n      0x00\n        /* \"#utility.yul\":5139:5205   */\n      tag_185\n        /* \"#utility.yul\":5155:5204   */\n      tag_186\n        /* \"#utility.yul\":5197:5203   */\n      dup5\n        /* \"#utility.yul\":5155:5204   */\n      tag_106\n      jump\t// in\n    tag_186:\n        /* \"#utility.yul\":5139:5205   */\n      tag_105\n      jump\t// in\n    tag_185:\n        /* \"#utility.yul\":5130:5205   */\n      swap1\n      pop\n        /* \"#utility.yul\":5228:5234   */\n      dup3\n        /* \"#utility.yul\":5221:5226   */\n      dup2\n        /* \"#utility.yul\":5214:5235   */\n      mstore\n        /* \"#utility.yul\":5266:5270   */\n      0x20\n        /* \"#utility.yul\":5259:5264   */\n      dup2\n        /* \"#utility.yul\":5255:5271   */\n      add\n        /* \"#utility.yul\":5304:5307   */\n      dup5\n        /* \"#utility.yul\":5295:5301   */\n      dup5\n        /* \"#utility.yul\":5290:5293   */\n      dup5\n        /* \"#utility.yul\":5286:5302   */\n      add\n        /* \"#utility.yul\":5283:5308   */\n      gt\n        /* \"#utility.yul\":5280:5392   */\n      iszero\n      tag_187\n      jumpi\n        /* \"#utility.yul\":5311:5390   */\n      tag_188\n      tag_102\n      jump\t// in\n    tag_188:\n        /* \"#utility.yul\":5280:5392   */\n    tag_187:\n        /* \"#utility.yul\":5401:5455   */\n      tag_189\n        /* \"#utility.yul\":5448:5454   */\n      dup5\n        /* \"#utility.yul\":5443:5446   */\n      dup3\n        /* \"#utility.yul\":5438:5441   */\n      dup6\n        /* \"#utility.yul\":5401:5455   */\n      tag_107\n      jump\t// in\n    tag_189:\n        /* \"#utility.yul\":5120:5461   */\n      pop\n        /* \"#utility.yul\":5036:5461   */\n      swap4\n      swap3\n      pop\n      pop\n      pop\n      jump\t// out\n        /* \"#utility.yul\":5481:5821   */\n    tag_109:\n        /* \"#utility.yul\":5537:5542   */\n      0x00\n        /* \"#utility.yul\":5586:5589   */\n      dup3\n        /* \"#utility.yul\":5579:5583   */\n      0x1f\n        /* \"#utility.yul\":5571:5577   */\n      dup4\n        /* \"#utility.yul\":5567:5584   */\n      add\n        /* \"#utility.yul\":5563:5590   */\n      slt\n        /* \"#utility.yul\":5553:5675   */\n      tag_191\n      jumpi\n        /* \"#utility.yul\":5594:5673   */\n      tag_192\n      tag_101\n      jump\t// in\n    tag_192:\n        /* \"#utility.yul\":5553:5675   */\n    tag_191:\n        /* \"#utility.yul\":5711:5717   */\n      dup2\n        /* \"#utility.yul\":5698:5718   */\n      calldataload\n        /* \"#utility.yul\":5736:5815   */\n      tag_193\n        /* \"#utility.yul\":5811:5814   */\n      dup5\n        /* \"#utility.yul\":5803:5809   */\n      dup3\n        /* \"#utility.yul\":5796:5800   */\n      0x20\n        /* \"#utility.yul\":5788:5794   */\n      dup7\n        /* \"#utility.yul\":5784:5801   */\n      add\n        /* \"#utility.yul\":5736:5815   */\n      tag_108\n      jump\t// in\n    tag_193:\n        /* \"#utility.yul\":5727:5815   */\n      swap2\n      pop\n        /* \"#utility.yul\":5543:5821   */\n      pop\n        /* \"#utility.yul\":5481:5821   */\n      swap3\n      swap2\n      pop\n      pop\n      jump\t// out\n        /* \"#utility.yul\":5827:6479   */\n    tag_33:\n        /* \"#utility.yul\":5904:5910   */\n      0x00\n        /* \"#utility.yul\":5912:5918   */\n      dup1\n        /* \"#utility.yul\":5961:5963   */\n      0x40\n        /* \"#utility.yul\":5949:5958   */\n      dup4\n        /* \"#utility.yul\":5940:5947   */\n      dup6\n        /* \"#utility.yul\":5936:5959   */\n      sub\n        /* \"#utility.yul\":5932:5964   */\n      slt\n        /* \"#utility.yul\":5929:6048   */\n      iszero\n      tag_195\n      jumpi\n        /* \"#utility.yul\":5967:6046   */\n      tag_196\n      tag_87\n      jump\t// in\n    tag_196:\n        /* \"#utility.yul\":5929:6048   */\n    tag_195:\n        /* \"#utility.yul\":6115:6116   */\n      0x00\n        /* \"#utility.yul\":6104:6113   */\n      dup4\n        /* \"#utility.yul\":6100:6117   */\n      add\n        /* \"#utility.yul\":6087:6118   */\n      calldataload\n        /* \"#utility.yul\":6145:6163   */\n      0xffffffffffffffff\n        /* \"#utility.yul\":6137:6143   */\n      dup2\n        /* \"#utility.yul\":6134:6164   */\n      gt\n        /* \"#utility.yul\":6131:6248   */\n      iszero\n      tag_197\n      jumpi\n        /* \"#utility.yul\":6167:6246   */\n      tag_198\n      tag_88\n      jump\t// in\n    tag_198:\n        /* \"#utility.yul\":6131:6248   */\n    tag_197:\n        /* \"#utility.yul\":6272:6335   */\n      tag_199\n        /* \"#utility.yul\":6327:6334   */\n      dup6\n        /* \"#utility.yul\":6318:6324   */\n      dup3\n        /* \"#utility.yul\":6307:6316   */\n      dup7\n        /* \"#utility.yul\":6303:6325   */\n      add\n        /* \"#utility.yul\":6272:6335   */\n      tag_109\n      jump\t// in\n    tag_199:\n        /* \"#utility.yul\":6262:6335   */\n      swap3\n      pop\n        /* \"#utility.yul\":6058:6345   */\n      pop\n        /* \"#utility.yul\":6384:6386   */\n      0x20\n        /* \"#utility.yul\":6410:6462   */\n      tag_200\n        /* \"#utility.yul\":6454:6461   */\n      dup6\n        /* \"#utility.yul\":6445:6451   */\n      dup3\n        /* \"#utility.yul\":6434:6443   */\n      dup7\n        /* \"#utility.yul\":6430:6452   */\n      add\n        /* \"#utility.yul\":6410:6462   */\n      tag_100\n      jump\t// in\n    tag_200:\n        /* \"#utility.yul\":6400:6462   */\n      swap2\n      pop\n        /* \"#utility.yul\":6355:6472   */\n      pop\n        /* \"#utility.yul\":5827:6479   */\n      swap3\n      pop\n      swap3\n      swap1\n      pop\n      jump\t// out\n        /* \"#utility.yul\":6485:6665   */\n    tag_45:\n        /* \"#utility.yul\":6533:6610   */\n      0x4e487b7100000000000000000000000000000000000000000000000000000000\n        /* \"#utility.yul\":6530:6531   */\n      0x00\n        /* \"#utility.yul\":6523:6611   */\n      mstore\n        /* \"#utility.yul\":6630:6634   */\n      0x32\n        /* \"#utility.yul\":6627:6628   */\n      0x04\n        /* \"#utility.yul\":6620:6635   */\n      mstore\n        /* \"#utility.yul\":6654:6658   */\n      0x24\n        /* \"#utility.yul\":6651:6652   */\n      0x00\n        /* \"#utility.yul\":6644:6659   */\n      revert\n        /* \"#utility.yul\":6671:6851   */\n    tag_110:\n        /* \"#utility.yul\":6719:6796   */\n      0x4e487b7100000000000000000000000000000000000000000000000000000000\n        /* \"#utility.yul\":6716:6717   */\n      0x00\n        /* \"#utility.yul\":6709:6797   */\n      mstore\n        /* \"#utility.yul\":6816:6820   */\n      0x22\n        /* \"#utility.yul\":6813:6814   */\n      0x04\n        /* \"#utility.yul\":6806:6821   */\n      mstore\n        /* \"#utility.yul\":6840:6844   */\n      0x24\n        /* \"#utility.yul\":6837:6838   */\n      0x00\n        /* \"#utility.yul\":6830:6845   */\n      revert\n        /* \"#utility.yul\":6857:7177   */\n    tag_51:\n        /* \"#utility.yul\":6901:6907   */\n      0x00\n        /* \"#utility.yul\":6938:6939   */\n      0x02\n        /* \"#utility.yul\":6932:6936   */\n      dup3\n        /* \"#utility.yul\":6928:6940   */\n      div\n        /* \"#utility.yul\":6918:6940   */\n      swap1\n      pop\n        /* \"#utility.yul\":6985:6986   */\n      0x01\n        /* \"#utility.yul\":6979:6983   */\n      dup3\n        /* \"#utility.yul\":6975:6987   */\n      and\n        /* \"#utility.yul\":7006:7024   */\n      dup1\n        /* \"#utility.yul\":6996:7077   */\n      tag_204\n      jumpi\n        /* \"#utility.yul\":7062:7066   */\n      0x7f\n        /* \"#utility.yul\":7054:7060   */\n      dup3\n        /* \"#utility.yul\":7050:7067   */\n      and\n        /* \"#utility.yul\":7040:7067   */\n      swap2\n      pop\n        /* \"#utility.yul\":6996:7077   */\n    tag_204:\n        /* \"#utility.yul\":7124:7126   */\n      0x20\n        /* \"#utility.yul\":7116:7122   */\n      dup3\n        /* \"#utility.yul\":7113:7127   */\n      lt\n        /* \"#utility.yul\":7093:7111   */\n      dup2\n        /* \"#utility.yul\":7090:7128   */\n      sub\n        /* \"#utility.yul\":7087:7171   */\n      tag_205\n      jumpi\n        /* \"#utility.yul\":7143:7161   */\n      tag_206\n      tag_110\n      jump\t// in\n    tag_206:\n        /* \"#utility.yul\":7087:7171   */\n    tag_205:\n        /* \"#utility.yul\":6908:7177   */\n      pop\n        /* \"#utility.yul\":6857:7177   */\n      swap2\n      swap1\n      pop\n      jump\t// out\n        /* \"#utility.yul\":7183:7363   */\n    tag_111:\n        /* \"#utility.yul\":7231:7308   */\n      0x4e487b7100000000000000000000000000000000000000000000000000000000\n        /* \"#utility.yul\":7228:7229   */\n      0x00\n        /* \"#utility.yul\":7221:7309   */\n      mstore\n        /* \"#utility.yul\":7328:7332   */\n      0x11\n        /* \"#utility.yul\":7325:7326   */\n      0x04\n        /* \"#utility.yul\":7318:7333   */\n      mstore\n        /* \"#utility.yul\":7352:7356   */\n      0x24\n        /* \"#utility.yul\":7349:7350   */\n      0x00\n        /* \"#utility.yul\":7342:7357   */\n      revert\n        /* \"#utility.yul\":7369:7744   */\n    tag_69:\n        /* \"#utility.yul\":7408:7411   */\n      0x00\n        /* \"#utility.yul\":7427:7446   */\n      tag_209\n        /* \"#utility.yul\":7444:7445   */\n      dup3\n        /* \"#utility.yul\":7427:7446   */\n      tag_92\n      jump\t// in\n    tag_209:\n        /* \"#utility.yul\":7422:7446   */\n      swap2\n      pop\n        /* \"#utility.yul\":7460:7479   */\n      tag_210\n        /* \"#utility.yul\":7477:7478   */\n      dup4\n        /* \"#utility.yul\":7460:7479   */\n      tag_92\n      jump\t// in\n    tag_210:\n        /* \"#utility.yul\":7455:7479   */\n      swap3\n      pop\n        /* \"#utility.yul\":7502:7503   */\n      dup3\n        /* \"#utility.yul\":7499:7500   */\n      dup3\n        /* \"#utility.yul\":7495:7504   */\n      add\n        /* \"#utility.yul\":7488:7504   */\n      swap1\n      pop\n        /* \"#utility.yul\":7700:7701   */\n      dup3\n        /* \"#utility.yul\":7695:7698   */\n      dup2\n        /* \"#utility.yul\":7691:7702   */\n      slt\n        /* \"#utility.yul\":7684:7703   */\n      iszero\n        /* \"#utility.yul\":7680:7681   */\n      0x00\n        /* \"#utility.yul\":7677:7678   */\n      dup4\n        /* \"#utility.yul\":7673:7682   */\n      slt\n        /* \"#utility.yul\":7669:7704   */\n      and\n        /* \"#utility.yul\":7652:7653   */\n      dup4\n        /* \"#utility.yul\":7647:7650   */\n      dup3\n        /* \"#utility.yul\":7643:7654   */\n      slt\n        /* \"#utility.yul\":7638:7639   */\n      0x00\n        /* \"#utility.yul\":7635:7636   */\n      dup5\n        /* \"#utility.yul\":7631:7640   */\n      slt\n        /* \"#utility.yul\":7624:7641   */\n      iszero\n        /* \"#utility.yul\":7620:7655   */\n      and\n        /* \"#utility.yul\":7604:7714   */\n      or\n        /* \"#utility.yul\":7601:7737   */\n      iszero\n      tag_211\n      jumpi\n        /* \"#utility.yul\":7717:7735   */\n      tag_212\n      tag_111\n      jump\t// in\n    tag_212:\n        /* \"#utility.yul\":7601:7737   */\n    tag_211:\n        /* \"#utility.yul\":7369:7744   */\n      swap3\n      swap2\n      pop\n      pop\n      jump\t// out\n        /* \"#utility.yul\":7750:7891   */\n    tag_112:\n        /* \"#utility.yul\":7799:7803   */\n      0x00\n        /* \"#utility.yul\":7822:7825   */\n      dup2\n        /* \"#utility.yul\":7814:7825   */\n      swap1\n      pop\n        /* \"#utility.yul\":7845:7848   */\n      dup2\n        /* \"#utility.yul\":7842:7843   */\n      0x00\n        /* \"#utility.yul\":7835:7849   */\n      mstore\n        /* \"#utility.yul\":7879:7883   */\n      0x20\n        /* \"#utility.yul\":7876:7877   */\n      0x00\n        /* \"#utility.yul\":7866:7884   */\n      keccak256\n        /* \"#utility.yul\":7858:7884   */\n      swap1\n      pop\n        /* \"#utility.yul\":7750:7891   */\n      swap2\n      swap1\n      pop\n      jump\t// out\n        /* \"#utility.yul\":7897:7990   */\n    tag_113:\n        /* \"#utility.yul\":7934:7940   */\n      0x00\n        /* \"#utility.yul\":7981:7983   */\n      0x20\n        /* \"#utility.yul\":7976:7978   */\n      0x1f\n        /* \"#utility.yul\":7969:7974   */\n      dup4\n        /* \"#utility.yul\":7965:7979   */\n      add\n        /* \"#utility.yul\":7961:7984   */\n      div\n        /* \"#utility.yul\":7951:7984   */\n      swap1\n      pop\n        /* \"#utility.yul\":7897:7990   */\n      swap2\n      swap1\n      pop\n      jump\t// out\n        /* \"#utility.yul\":7996:8103   */\n    tag_114:\n        /* \"#utility.yul\":8040:8048   */\n      0x00\n        /* \"#utility.yul\":8090:8095   */\n      dup3\n        /* \"#utility.yul\":8084:8088   */\n      dup3\n        /* \"#utility.yul\":8080:8096   */\n      shl\n        /* \"#utility.yul\":8059:8096   */\n      swap1\n      pop\n        /* \"#utility.yul\":7996:8103   */\n      swap3\n      swap2\n      pop\n      pop\n      jump\t// out\n        /* \"#utility.yul\":8109:8502   */\n    tag_115:\n        /* \"#utility.yul\":8178:8184   */\n      0x00\n        /* \"#utility.yul\":8228:8229   */\n      0x08\n        /* \"#utility.yul\":8216:8226   */\n      dup4\n        /* \"#utility.yul\":8212:8230   */\n      mul\n        /* \"#utility.yul\":8251:8348   */\n      tag_217\n        /* \"#utility.yul\":8281:8347   */\n      0xffffffffffffffffffffffffffffffffffffffffffffffffffffffffffffffff\n        /* \"#utility.yul\":8270:8279   */\n      dup3\n        /* \"#utility.yul\":8251:8348   */\n      tag_114\n      jump\t// in\n    tag_217:\n        /* \"#utility.yul\":8369:8408   */\n      tag_218\n        /* \"#utility.yul\":8399:8407   */\n      dup7\n        /* \"#utility.yul\":8388:8397   */\n      dup4\n        /* \"#utility.yul\":8369:8408   */\n      tag_114\n      jump\t// in\n    tag_218:\n        /* \"#utility.yul\":8357:8408   */\n      swap6\n      pop\n        /* \"#utility.yul\":8441:8445   */\n      dup1\n        /* \"#utility.yul\":8437:8446   */\n      not\n        /* \"#utility.yul\":8430:8435   */\n      dup5\n        /* \"#utility.yul\":8426:8447   */\n      and\n        /* \"#utility.yul\":8417:8447   */\n      swap4\n      pop\n        /* \"#utility.yul\":8490:8494   */\n      dup1\n        /* \"#utility.yul\":8480:8488   */\n      dup7\n        /* \"#utility.yul\":8476:8495   */\n      and\n        /* \"#utility.yul\":8469:8474   */\n      dup5\n        /* \"#utility.yul\":8466:8496   */\n      or\n        /* \"#utility.yul\":8456:8496   */\n      swap3\n      pop\n        /* \"#utility.yul\":8185:8502   */\n      pop\n      pop\n        /* \"#utility.yul\":8109:8502   */\n      swap4\n      swap3\n      pop\n      pop\n      pop\n      jump\t// out\n        /* \"#utility.yul\":8508:8568   */\n    tag_116:\n        /* \"#utility.yul\":8536:8539   */\n      0x00\n        /* \"#utility.yul\":8557:8562   */\n      dup2\n        /* \"#utility.yul\":8550:8562   */\n      swap1\n      pop\n        /* \"#utility.yul\":8508:8568   */\n      swap2\n      swap1\n      pop\n      jump\t// out\n        /* \"#utility.yul\":8574:8716   */\n    tag_117:\n        /* \"#utility.yul\":8624:8633   */\n      0x00\n        /* \"#utility.yul\":8657:8710   */\n      tag_221\n        /* \"#utility.yul\":8675:8709   */\n      tag_222\n        /* \"#utility.yul\":8684:8708   */\n      tag_223\n        /* \"#utility.yul\":8702:8707   */\n      dup5\n        /* \"#utility.yul\":8684:8708   */\n      tag_89\n      jump\t// in\n    tag_223:\n        /* \"#utility.yul\":8675:8709   */\n      tag_116\n      jump\t// in\n    tag_222:\n        /* \"#utility.yul\":8657:8710   */\n      tag_89\n      jump\t// in\n    tag_221:\n        /* \"#utility.yul\":8644:8710   */\n      swap1\n      pop\n        /* \"#utility.yul\":8574:8716   */\n      swap2\n      swap1\n      pop\n      jump\t// out\n        /* \"#utility.yul\":8722:8797   */\n    tag_118:\n        /* \"#utility.yul\":8765:8768   */\n      0x00\n        /* \"#utility.yul\":8786:8791   */\n      dup2\n        /* \"#utility.yul\":8779:8791   */\n      swap1\n      pop\n        /* \"#utility.yul\":8722:8797   */\n      swap2\n      swap1\n      pop\n      jump\t// out\n        /* \"#utility.yul\":8803:9072   */\n    tag_119:\n        /* \"#utility.yul\":8913:8952   */\n      tag_226\n        /* \"#utility.yul\":8944:8951   */\n      dup4\n        /* \"#utility.yul\":8913:8952   */\n      tag_117\n      jump\t// in\n    tag_226:\n        /* \"#utility.yul\":8974:9065   */\n      tag_227\n        /* \"#utility.yul\":9023:9064   */\n      tag_228\n        /* \"#utility.yul\":9047:9063   */\n      dup3\n        /* \"#utility.yul\":9023:9064   */\n      tag_118\n      jump\t// in\n    tag_228:\n        /* \"#utility.yul\":9015:9021   */\n      dup5\n        /* \"#utility.yul\":9008:9012   */\n      dup5\n        /* \"#utility.yul\":9002:9013   */\n      sload\n        /* \"#utility.yul\":8974:9065   */\n      tag_115\n      jump\t// in\n    tag_227:\n        /* \"#utility.yul\":8968:8972   */\n      dup3\n        /* \"#utility.yul\":8961:9066   */\n      sstore\n        /* \"#utility.yul\":8879:9072   */\n      pop\n        /* \"#utility.yul\":8803:9072   */\n      pop\n      pop\n      pop\n      jump\t// out\n        /* \"#utility.yul\":9078:9151   */\n    tag_120:\n        /* \"#utility.yul\":9123:9126   */\n      0x00\n        /* \"#utility.yul\":9078:9151   */\n      swap1\n      jump\t// out\n        /* \"#utility.yul\":9157:9346   */\n    tag_121:\n        /* \"#utility.yul\":9234:9266   */\n      tag_231\n      tag_120\n      jump\t// in\n    tag_231:\n        /* \"#utility.yul\":9275:9340   */\n      tag_232\n        /* \"#utility.yul\":9333:9339   */\n      dup2\n        /* \"#utility.yul\":9325:9331   */\n      dup5\n        /* \"#utility.yul\":9319:9323   */\n      dup5\n        /* \"#utility.yul\":9275:9340   */\n      tag_119\n      jump\t// in\n    tag_232:\n        /* \"#utility.yul\":9210:9346   */\n      pop\n        /* \"#utility.yul\":9157:9346   */\n      pop\n      pop\n      jump\t// out\n        /* \"#utility.yul\":9352:9538   */\n    tag_122:\n        /* \"#utility.yul\":9412:9532   */\n    tag_234:\n        /* \"#utility.yul\":9429:9432   */\n      dup2\n        /* \"#utility.yul\":9422:9427   */\n      dup2\n        /* \"#utility.yul\":9419:9433   */\n      lt\n        /* \"#utility.yul\":9412:9532   */\n      iszero\n      tag_236\n      jumpi\n        /* \"#utility.yul\":9483:9522   */\n      tag_237\n        /* \"#utility.yul\":9520:9521   */\n      0x00\n        /* \"#utility.yul\":9513:9518   */\n      dup3\n        /* \"#utility.yul\":9483:9522   */\n      tag_121\n      jump\t// in\n    tag_237:\n        /* \"#utility.yul\":9456:9457   */\n      0x01\n        /* \"#utility.yul\":9449:9454   */\n      dup2\n        /* \"#utility.yul\":9445:9458   */\n      add\n        /* \"#utility.yul\":9436:9458   */\n      swap1\n      pop\n        /* \"#utility.yul\":9412:9532   */\n      jump(tag_234)\n    tag_236:\n        /* \"#utility.yul\":9352:9538   */\n      pop\n      pop\n      jump\t// out\n        /* \"#utility.yul\":9544:10087   */\n    tag_123:\n        /* \"#utility.yul\":9645:9647   */\n      0x1f\n        /* \"#utility.yul\":9640:9643   */\n      dup3\n        /* \"#utility.yul\":9637:9648   */\n      gt\n        /* \"#utility.yul\":9634:10080   */\n      iszero\n      tag_239\n      jumpi\n        /* \"#utility.yul\":9679:9717   */\n      tag_240\n        /* \"#utility.yul\":9711:9716   */\n      dup2\n        /* \"#utility.yul\":9679:9717   */\n      tag_112\n      jump\t// in\n    tag_240:\n        /* \"#utility.yul\":9763:9792   */\n      tag_241\n        /* \"#utility.yul\":9781:9791   */\n      dup5\n        /* \"#utility.yul\":9763:9792   */\n      tag_113\n      jump\t// in\n    tag_241:\n        /* \"#utility.yul\":9753:9761   */\n      dup2\n        /* \"#utility.yul\":9749:9793   */\n      add\n        /* \"#utility.yul\":9946:9948   */\n      0x20\n        /* \"#utility.yul\":9934:9944   */\n      dup6\n        /* \"#utility.yul\":9931:9949   */\n      lt\n        /* \"#utility.yul\":9928:9977   */\n      iszero\n      tag_242\n      jumpi\n        /* \"#utility.yul\":9967:9975   */\n      dup2\n        /* \"#utility.yul\":9952:9975   */\n      swap1\n      pop\n        /* \"#utility.yul\":9928:9977   */\n    tag_242:\n        /* \"#utility.yul\":9990:10070   */\n      tag_243\n        /* \"#utility.yul\":10046:10068   */\n      tag_244\n        /* \"#utility.yul\":10064:10067   */\n      dup6\n        /* \"#utility.yul\":10046:10068   */\n      tag_113\n      jump\t// in\n    tag_244:\n        /* \"#utility.yul\":10036:10044   */\n      dup4\n        /* \"#utility.yul\":10032:10069   */\n      add\n        /* \"#utility.yul\":10019:10030   */\n      dup3\n        /* \"#utility.yul\":9990:10070   */\n      tag_122\n      jump\t// in\n    tag_243:\n        /* \"#utility.yul\":9649:10080   */\n      pop\n      pop\n        /* \"#utility.yul\":9634:10080   */\n    tag_239:\n        /* \"#utility.yul\":9544:10087   */\n      pop\n      pop\n      pop\n      jump\t// out\n        /* \"#utility.yul\":10093:10210   */\n    tag_124:\n        /* \"#utility.yul\":10147:10155   */\n      0x00\n        /* \"#utility.yul\":10197:10202   */\n      dup3\n        /* \"#utility.yul\":10191:10195   */\n      dup3\n        /* \"#utility.yul\":10187:10203   */\n      shr\n        /* \"#utility.yul\":10166:10203   */\n      swap1\n      pop\n        /* \"#utility.yul\":10093:10210   */\n      swap3\n      swap2\n      pop\n      pop\n      jump\t// out\n        /* \"#utility.yul\":10216:10385   */\n    tag_125:\n        /* \"#utility.yul\":10260:10266   */\n      0x00\n        /* \"#utility.yul\":10293:10344   */\n      tag_247\n        /* \"#utility.yul\":10341:10342   */\n      0x00\n        /* \"#utility.yul\":10337:10343   */\n      not\n        /* \"#utility.yul\":10329:10334   */\n      dup5\n        /* \"#utility.yul\":10326:10327   */\n      0x08\n        /* \"#utility.yul\":10322:10335   */\n      mul\n        /* \"#utility.yul\":10293:10344   */\n      tag_124\n      jump\t// in\n    tag_247:\n        /* \"#utility.yul\":10289:10345   */\n      not\n        /* \"#utility.yul\":10374:10378   */\n      dup1\n        /* \"#utility.yul\":10368:10372   */\n      dup4\n        /* \"#utility.yul\":10364:10379   */\n      and\n        /* \"#utility.yul\":10354:10379   */\n      swap2\n      pop\n        /* \"#utility.yul\":10267:10385   */\n      pop\n        /* \"#utility.yul\":10216:10385   */\n      swap3\n      swap2\n      pop\n      pop\n      jump\t// out\n        /* \"#utility.yul\":10390:10685   */\n    tag_126:\n        /* \"#utility.yul\":10466:10470   */\n      0x00\n        /* \"#utility.yul\":10612:10641   */\n      tag_249\n        /* \"#utility.yul\":10637:10640   */\n      dup4\n        /* \"#utility.yul\":10631:10635   */\n      dup4\n        /* \"#utility.yul\":10612:10641   */\n      tag_125\n      jump\t// in\n    tag_249:\n        /* \"#utility.yul\":10604:10641   */\n      swap2\n      pop\n        /* \"#utility.yul\":10674:10677   */\n      dup3\n        /* \"#utility.yul\":10671:10672   */\n      0x02\n        /* \"#utility.yul\":10667:10678   */\n      mul\n        /* \"#utility.yul\":10661:10665   */\n      dup3\n        /* \"#utility.yul\":10658:10679   */\n      or\n        /* \"#utility.yul\":10650:10679   */\n      swap1\n      pop\n        /* \"#utility.yul\":10390:10685   */\n      swap3\n      swap2\n      pop\n      pop\n      jump\t// out\n        /* \"#utility.yul\":10690:12085   */\n    tag_77:\n        /* \"#utility.yul\":10807:10844   */\n      tag_251\n        /* \"#utility.yul\":10840:10843   */\n      dup3\n        /* \"#utility.yul\":10807:10844   */\n      tag_94\n      jump\t// in\n    tag_251:\n        /* \"#utility.yul\":10909:10927   */\n      0xffffffffffffffff\n        /* \"#utility.yul\":10901:10907   */\n      dup2\n        /* \"#utility.yul\":10898:10928   */\n      gt\n        /* \"#utility.yul\":10895:10951   */\n      iszero\n      tag_252\n      jumpi\n        /* \"#utility.yul\":10931:10949   */\n      tag_253\n      tag_103\n      jump\t// in\n    tag_253:\n        /* \"#utility.yul\":10895:10951   */\n    tag_252:\n        /* \"#utility.yul\":10975:11013   */\n      tag_254\n        /* \"#utility.yul\":11007:11011   */\n      dup3\n        /* \"#utility.yul\":11001:11012   */\n      sload\n        /* \"#utility.yul\":10975:11013   */\n      tag_51\n      jump\t// in\n    tag_254:\n        /* \"#utility.yul\":11060:11127   */\n      tag_255\n        /* \"#utility.yul\":11120:11126   */\n      dup3\n        /* \"#utility.yul\":11112:11118   */\n      dup3\n        /* \"#utility.yul\":11106:11110   */\n      dup6\n        /* \"#utility.yul\":11060:11127   */\n      tag_123\n      jump\t// in\n    tag_255:\n        /* \"#utility.yul\":11154:11155   */\n      0x00\n        /* \"#utility.yul\":11178:11182   */\n      0x20\n        /* \"#utility.yul\":11165:11182   */\n      swap1\n      pop\n        /* \"#utility.yul\":11210:11212   */\n      0x1f\n        /* \"#utility.yul\":11202:11208   */\n      dup4\n        /* \"#utility.yul\":11199:11213   */\n      gt\n        /* \"#utility.yul\":11227:11228   */\n      0x01\n        /* \"#utility.yul\":11222:11840   */\n      dup2\n      eq\n      tag_257\n      jumpi\n        /* \"#utility.yul\":11884:11885   */\n      0x00\n        /* \"#utility.yul\":11901:11907   */\n      dup5\n        /* \"#utility.yul\":11898:11975   */\n      iszero\n      tag_258\n      jumpi\n        /* \"#utility.yul\":11950:11959   */\n      dup3\n        /* \"#utility.yul\":11945:11948   */\n      dup8\n        /* \"#utility.yul\":11941:11960   */\n      add\n        /* \"#utility.yul\":11935:11961   */\n      mload\n        /* \"#utility.yul\":11926:11961   */\n      swap1\n      pop\n        /* \"#utility.yul\":11898:11975   */\n    tag_258:\n        /* \"#utility.yul\":12001:12068   */\n      tag_259\n        /* \"#utility.yul\":12061:12067   */\n      dup6\n        /* \"#utility.yul\":12054:12059   */\n      dup3\n        /* \"#utility.yul\":12001:12068   */\n      tag_126\n      jump\t// in\n    tag_259:\n        /* \"#utility.yul\":11995:11999   */\n      dup7\n        /* \"#utility.yul\":11988:12069   */\n      sstore\n        /* \"#utility.yul\":11857:12079   */\n      pop\n        /* \"#utility.yul\":11192:12079   */\n      jump(tag_256)\n        /* \"#utility.yul\":11222:11840   */\n    tag_257:\n        /* \"#utility.yul\":11274:11278   */\n      0x1f\n        /* \"#utility.yul\":11270:11279   */\n      not\n        /* \"#utility.yul\":11262:11268   */\n      dup5\n        /* \"#utility.yul\":11258:11280   */\n      and\n        /* \"#utility.yul\":11308:11345   */\n      tag_260\n        /* \"#utility.yul\":11340:11344   */\n      dup7\n        /* \"#utility.yul\":11308:11345   */\n      tag_112\n      jump\t// in\n    tag_260:\n        /* \"#utility.yul\":11367:11368   */\n      0x00\n        /* \"#utility.yul\":11381:11589   */\n    tag_261:\n        /* \"#utility.yul\":11395:11402   */\n      dup3\n        /* \"#utility.yul\":11392:11393   */\n      dup2\n        /* \"#utility.yul\":11389:11403   */\n      lt\n        /* \"#utility.yul\":11381:11589   */\n      iszero\n      tag_263\n      jumpi\n        /* \"#utility.yul\":11474:11483   */\n      dup5\n        /* \"#utility.yul\":11469:11472   */\n      dup10\n        /* \"#utility.yul\":11465:11484   */\n      add\n        /* \"#utility.yul\":11459:11485   */\n      mload\n        /* \"#utility.yul\":11451:11457   */\n      dup3\n        /* \"#utility.yul\":11444:11486   */\n      sstore\n        /* \"#utility.yul\":11525:11526   */\n      0x01\n        /* \"#utility.yul\":11517:11523   */\n      dup3\n        /* \"#utility.yul\":11513:11527   */\n      add\n        /* \"#utility.yul\":11503:11527   */\n      swap2\n      pop\n        /* \"#utility.yul\":11572:11574   */\n      0x20\n        /* \"#utility.yul\":11561:11570   */\n      dup6\n        /* \"#utility.yul\":11557:11575   */\n      add\n        /* \"#utility.yul\":11544:11575   */\n      swap5\n      pop\n        /* \"#utility.yul\":11418:11422   */\n      0x20\n        /* \"#utility.yul\":11415:11416   */\n      dup2\n        /* \"#utility.yul\":11411:11423   */\n      add\n        /* \"#utility.yul\":11406:11423   */\n      swap1\n      pop\n        /* \"#utility.yul\":11381:11589   */\n      jump(tag_261)\n    tag_263:\n        /* \"#utility.yul\":11617:11623   */\n      dup7\n        /* \"#utility.yul\":11608:11615   */\n      dup4\n        /* \"#utility.yul\":11605:11624   */\n      lt\n        /* \"#utility.yul\":11602:11781   */\n      iszero\n      tag_264\n      jumpi\n        /* \"#utility.yul\":11675:11684   */\n      dup5\n        /* \"#utility.yul\":11670:11673   */\n      dup10\n        /* \"#utility.yul\":11666:11685   */\n      add\n        /* \"#utility.yul\":11660:11686   */\n      mload\n        /* \"#utility.yul\":11718:11766   */\n      tag_265\n        /* \"#utility.yul\":11760:11764   */\n      0x1f\n        /* \"#utility.yul\":11752:11758   */\n      dup10\n        /* \"#utility.yul\":11748:11765   */\n      and\n        /* \"#utility.yul\":11737:11746   */\n      dup3\n        /* \"#utility.yul\":11718:11766   */\n      tag_125\n      jump\t// in\n    tag_265:\n        /* \"#utility.yul\":11710:11716   */\n      dup4\n        /* \"#utility.yul\":11703:11767   */\n      sstore\n        /* \"#utility.yul\":11625:11781   */\n      pop\n        /* \"#utility.yul\":11602:11781   */\n    tag_264:\n        /* \"#utility.yul\":11827:11828   */\n      0x01\n        /* \"#utility.yul\":11823:11824   */\n      0x02\n        /* \"#utility.yul\":11815:11821   */\n      dup9\n        /* \"#utility.yul\":11811:11825   */\n      mul\n        /* \"#utility.yul\":11807:11829   */\n      add\n        /* \"#utility.yul\":11801:11805   */\n      dup9\n        /* \"#utility.yul\":11794:11830   */\n      sstore\n        /* \"#utility.yul\":11229:11840   */\n      pop\n      pop\n      pop\n        /* \"#utility.yul\":11192:12079   */\n    tag_256:\n      pop\n        /* \"#utility.yul\":10782:12085   */\n      pop\n      pop\n      pop\n        /* \"#utility.yul\":10690:12085   */\n      pop\n      pop\n      jump\t// out\n\n    auxdata: 0xa264697066735822122042a0be015f28f81d09fa3719bf255c0e4b8a14061d1577a361e672dbcfb7921b64736f6c634300081a0033\n}\n",
				"bytecode": {
					"linkReferences": {},
					"object": "6080604052348015600e575f80fd5b50610b708061001c5f395ff3fe608060405234801561000f575f80fd5b506004361061007b575f3560e01c80636ad7eebc116100595780636ad7eebc146100fc57806370d464e11461012c578063bb49693814610148578063d811a0f7146101785761007b565b8063246982c41461007f57806340ab422e146100b057806363893d17146100e0575b5f80fd5b610099600480360381019061009491906104e1565b610196565b6040516100a7929190610594565b60405180910390f35b6100ca60048036038101906100c591906104e1565b610272565b6040516100d791906105c2565b60405180910390f35b6100fa60048036038101906100f5919061060c565b610325565b005b610116600480360381019061011191906104e1565b610346565b6040516101239190610637565b60405180910390f35b6101466004803603810190610141919061077c565b610371565b005b610162600480360381019061015d919061060c565b6103f0565b60405161016f91906105c2565b60405180910390f35b61018061048a565b60405161018d9190610637565b60405180910390f35b5f6060600183815481106101ad576101ac6107d6565b5b905f5260205f2090600202015f0154600184815481106101d0576101cf6107d6565b5b905f5260205f2090600202016001018080546101eb90610830565b80601f016020809104026020016040519081016040528092919081815260200182805461021790610830565b80156102625780601f1061023957610100808354040283529160200191610262565b820191905f5260205f20905b81548152906001019060200180831161024557829003601f168201915b5050505050905091509150915091565b606060018281548110610288576102876107d6565b5b905f5260205f20906002020160010180546102a290610830565b80601f01602080910402602001604051908101604052809291908181526020018280546102ce90610830565b80156103195780601f106102f057610100808354040283529160200191610319565b820191905f5260205f20905b8154815290600101906020018083116102fc57829003601f168201915b50505050509050919050565b61032f6004610493565b8060045461033d919061088d565b60048190555050565b5f6001828154811061035b5761035a6107d6565b5b905f5260205f2090600202015f01549050919050565b6001604051806040016040528083815260200184815250908060018154018082558091505060019003905f5260205f2090600202015f909190919091505f820151815f015560208201518160010190816103cb9190610a6b565b505050815f808381526020019081526020015f2090816103eb9190610a6b565b505050565b5f602052805f5260405f205f91509050805461040b90610830565b80601f016020809104026020016040519081016040528092919081815260200182805461043790610830565b80156104825780601f1061045957610100808354040283529160200191610482565b820191905f5260205f20905b81548152906001019060200180831161046557829003601f168201915b505050505081565b5f600454905090565b8060048190555050565b5f604051905090565b5f80fd5b5f80fd5b5f819050919050565b6104c0816104ae565b81146104ca575f80fd5b50565b5f813590506104db816104b7565b92915050565b5f602082840312156104f6576104f56104a6565b5b5f610503848285016104cd565b91505092915050565b5f819050919050565b61051e8161050c565b82525050565b5f81519050919050565b5f82825260208201905092915050565b8281835e5f83830152505050565b5f601f19601f8301169050919050565b5f61056682610524565b610570818561052e565b935061058081856020860161053e565b6105898161054c565b840191505092915050565b5f6040820190506105a75f830185610515565b81810360208301526105b9818461055c565b90509392505050565b5f6020820190508181035f8301526105da818461055c565b905092915050565b6105eb8161050c565b81146105f5575f80fd5b50565b5f81359050610606816105e2565b92915050565b5f60208284031215610621576106206104a6565b5b5f61062e848285016105f8565b91505092915050565b5f60208201905061064a5f830184610515565b92915050565b5f80fd5b5f80fd5b7f4e487b71000000000000000000000000000000000000000000000000000000005f52604160045260245ffd5b61068e8261054c565b810181811067ffffffffffffffff821117156106ad576106ac610658565b5b80604052505050565b5f6106bf61049d565b90506106cb8282610685565b919050565b5f67ffffffffffffffff8211156106ea576106e9610658565b5b6106f38261054c565b9050602081019050919050565b828183375f83830152505050565b5f61072061071b846106d0565b6106b6565b90508281526020810184848401111561073c5761073b610654565b5b610747848285610700565b509392505050565b5f82601f83011261076357610762610650565b5b813561077384826020860161070e565b91505092915050565b5f8060408385031215610792576107916104a6565b5b5f83013567ffffffffffffffff8111156107af576107ae6104aa565b5b6107bb8582860161074f565b92505060206107cc858286016105f8565b9150509250929050565b7f4e487b71000000000000000000000000000000000000000000000000000000005f52603260045260245ffd5b7f4e487b71000000000000000000000000000000000000000000000000000000005f52602260045260245ffd5b5f600282049050600182168061084757607f821691505b60208210810361085a57610859610803565b5b50919050565b7f4e487b71000000000000000000000000000000000000000000000000000000005f52601160045260245ffd5b5f6108978261050c565b91506108a28361050c565b92508282019050828112155f8312168382125f8412151617156108c8576108c7610860565b5b92915050565b5f819050815f5260205f209050919050565b5f6020601f8301049050919050565b5f82821b905092915050565b5f6008830261092a7fffffffffffffffffffffffffffffffffffffffffffffffffffffffffffffffff826108ef565b61093486836108ef565b95508019841693508086168417925050509392505050565b5f819050919050565b5f61096f61096a610965846104ae565b61094c565b6104ae565b9050919050565b5f819050919050565b61098883610955565b61099c61099482610976565b8484546108fb565b825550505050565b5f90565b6109b06109a4565b6109bb81848461097f565b505050565b5b818110156109de576109d35f826109a8565b6001810190506109c1565b5050565b601f821115610a23576109f4816108ce565b6109fd846108e0565b81016020851015610a0c578190505b610a20610a18856108e0565b8301826109c0565b50505b505050565b5f82821c905092915050565b5f610a435f1984600802610a28565b1980831691505092915050565b5f610a5b8383610a34565b9150826002028217905092915050565b610a7482610524565b67ffffffffffffffff811115610a8d57610a8c610658565b5b610a978254610830565b610aa28282856109e2565b5f60209050601f831160018114610ad3575f8415610ac1578287015190505b610acb8582610a50565b865550610b32565b601f198416610ae1866108ce565b5f5b82811015610b0857848901518255600182019150602085019450602081019050610ae3565b86831015610b255784890151610b21601f891682610a34565b8355505b6001600288020188555050505b50505050505056fea264697066735822122042a0be015f28f81d09fa3719bf255c0e4b8a14061d1577a361e672dbcfb7921b64736f6c634300081a0033",
					"opcodes": "PUSH1 0x80 PUSH1 0x40 MSTORE CALLVALUE DUP1 ISZERO PUSH1 0xE JUMPI PUSH0 DUP1 REVERT JUMPDEST POP PUSH2 0xB70 DUP1 PUSH2 0x1C PUSH0 CODECOPY PUSH0 RETURN INVALID PUSH1 0x80 PUSH1 0x40 MSTORE CALLVALUE DUP1 ISZERO PUSH2 0xF JUMPI PUSH0 DUP1 REVERT JUMPDEST POP PUSH1 0x4 CALLDATASIZE LT PUSH2 0x7B JUMPI PUSH0 CALLDATALOAD PUSH1 0xE0 SHR DUP1 PUSH4 0x6AD7EEBC GT PUSH2 0x59 JUMPI DUP1 PUSH4 0x6AD7EEBC EQ PUSH2 0xFC JUMPI DUP1 PUSH4 0x70D464E1 EQ PUSH2 0x12C JUMPI DUP1 PUSH4 0xBB496938 EQ PUSH2 0x148 JUMPI DUP1 PUSH4 0xD811A0F7 EQ PUSH2 0x178 JUMPI PUSH2 0x7B JUMP JUMPDEST DUP1 PUSH4 0x246982C4 EQ PUSH2 0x7F JUMPI DUP1 PUSH4 0x40AB422E EQ PUSH2 0xB0 JUMPI DUP1 PUSH4 0x63893D17 EQ PUSH2 0xE0 JUMPI JUMPDEST PUSH0 DUP1 REVERT JUMPDEST PUSH2 0x99 PUSH1 0x4 DUP1 CALLDATASIZE SUB DUP2 ADD SWAP1 PUSH2 0x94 SWAP2 SWAP1 PUSH2 0x4E1 JUMP JUMPDEST PUSH2 0x196 JUMP JUMPDEST PUSH1 0x40 MLOAD PUSH2 0xA7 SWAP3 SWAP2 SWAP1 PUSH2 0x594 JUMP JUMPDEST PUSH1 0x40 MLOAD DUP1 SWAP2 SUB SWAP1 RETURN JUMPDEST PUSH2 0xCA PUSH1 0x4 DUP1 CALLDATASIZE SUB DUP2 ADD SWAP1 PUSH2 0xC5 SWAP2 SWAP1 PUSH2 0x4E1 JUMP JUMPDEST PUSH2 0x272 JUMP JUMPDEST PUSH1 0x40 MLOAD PUSH2 0xD7 SWAP2 SWAP1 PUSH2 0x5C2 JUMP JUMPDEST PUSH1 0x40 MLOAD DUP1 SWAP2 SUB SWAP1 RETURN JUMPDEST PUSH2 0xFA PUSH1 0x4 DUP1 CALLDATASIZE SUB DUP2 ADD SWAP1 PUSH2 0xF5 SWAP2 SWAP1 PUSH2 0x60C JUMP JUMPDEST PUSH2 0x325 JUMP JUMPDEST STOP JUMPDEST PUSH2 0x116 PUSH1 0x4 DUP1 CALLDATASIZE SUB DUP2 ADD SWAP1 PUSH2 0x111 SWAP2 SWAP1 PUSH2 0x4E1 JUMP JUMPDEST PUSH2 0x346 JUMP JUMPDEST PUSH1 0x40 MLOAD PUSH2 0x123 SWAP2 SWAP1 PUSH2 0x637 JUMP JUMPDEST PUSH1 0x40 MLOAD DUP1 SWAP2 SUB SWAP1 RETURN JUMPDEST PUSH2 0x146 PUSH1 0x4 DUP1 CALLDATASIZE SUB DUP2 ADD SWAP1 PUSH2 0x141 SWAP2 SWAP1 PUSH2 0x77C JUMP JUMPDEST PUSH2 0x371 JUMP JUMPDEST STOP JUMPDEST PUSH2 0x162 PUSH1 0x4 DUP1 CALLDATASIZE SUB DUP2 ADD SWAP1 PUSH2 0x15D SWAP2 SWAP1 PUSH2 0x60C JUMP JUMPDEST PUSH2 0x3F0 JUMP JUMPDEST PUSH1 0x40 MLOAD PUSH2 0x16F SWAP2 SWAP1 PUSH2 0x5C2 JUMP JUMPDEST PUSH1 0x40 MLOAD DUP1 SWAP2 SUB SWAP1 RETURN JUMPDEST PUSH2 0x180 PUSH2 0x48A JUMP JUMPDEST PUSH1 0x40 MLOAD PUSH2 0x18D SWAP2 SWAP1 PUSH2 0x637 JUMP JUMPDEST PUSH1 0x40 MLOAD DUP1 SWAP2 SUB SWAP1 RETURN JUMPDEST PUSH0 PUSH1 0x60 PUSH1 0x1 DUP4 DUP2 SLOAD DUP2 LT PUSH2 0x1AD JUMPI PUSH2 0x1AC PUSH2 0x7D6 JUMP JUMPDEST JUMPDEST SWAP1 PUSH0 MSTORE PUSH1 0x20 PUSH0 KECCAK256 SWAP1 PUSH1 0x2 MUL ADD PUSH0 ADD SLOAD PUSH1 0x1 DUP5 DUP2 SLOAD DUP2 LT PUSH2 0x1D0 JUMPI PUSH2 0x1CF PUSH2 0x7D6 JUMP JUMPDEST JUMPDEST SWAP1 PUSH0 MSTORE PUSH1 0x20 PUSH0 KECCAK256 SWAP1 PUSH1 0x2 MUL ADD PUSH1 0x1 ADD DUP1 DUP1 SLOAD PUSH2 0x1EB SWAP1 PUSH2 0x830 JUMP JUMPDEST DUP1 PUSH1 0x1F ADD PUSH1 0x20 DUP1 SWAP2 DIV MUL PUSH1 0x20 ADD PUSH1 0x40 MLOAD SWAP1 DUP2 ADD PUSH1 0x40 MSTORE DUP1 SWAP3 SWAP2 SWAP1 DUP2 DUP2 MSTORE PUSH1 0x20 ADD DUP3 DUP1 SLOAD PUSH2 0x217 SWAP1 PUSH2 0x830 JUMP JUMPDEST DUP1 ISZERO PUSH2 0x262 JUMPI DUP1 PUSH1 0x1F LT PUSH2 0x239 JUMPI PUSH2 0x100 DUP1 DUP4 SLOAD DIV MUL DUP4 MSTORE SWAP2 PUSH1 0x20 ADD SWAP2 PUSH2 0x262 JUMP JUMPDEST DUP3 ADD SWAP2 SWAP1 PUSH0 MSTORE PUSH1 0x20 PUSH0 KECCAK256 SWAP1 JUMPDEST DUP2 SLOAD DUP2 MSTORE SWAP1 PUSH1 0x1 ADD SWAP1 PUSH1 0x20 ADD DUP1 DUP4 GT PUSH2 0x245 JUMPI DUP3 SWAP1 SUB PUSH1 0x1F AND DUP3 ADD SWAP2 JUMPDEST POP POP POP POP POP SWAP1 POP SWAP2 POP SWAP2 POP SWAP2 POP SWAP2 JUMP JUMPDEST PUSH1 0x60 PUSH1 0x1 DUP3 DUP2 SLOAD DUP2 LT PUSH2 0x288 JUMPI PUSH2 0x287 PUSH2 0x7D6 JUMP JUMPDEST JUMPDEST SWAP1 PUSH0 MSTORE PUSH1 0x20 PUSH0 KECCAK256 SWAP1 PUSH1 0x2 MUL ADD PUSH1 0x1 ADD DUP1 SLOAD PUSH2 0x2A2 SWAP1 PUSH2 0x830 JUMP JUMPDEST DUP1 PUSH1 0x1F ADD PUSH1 0x20 DUP1 SWAP2 DIV MUL PUSH1 0x20 ADD PUSH1 0x40 MLOAD SWAP1 DUP2 ADD PUSH1 0x40 MSTORE DUP1 SWAP3 SWAP2 SWAP1 DUP2 DUP2 MSTORE PUSH1 0x20 ADD DUP3 DUP1 SLOAD PUSH2 0x2CE SWAP1 PUSH2 0x830 JUMP JUMPDEST DUP1 ISZERO PUSH2 0x319 JUMPI DUP1 PUSH1 0x1F LT PUSH2 0x2F0 JUMPI PUSH2 0x100 DUP1 DUP4 SLOAD DIV MUL DUP4 MSTORE SWAP2 PUSH1 0x20 ADD SWAP2 PUSH2 0x319 JUMP JUMPDEST DUP3 ADD SWAP2 SWAP1 PUSH0 MSTORE PUSH1 0x20 PUSH0 KECCAK256 SWAP1 JUMPDEST DUP2 SLOAD DUP2 MSTORE SWAP1 PUSH1 0x1 ADD SWAP1 PUSH1 0x20 ADD DUP1 DUP4 GT PUSH2 0x2FC JUMPI DUP3 SWAP1 SUB PUSH1 0x1F AND DUP3 ADD SWAP2 JUMPDEST POP POP POP POP POP SWAP1 POP SWAP2 SWAP1 POP JUMP JUMPDEST PUSH2 0x32F PUSH1 0x4 PUSH2 0x493 JUMP JUMPDEST DUP1 PUSH1 0x4 SLOAD PUSH2 0x33D SWAP2 SWAP1 PUSH2 0x88D JUMP JUMPDEST PUSH1 0x4 DUP2 SWAP1 SSTORE POP POP JUMP JUMPDEST PUSH0 PUSH1 0x1 DUP3 DUP2 SLOAD DUP2 LT PUSH2 0x35B JUMPI PUSH2 0x35A PUSH2 0x7D6 JUMP JUMPDEST JUMPDEST SWAP1 PUSH0 MSTORE PUSH1 0x20 PUSH0 KECCAK256 SWAP1 PUSH1 0x2 MUL ADD PUSH0 ADD SLOAD SWAP1 POP SWAP2 SWAP1 POP JUMP JUMPDEST PUSH1 0x1 PUSH1 0x40 MLOAD DUP1 PUSH1 0x40 ADD PUSH1 0x40 MSTORE DUP1 DUP4 DUP2 MSTORE PUSH1 0x20 ADD DUP5 DUP2 MSTORE POP SWAP1 DUP1 PUSH1 0x1 DUP2 SLOAD ADD DUP1 DUP3 SSTORE DUP1 SWAP2 POP POP PUSH1 0x1 SWAP1 SUB SWAP1 PUSH0 MSTORE PUSH1 0x20 PUSH0 KECCAK256 SWAP1 PUSH1 0x2 MUL ADD PUSH0 SWAP1 SWAP2 SWAP1 SWAP2 SWAP1 SWAP2 POP PUSH0 DUP3 ADD MLOAD DUP2 PUSH0 ADD SSTORE PUSH1 0x20 DUP3 ADD MLOAD DUP2 PUSH1 0x1 ADD SWAP1 DUP2 PUSH2 0x3CB SWAP2 SWAP1 PUSH2 0xA6B JUMP JUMPDEST POP POP POP DUP2 PUSH0 DUP1 DUP4 DUP2 MSTORE PUSH1 0x20 ADD SWAP1 DUP2 MSTORE PUSH1 0x20 ADD PUSH0 KECCAK256 SWAP1 DUP2 PUSH2 0x3EB SWAP2 SWAP1 PUSH2 0xA6B JUMP JUMPDEST POP POP POP JUMP JUMPDEST PUSH0 PUSH1 0x20 MSTORE DUP1 PUSH0 MSTORE PUSH1 0x40 PUSH0 KECCAK256 PUSH0 SWAP2 POP SWAP1 POP DUP1 SLOAD PUSH2 0x40B SWAP1 PUSH2 0x830 JUMP JUMPDEST DUP1 PUSH1 0x1F ADD PUSH1 0x20 DUP1 SWAP2 DIV MUL PUSH1 0x20 ADD PUSH1 0x40 MLOAD SWAP1 DUP2 ADD PUSH1 0x40 MSTORE DUP1 SWAP3 SWAP2 SWAP1 DUP2 DUP2 MSTORE PUSH1 0x20 ADD DUP3 DUP1 SLOAD PUSH2 0x437 SWAP1 PUSH2 0x830 JUMP JUMPDEST DUP1 ISZERO PUSH2 0x482 JUMPI DUP1 PUSH1 0x1F LT PUSH2 0x459 JUMPI PUSH2 0x100 DUP1 DUP4 SLOAD DIV MUL DUP4 MSTORE SWAP2 PUSH1 0x20 ADD SWAP2 PUSH2 0x482 JUMP JUMPDEST DUP3 ADD SWAP2 SWAP1 PUSH0 MSTORE PUSH1 0x20 PUSH0 KECCAK256 SWAP1 JUMPDEST DUP2 SLOAD DUP2 MSTORE SWAP1 PUSH1 0x1 ADD SWAP1 PUSH1 0x20 ADD DUP1 DUP4 GT PUSH2 0x465 JUMPI DUP3 SWAP1 SUB PUSH1 0x1F AND DUP3 ADD SWAP2 JUMPDEST POP POP POP POP POP DUP2 JUMP JUMPDEST PUSH0 PUSH1 0x4 SLOAD SWAP1 POP SWAP1 JUMP JUMPDEST DUP1 PUSH1 0x4 DUP2 SWAP1 SSTORE POP POP JUMP JUMPDEST PUSH0 PUSH1 0x40 MLOAD SWAP1 POP SWAP1 JUMP JUMPDEST PUSH0 DUP1 REVERT JUMPDEST PUSH0 DUP1 REVERT JUMPDEST PUSH0 DUP2 SWAP1 POP SWAP2 SWAP1 POP JUMP JUMPDEST PUSH2 0x4C0 DUP2 PUSH2 0x4AE JUMP JUMPDEST DUP2 EQ PUSH2 0x4CA JUMPI PUSH0 DUP1 REVERT JUMPDEST POP JUMP JUMPDEST PUSH0 DUP2 CALLDATALOAD SWAP1 POP PUSH2 0x4DB DUP2 PUSH2 0x4B7 JUMP JUMPDEST SWAP3 SWAP2 POP POP JUMP JUMPDEST PUSH0 PUSH1 0x20 DUP3 DUP5 SUB SLT ISZERO PUSH2 0x4F6 JUMPI PUSH2 0x4F5 PUSH2 0x4A6 JUMP JUMPDEST JUMPDEST PUSH0 PUSH2 0x503 DUP5 DUP3 DUP6 ADD PUSH2 0x4CD JUMP JUMPDEST SWAP2 POP POP SWAP3 SWAP2 POP POP JUMP JUMPDEST PUSH0 DUP2 SWAP1 POP SWAP2 SWAP1 POP JUMP JUMPDEST PUSH2 0x51E DUP2 PUSH2 0x50C JUMP JUMPDEST DUP3 MSTORE POP POP JUMP JUMPDEST PUSH0 DUP2 MLOAD SWAP1 POP SWAP2 SWAP1 POP JUMP JUMPDEST PUSH0 DUP3 DUP3 MSTORE PUSH1 0x20 DUP3 ADD SWAP1 POP SWAP3 SWAP2 POP POP JUMP JUMPDEST DUP3 DUP2 DUP4 MCOPY PUSH0 DUP4 DUP4 ADD MSTORE POP POP POP JUMP JUMPDEST PUSH0 PUSH1 0x1F NOT PUSH1 0x1F DUP4 ADD AND SWAP1 POP SWAP2 SWAP1 POP JUMP JUMPDEST PUSH0 PUSH2 0x566 DUP3 PUSH2 0x524 JUMP JUMPDEST PUSH2 0x570 DUP2 DUP6 PUSH2 0x52E JUMP JUMPDEST SWAP4 POP PUSH2 0x580 DUP2 DUP6 PUSH1 0x20 DUP7 ADD PUSH2 0x53E JUMP JUMPDEST PUSH2 0x589 DUP2 PUSH2 0x54C JUMP JUMPDEST DUP5 ADD SWAP2 POP POP SWAP3 SWAP2 POP POP JUMP JUMPDEST PUSH0 PUSH1 0x40 DUP3 ADD SWAP1 POP PUSH2 0x5A7 PUSH0 DUP4 ADD DUP6 PUSH2 0x515 JUMP JUMPDEST DUP2 DUP2 SUB PUSH1 0x20 DUP4 ADD MSTORE PUSH2 0x5B9 DUP2 DUP5 PUSH2 0x55C JUMP JUMPDEST SWAP1 POP SWAP4 SWAP3 POP POP POP JUMP JUMPDEST PUSH0 PUSH1 0x20 DUP3 ADD SWAP1 POP DUP2 DUP2 SUB PUSH0 DUP4 ADD MSTORE PUSH2 0x5DA DUP2 DUP5 PUSH2 0x55C JUMP JUMPDEST SWAP1 POP SWAP3 SWAP2 POP POP JUMP JUMPDEST PUSH2 0x5EB DUP2 PUSH2 0x50C JUMP JUMPDEST DUP2 EQ PUSH2 0x5F5 JUMPI PUSH0 DUP1 REVERT JUMPDEST POP JUMP JUMPDEST PUSH0 DUP2 CALLDATALOAD SWAP1 POP PUSH2 0x606 DUP2 PUSH2 0x5E2 JUMP JUMPDEST SWAP3 SWAP2 POP POP JUMP JUMPDEST PUSH0 PUSH1 0x20 DUP3 DUP5 SUB SLT ISZERO PUSH2 0x621 JUMPI PUSH2 0x620 PUSH2 0x4A6 JUMP JUMPDEST JUMPDEST PUSH0 PUSH2 0x62E DUP5 DUP3 DUP6 ADD PUSH2 0x5F8 JUMP JUMPDEST SWAP2 POP POP SWAP3 SWAP2 POP POP JUMP JUMPDEST PUSH0 PUSH1 0x20 DUP3 ADD SWAP1 POP PUSH2 0x64A PUSH0 DUP4 ADD DUP5 PUSH2 0x515 JUMP JUMPDEST SWAP3 SWAP2 POP POP JUMP JUMPDEST PUSH0 DUP1 REVERT JUMPDEST PUSH0 DUP1 REVERT JUMPDEST PUSH32 0x4E487B7100000000000000000000000000000000000000000000000000000000 PUSH0 MSTORE PUSH1 0x41 PUSH1 0x4 MSTORE PUSH1 0x24 PUSH0 REVERT JUMPDEST PUSH2 0x68E DUP3 PUSH2 0x54C JUMP JUMPDEST DUP2 ADD DUP2 DUP2 LT PUSH8 0xFFFFFFFFFFFFFFFF DUP3 GT OR ISZERO PUSH2 0x6AD JUMPI PUSH2 0x6AC PUSH2 0x658 JUMP JUMPDEST JUMPDEST DUP1 PUSH1 0x40 MSTORE POP POP POP JUMP JUMPDEST PUSH0 PUSH2 0x6BF PUSH2 0x49D JUMP JUMPDEST SWAP1 POP PUSH2 0x6CB DUP3 DUP3 PUSH2 0x685 JUMP JUMPDEST SWAP2 SWAP1 POP JUMP JUMPDEST PUSH0 PUSH8 0xFFFFFFFFFFFFFFFF DUP3 GT ISZERO PUSH2 0x6EA JUMPI PUSH2 0x6E9 PUSH2 0x658 JUMP JUMPDEST JUMPDEST PUSH2 0x6F3 DUP3 PUSH2 0x54C JUMP JUMPDEST SWAP1 POP PUSH1 0x20 DUP2 ADD SWAP1 POP SWAP2 SWAP1 POP JUMP JUMPDEST DUP3 DUP2 DUP4 CALLDATACOPY PUSH0 DUP4 DUP4 ADD MSTORE POP POP POP JUMP JUMPDEST PUSH0 PUSH2 0x720 PUSH2 0x71B DUP5 PUSH2 0x6D0 JUMP JUMPDEST PUSH2 0x6B6 JUMP JUMPDEST SWAP1 POP DUP3 DUP2 MSTORE PUSH1 0x20 DUP2 ADD DUP5 DUP5 DUP5 ADD GT ISZERO PUSH2 0x73C JUMPI PUSH2 0x73B PUSH2 0x654 JUMP JUMPDEST JUMPDEST PUSH2 0x747 DUP5 DUP3 DUP6 PUSH2 0x700 JUMP JUMPDEST POP SWAP4 SWAP3 POP POP POP JUMP JUMPDEST PUSH0 DUP3 PUSH1 0x1F DUP4 ADD SLT PUSH2 0x763 JUMPI PUSH2 0x762 PUSH2 0x650 JUMP JUMPDEST JUMPDEST DUP2 CALLDATALOAD PUSH2 0x773 DUP5 DUP3 PUSH1 0x20 DUP7 ADD PUSH2 0x70E JUMP JUMPDEST SWAP2 POP POP SWAP3 SWAP2 POP POP JUMP JUMPDEST PUSH0 DUP1 PUSH1 0x40 DUP4 DUP6 SUB SLT ISZERO PUSH2 0x792 JUMPI PUSH2 0x791 PUSH2 0x4A6 JUMP JUMPDEST JUMPDEST PUSH0 DUP4 ADD CALLDATALOAD PUSH8 0xFFFFFFFFFFFFFFFF DUP2 GT ISZERO PUSH2 0x7AF JUMPI PUSH2 0x7AE PUSH2 0x4AA JUMP JUMPDEST JUMPDEST PUSH2 0x7BB DUP6 DUP3 DUP7 ADD PUSH2 0x74F JUMP JUMPDEST SWAP3 POP POP PUSH1 0x20 PUSH2 0x7CC DUP6 DUP3 DUP7 ADD PUSH2 0x5F8 JUMP JUMPDEST SWAP2 POP POP SWAP3 POP SWAP3 SWAP1 POP JUMP JUMPDEST PUSH32 0x4E487B7100000000000000000000000000000000000000000000000000000000 PUSH0 MSTORE PUSH1 0x32 PUSH1 0x4 MSTORE PUSH1 0x24 PUSH0 REVERT JUMPDEST PUSH32 0x4E487B7100000000000000000000000000000000000000000000000000000000 PUSH0 MSTORE PUSH1 0x22 PUSH1 0x4 MSTORE PUSH1 0x24 PUSH0 REVERT JUMPDEST PUSH0 PUSH1 0x2 DUP3 DIV SWAP1 POP PUSH1 0x1 DUP3 AND DUP1 PUSH2 0x847 JUMPI PUSH1 0x7F DUP3 AND SWAP2 POP JUMPDEST PUSH1 0x20 DUP3 LT DUP2 SUB PUSH2 0x85A JUMPI PUSH2 0x859 PUSH2 0x803 JUMP JUMPDEST JUMPDEST POP SWAP2 SWAP1 POP JUMP JUMPDEST PUSH32 0x4E487B7100000000000000000000000000000000000000000000000000000000 PUSH0 MSTORE PUSH1 0x11 PUSH1 0x4 MSTORE PUSH1 0x24 PUSH0 REVERT JUMPDEST PUSH0 PUSH2 0x897 DUP3 PUSH2 0x50C JUMP JUMPDEST SWAP2 POP PUSH2 0x8A2 DUP4 PUSH2 0x50C JUMP JUMPDEST SWAP3 POP DUP3 DUP3 ADD SWAP1 POP DUP3 DUP2 SLT ISZERO PUSH0 DUP4 SLT AND DUP4 DUP3 SLT PUSH0 DUP5 SLT ISZERO AND OR ISZERO PUSH2 0x8C8 JUMPI PUSH2 0x8C7 PUSH2 0x860 JUMP JUMPDEST JUMPDEST SWAP3 SWAP2 POP POP JUMP JUMPDEST PUSH0 DUP2 SWAP1 POP DUP2 PUSH0 MSTORE PUSH1 0x20 PUSH0 KECCAK256 SWAP1 POP SWAP2 SWAP1 POP JUMP JUMPDEST PUSH0 PUSH1 0x20 PUSH1 0x1F DUP4 ADD DIV SWAP1 POP SWAP2 SWAP1 POP JUMP JUMPDEST PUSH0 DUP3 DUP3 SHL SWAP1 POP SWAP3 SWAP2 POP POP JUMP JUMPDEST PUSH0 PUSH1 0x8 DUP4 MUL PUSH2 0x92A PUSH32 0xFFFFFFFFFFFFFFFFFFFFFFFFFFFFFFFFFFFFFFFFFFFFFFFFFFFFFFFFFFFFFFFF DUP3 PUSH2 0x8EF JUMP JUMPDEST PUSH2 0x934 DUP7 DUP4 PUSH2 0x8EF JUMP JUMPDEST SWAP6 POP DUP1 NOT DUP5 AND SWAP4 POP DUP1 DUP7 AND DUP5 OR SWAP3 POP POP POP SWAP4 SWAP3 POP POP POP JUMP JUMPDEST PUSH0 DUP2 SWAP1 POP SWAP2 SWAP1 POP JUMP JUMPDEST PUSH0 PUSH2 0x96F PUSH2 0x96A PUSH2 0x965 DUP5 PUSH2 0x4AE JUMP JUMPDEST PUSH2 0x94C JUMP JUMPDEST PUSH2 0x4AE JUMP JUMPDEST SWAP1 POP SWAP2 SWAP1 POP JUMP JUMPDEST PUSH0 DUP2 SWAP1 POP SWAP2 SWAP1 POP JUMP JUMPDEST PUSH2 0x988 DUP4 PUSH2 0x955 JUMP JUMPDEST PUSH2 0x99C PUSH2 0x994 DUP3 PUSH2 0x976 JUMP JUMPDEST DUP5 DUP5 SLOAD PUSH2 0x8FB JUMP JUMPDEST DUP3 SSTORE POP POP POP POP JUMP JUMPDEST PUSH0 SWAP1 JUMP JUMPDEST PUSH2 0x9B0 PUSH2 0x9A4 JUMP JUMPDEST PUSH2 0x9BB DUP2 DUP5 DUP5 PUSH2 0x97F JUMP JUMPDEST POP POP POP JUMP JUMPDEST JUMPDEST DUP2 DUP2 LT ISZERO PUSH2 0x9DE JUMPI PUSH2 0x9D3 PUSH0 DUP3 PUSH2 0x9A8 JUMP JUMPDEST PUSH1 0x1 DUP2 ADD SWAP1 POP PUSH2 0x9C1 JUMP JUMPDEST POP POP JUMP JUMPDEST PUSH1 0x1F DUP3 GT ISZERO PUSH2 0xA23 JUMPI PUSH2 0x9F4 DUP2 PUSH2 0x8CE JUMP JUMPDEST PUSH2 0x9FD DUP5 PUSH2 0x8E0 JUMP JUMPDEST DUP2 ADD PUSH1 0x20 DUP6 LT ISZERO PUSH2 0xA0C JUMPI DUP2 SWAP1 POP JUMPDEST PUSH2 0xA20 PUSH2 0xA18 DUP6 PUSH2 0x8E0 JUMP JUMPDEST DUP4 ADD DUP3 PUSH2 0x9C0 JUMP JUMPDEST POP POP JUMPDEST POP POP POP JUMP JUMPDEST PUSH0 DUP3 DUP3 SHR SWAP1 POP SWAP3 SWAP2 POP POP JUMP JUMPDEST PUSH0 PUSH2 0xA43 PUSH0 NOT DUP5 PUSH1 0x8 MUL PUSH2 0xA28 JUMP JUMPDEST NOT DUP1 DUP4 AND SWAP2 POP POP SWAP3 SWAP2 POP POP JUMP JUMPDEST PUSH0 PUSH2 0xA5B DUP4 DUP4 PUSH2 0xA34 JUMP JUMPDEST SWAP2 POP DUP3 PUSH1 0x2 MUL DUP3 OR SWAP1 POP SWAP3 SWAP2 POP POP JUMP JUMPDEST PUSH2 0xA74 DUP3 PUSH2 0x524 JUMP JUMPDEST PUSH8 0xFFFFFFFFFFFFFFFF DUP2 GT ISZERO PUSH2 0xA8D JUMPI PUSH2 0xA8C PUSH2 0x658 JUMP JUMPDEST JUMPDEST PUSH2 0xA97 DUP3 SLOAD PUSH2 0x830 JUMP JUMPDEST PUSH2 0xAA2 DUP3 DUP3 DUP6 PUSH2 0x9E2 JUMP JUMPDEST PUSH0 PUSH1 0x20 SWAP1 POP PUSH1 0x1F DUP4 GT PUSH1 0x1 DUP2 EQ PUSH2 0xAD3 JUMPI PUSH0 DUP5 ISZERO PUSH2 0xAC1 JUMPI DUP3 DUP8 ADD MLOAD SWAP1 POP JUMPDEST PUSH2 0xACB DUP6 DUP3 PUSH2 0xA50 JUMP JUMPDEST DUP7 SSTORE POP PUSH2 0xB32 JUMP JUMPDEST PUSH1 0x1F NOT DUP5 AND PUSH2 0xAE1 DUP7 PUSH2 0x8CE JUMP JUMPDEST PUSH0 JUMPDEST DUP3 DUP2 LT ISZERO PUSH2 0xB08 JUMPI DUP5 DUP10 ADD MLOAD DUP3 SSTORE PUSH1 0x1 DUP3 ADD SWAP2 POP PUSH1 0x20 DUP6 ADD SWAP5 POP PUSH1 0x20 DUP2 ADD SWAP1 POP PUSH2 0xAE3 JUMP JUMPDEST DUP7 DUP4 LT ISZERO PUSH2 0xB25 JUMPI DUP5 DUP10 ADD MLOAD PUSH2 0xB21 PUSH1 0x1F DUP10 AND DUP3 PUSH2 0xA34 JUMP JUMPDEST DUP4 SSTORE POP JUMPDEST PUSH1 0x1 PUSH1 0x2 DUP9 MUL ADD DUP9 SSTORE POP POP POP JUMPDEST POP POP POP POP POP POP JUMP INVALID LOG2 PUSH5 0x6970667358 0x22 SLT KECCAK256 TIMESTAMP LOG0 0xBE ADD PUSH0 0x28 0xF8 SAR MULMOD STATICCALL CALLDATACOPY NOT 0xBF 0x25 TLOAD 0xE 0x4B DUP11 EQ MOD SAR ISZERO PUSH24 0xA361E672DBCFB7921B64736F6C634300081A003300000000 "
				},
				"gasEstimates": {
					"creation": {
						"codeDepositCost": "585600",
						"executionCost": "617",
						"totalCost": "586217"
					},
					"external": {
						"addNumber(int256)": "infinite",
						"addPerson(string,int256)": "infinite",
						"getPerson(uint256)": "infinite",
						"getPersonName(uint256)": "infinite",
						"getPersonNumber(uint256)": "4887",
						"mapNameToNumber(int256)": "infinite",
						"viewNumber()": "2498"
					}
				},
				"methodIdentifiers": {
					"addNumber(int256)": "63893d17",
					"addPerson(string,int256)": "70d464e1",
					"getPerson(uint256)": "246982c4",
					"getPersonName(uint256)": "40ab422e",
					"getPersonNumber(uint256)": "6ad7eebc",
					"mapNameToNumber(int256)": "bb496938",
					"viewNumber()": "d811a0f7"
				}
			},
			"storageLayout": {
				"storage": [
					{
						"astId": 36,
						"contract": "storageFactory/inheritance_override.sol:AnotherStorage",
						"label": "mapNameToNumber",
						"offset": 0,
						"slot": "0",
						"type": "t_mapping(t_int256,t_string_storage)"
					},
					{
						"astId": 40,
						"contract": "storageFactory/inheritance_override.sol:AnotherStorage",
						"label": "people",
						"offset": 0,
						"slot": "1",
						"type": "t_array(t_struct(Person)32_storage)dyn_storage"
					},
					{
						"astId": 43,
						"contract": "storageFactory/inheritance_override.sol:AnotherStorage",
						"label": "person",
						"offset": 0,
						"slot": "2",
						"type": "t_struct(Person)32_storage"
					},
					{
						"astId": 45,
						"contract": "storageFactory/inheritance_override.sol:AnotherStorage",
						"label": "newNumber",
						"offset": 0,
						"slot": "4",
						"type": "t_int256"
					}
				],
				"types": {
					"t_array(t_struct(Person)32_storage)dyn_storage": {
						"base": "t_struct(Person)32_storage",
						"encoding": "dynamic_array",
						"label": "struct SimpleStorage.Person[]",
						"numberOfBytes": "32"
					},
					"t_int256": {
						"encoding": "inplace",
						"label": "int256",
						"numberOfBytes": "32"
					},
					"t_mapping(t_int256,t_string_storage)": {
						"encoding": "mapping",
						"key": "t_int256",
						"label": "mapping(int256 => string)",
						"numberOfBytes": "32",
						"value": "t_string_storage"
					},
					"t_string_storage": {
						"encoding": "bytes",
						"label": "string",
						"numberOfBytes": "32"
					},
					"t_struct(Person)32_storage": {
						"encoding": "inplace",
						"label": "struct SimpleStorage.Person",
						"members": [
							{
								"astId": 29,
								"contract": "storageFactory/inheritance_override.sol:AnotherStorage",
								"label": "favouriteNumber",
								"offset": 0,
								"slot": "0",
								"type": "t_int256"
							},
							{
								"astId": 31,
								"contract": "storageFactory/inheritance_override.sol:AnotherStorage",
								"label": "name",
								"offset": 0,
								"slot": "1",
								"type": "t_string_storage"
							}
						],
						"numberOfBytes": "64"
					}
				}
			},
			"userdoc": {
				"kind": "user",
				"methods": {},
				"version": 1
			}
		}
	}
}