{
	"storageFactory/simpleStorage.sol": {
		"SimpleStorage": {
			"abi": [
				{
					"inputs": [
						{
							"internalType": "int256",
							"name": "number",
							"type": "int256"
						}
					],
					"name": "addNumber",
					"outputs": [],
					"stateMutability": "nonpayable",
					"type": "function"
				},
				{
					"inputs": [
						{
							"internalType": "string",
							"name": "name",
							"type": "string"
						},
						{
							"internalType": "int256",
							"name": "number",
							"type": "int256"
						}
					],
					"name": "addPerson",
					"outputs": [],
					"stateMutability": "nonpayable",
					"type": "function"
				},
				{
					"inputs": [
						{
							"internalType": "uint256",
							"name": "number",
							"type": "uint256"
						}
					],
					"name": "getPerson",
					"outputs": [
						{
							"internalType": "int256",
							"name": "",
							"type": "int256"
						},
						{
							"internalType": "string",
							"name": "",
							"type": "string"
						}
					],
					"stateMutability": "view",
					"type": "function"
				},
				{
					"inputs": [
						{
							"internalType": "uint256",
							"name": "number",
							"type": "uint256"
						}
					],
					"name": "getPersonName",
					"outputs": [
						{
							"internalType": "string",
							"name": "",
							"type": "string"
						}
					],
					"stateMutability": "view",
					"type": "function"
				},
				{
					"inputs": [
						{
							"internalType": "uint256",
							"name": "number",
							"type": "uint256"
						}
					],
					"name": "getPersonNumber",
					"outputs": [
						{
							"internalType": "int256",
							"name": "",
							"type": "int256"
						}
					],
					"stateMutability": "view",
					"type": "function"
				},
				{
					"inputs": [
						{
							"internalType": "int256",
							"name": "",
							"type": "int256"
						}
					],
					"name": "mapNameToNumber",
					"outputs": [
						{
							"internalType": "string",
							"name": "",
							"type": "string"
						}
					],
					"stateMutability": "view",
					"type": "function"
				},
				{
					"inputs": [],
					"name": "viewNumber",
					"outputs": [
						{
							"internalType": "int256",
							"name": "",
							"type": "int256"
						}
					],
					"stateMutability": "view",
					"type": "function"
				}
			],
			"devdoc": {
				"kind": "dev",
				"methods": {},
				"version": 1
			},
			"evm": {
				"assembly": "    /* \"storageFactory/simpleStorage.sol\":63:1788  contract SimpleStorage{... */\n  mstore(0x40, 0x80)\n  callvalue\n  dup1\n  iszero\n  tag_1\n  jumpi\n  0x00\n  dup1\n  revert\ntag_1:\n  pop\n  dataSize(sub_0)\n  dup1\n  dataOffset(sub_0)\n  0x00\n  codecopy\n  0x00\n  return\nstop\n\nsub_0: assembly {\n        /* \"storageFactory/simpleStorage.sol\":63:1788  contract SimpleStorage{... */\n      mstore(0x40, 0x80)\n      callvalue\n      dup1\n      iszero\n      tag_1\n      jumpi\n      0x00\n      dup1\n      revert\n    tag_1:\n      pop\n      jumpi(tag_2, lt(calldatasize, 0x04))\n      shr(0xe0, calldataload(0x00))\n      dup1\n      0x6ad7eebc\n      gt\n      tag_10\n      jumpi\n      dup1\n      0x6ad7eebc\n      eq\n      tag_6\n      jumpi\n      dup1\n      0x70d464e1\n      eq\n      tag_7\n      jumpi\n      dup1\n      0xbb496938\n      eq\n      tag_8\n      jumpi\n      dup1\n      0xd811a0f7\n      eq\n      tag_9\n      jumpi\n      jump(tag_2)\n    tag_10:\n      dup1\n      0x246982c4\n      eq\n      tag_3\n      jumpi\n      dup1\n      0x40ab422e\n      eq\n      tag_4\n      jumpi\n      dup1\n      0x63893d17\n      eq\n      tag_5\n      jumpi\n    tag_2:\n      0x00\n      dup1\n      revert\n        /* \"storageFactory/simpleStorage.sol\":1263:1418  function getPerson(uint256 number) public view returns(int256, string memory){... */\n    tag_3:\n      tag_11\n      0x04\n      dup1\n      calldatasize\n      sub\n      dup2\n      add\n      swap1\n      tag_12\n      swap2\n      swap1\n      tag_13\n      jump\t// in\n    tag_12:\n      tag_14\n      jump\t// in\n    tag_11:\n      mload(0x40)\n      tag_15\n      swap3\n      swap2\n      swap1\n      tag_16\n      jump\t// in\n    tag_15:\n      mload(0x40)\n      dup1\n      swap2\n      sub\n      swap1\n      return\n        /* \"storageFactory/simpleStorage.sol\":1426:1545  function getPersonName(uint256 number) public view returns(string memory){... */\n    tag_4:\n      tag_17\n      0x04\n      dup1\n      calldatasize\n      sub\n      dup2\n      add\n      swap1\n      tag_18\n      swap2\n      swap1\n      tag_13\n      jump\t// in\n    tag_18:\n      tag_19\n      jump\t// in\n    tag_17:\n      mload(0x40)\n      tag_20\n      swap2\n      swap1\n      tag_21\n      jump\t// in\n    tag_20:\n      mload(0x40)\n      dup1\n      swap2\n      sub\n      swap1\n      return\n        /* \"storageFactory/simpleStorage.sol\":572:774  function addNumber(int256 number) public virtual { // this means that his fucntion can be overriden, in the file inheritance_override.sol, there is an example of this... */\n    tag_5:\n      tag_22\n      0x04\n      dup1\n      calldatasize\n      sub\n      dup2\n      add\n      swap1\n      tag_23\n      swap2\n      swap1\n      tag_24\n      jump\t// in\n    tag_23:\n      tag_25\n      jump\t// in\n    tag_22:\n      stop\n        /* \"storageFactory/simpleStorage.sol\":1553:1679  function getPersonNumber(uint256 number) public view returns(int256){... */\n    tag_6:\n      tag_26\n      0x04\n      dup1\n      calldatasize\n      sub\n      dup2\n      add\n      swap1\n      tag_27\n      swap2\n      swap1\n      tag_13\n      jump\t// in\n    tag_27:\n      tag_28\n      jump\t// in\n    tag_26:\n      mload(0x40)\n      tag_29\n      swap2\n      swap1\n      tag_30\n      jump\t// in\n    tag_29:\n      mload(0x40)\n      dup1\n      swap2\n      sub\n      swap1\n      return\n        /* \"storageFactory/simpleStorage.sol\":874:1257  function addPerson(string memory name, int256 number) public {... */\n    tag_7:\n      tag_31\n      0x04\n      dup1\n      calldatasize\n      sub\n      dup2\n      add\n      swap1\n      tag_32\n      swap2\n      swap1\n      tag_33\n      jump\t// in\n    tag_32:\n      tag_34\n      jump\t// in\n    tag_31:\n      stop\n        /* \"storageFactory/simpleStorage.sol\":174:222  mapping(int256 => string) public mapNameToNumber */\n    tag_8:\n      tag_35\n      0x04\n      dup1\n      calldatasize\n      sub\n      dup2\n      add\n      swap1\n      tag_36\n      swap2\n      swap1\n      tag_24\n      jump\t// in\n    tag_36:\n      tag_37\n      jump\t// in\n    tag_35:\n      mload(0x40)\n      tag_38\n      swap2\n      swap1\n      tag_21\n      jump\t// in\n    tag_38:\n      mload(0x40)\n      dup1\n      swap2\n      sub\n      swap1\n      return\n        /* \"storageFactory/simpleStorage.sol\":782:866  function viewNumber() public view returns(int256){... */\n    tag_9:\n      tag_39\n      tag_40\n      jump\t// in\n    tag_39:\n      mload(0x40)\n      tag_41\n      swap2\n      swap1\n      tag_30\n      jump\t// in\n    tag_41:\n      mload(0x40)\n      dup1\n      swap2\n      sub\n      swap1\n      return\n        /* \"storageFactory/simpleStorage.sol\":1263:1418  function getPerson(uint256 number) public view returns(int256, string memory){... */\n    tag_14:\n        /* \"storageFactory/simpleStorage.sol\":1318:1324  int256 */\n      0x00\n        /* \"storageFactory/simpleStorage.sol\":1326:1339  string memory */\n      0x60\n        /* \"storageFactory/simpleStorage.sol\":1358:1364  people */\n      0x01\n        /* \"storageFactory/simpleStorage.sol\":1365:1371  number */\n      dup4\n        /* \"storageFactory/simpleStorage.sol\":1358:1372  people[number] */\n      dup2\n      sload\n      dup2\n      lt\n      tag_43\n      jumpi\n      tag_44\n      tag_45\n      jump\t// in\n    tag_44:\n    tag_43:\n      swap1\n      0x00\n      mstore\n      keccak256(0x00, 0x20)\n      swap1\n      0x02\n      mul\n      add\n        /* \"storageFactory/simpleStorage.sol\":1358:1388  people[number].favouriteNumber */\n      0x00\n      add\n      sload\n        /* \"storageFactory/simpleStorage.sol\":1390:1396  people */\n      0x01\n        /* \"storageFactory/simpleStorage.sol\":1397:1403  number */\n      dup5\n        /* \"storageFactory/simpleStorage.sol\":1390:1404  people[number] */\n      dup2\n      sload\n      dup2\n      lt\n      tag_47\n      jumpi\n      tag_48\n      tag_45\n      jump\t// in\n    tag_48:\n    tag_47:\n      swap1\n      0x00\n      mstore\n      keccak256(0x00, 0x20)\n      swap1\n      0x02\n      mul\n      add\n        /* \"storageFactory/simpleStorage.sol\":1390:1409  people[number].name */\n      0x01\n      add\n        /* \"storageFactory/simpleStorage.sol\":1351:1410  return(people[number].favouriteNumber, people[number].name) */\n      dup1\n      dup1\n      sload\n      tag_50\n      swap1\n      tag_51\n      jump\t// in\n    tag_50:\n      dup1\n      0x1f\n      add\n      0x20\n      dup1\n      swap2\n      div\n      mul\n      0x20\n      add\n      mload(0x40)\n      swap1\n      dup2\n      add\n      0x40\n      mstore\n      dup1\n      swap3\n      swap2\n      swap1\n      dup2\n      dup2\n      mstore\n      0x20\n      add\n      dup3\n      dup1\n      sload\n      tag_52\n      swap1\n      tag_51\n      jump\t// in\n    tag_52:\n      dup1\n      iszero\n      tag_53\n      jumpi\n      dup1\n      0x1f\n      lt\n      tag_54\n      jumpi\n      0x0100\n      dup1\n      dup4\n      sload\n      div\n      mul\n      dup4\n      mstore\n      swap2\n      0x20\n      add\n      swap2\n      jump(tag_53)\n    tag_54:\n      dup3\n      add\n      swap2\n      swap1\n      0x00\n      mstore\n      keccak256(0x00, 0x20)\n      swap1\n    tag_55:\n      dup2\n      sload\n      dup2\n      mstore\n      swap1\n      0x01\n      add\n      swap1\n      0x20\n      add\n      dup1\n      dup4\n      gt\n      tag_55\n      jumpi\n      dup3\n      swap1\n      sub\n      0x1f\n      and\n      dup3\n      add\n      swap2\n    tag_53:\n      pop\n      pop\n      pop\n      pop\n      pop\n      swap1\n      pop\n      swap2\n      pop\n      swap2\n      pop\n        /* \"storageFactory/simpleStorage.sol\":1263:1418  function getPerson(uint256 number) public view returns(int256, string memory){... */\n      swap2\n      pop\n      swap2\n      jump\t// out\n        /* \"storageFactory/simpleStorage.sol\":1426:1545  function getPersonName(uint256 number) public view returns(string memory){... */\n    tag_19:\n        /* \"storageFactory/simpleStorage.sol\":1485:1498  string memory */\n      0x60\n        /* \"storageFactory/simpleStorage.sol\":1517:1523  people */\n      0x01\n        /* \"storageFactory/simpleStorage.sol\":1524:1530  number */\n      dup3\n        /* \"storageFactory/simpleStorage.sol\":1517:1531  people[number] */\n      dup2\n      sload\n      dup2\n      lt\n      tag_57\n      jumpi\n      tag_58\n      tag_45\n      jump\t// in\n    tag_58:\n    tag_57:\n      swap1\n      0x00\n      mstore\n      keccak256(0x00, 0x20)\n      swap1\n      0x02\n      mul\n      add\n        /* \"storageFactory/simpleStorage.sol\":1517:1536  people[number].name */\n      0x01\n      add\n        /* \"storageFactory/simpleStorage.sol\":1510:1537  return(people[number].name) */\n      dup1\n      sload\n      tag_60\n      swap1\n      tag_51\n      jump\t// in\n    tag_60:\n      dup1\n      0x1f\n      add\n      0x20\n      dup1\n      swap2\n      div\n      mul\n      0x20\n      add\n      mload(0x40)\n      swap1\n      dup2\n      add\n      0x40\n      mstore\n      dup1\n      swap3\n      swap2\n      swap1\n      dup2\n      dup2\n      mstore\n      0x20\n      add\n      dup3\n      dup1\n      sload\n      tag_61\n      swap1\n      tag_51\n      jump\t// in\n    tag_61:\n      dup1\n      iszero\n      tag_62\n      jumpi\n      dup1\n      0x1f\n      lt\n      tag_63\n      jumpi\n      0x0100\n      dup1\n      dup4\n      sload\n      div\n      mul\n      dup4\n      mstore\n      swap2\n      0x20\n      add\n      swap2\n      jump(tag_62)\n    tag_63:\n      dup3\n      add\n      swap2\n      swap1\n      0x00\n      mstore\n      keccak256(0x00, 0x20)\n      swap1\n    tag_64:\n      dup2\n      sload\n      dup2\n      mstore\n      swap1\n      0x01\n      add\n      swap1\n      0x20\n      add\n      dup1\n      dup4\n      gt\n      tag_64\n      jumpi\n      dup3\n      swap1\n      sub\n      0x1f\n      and\n      dup3\n      add\n      swap2\n    tag_62:\n      pop\n      pop\n      pop\n      pop\n      pop\n      swap1\n      pop\n        /* \"storageFactory/simpleStorage.sol\":1426:1545  function getPersonName(uint256 number) public view returns(string memory){... */\n      swap2\n      swap1\n      pop\n      jump\t// out\n        /* \"storageFactory/simpleStorage.sol\":572:774  function addNumber(int256 number) public virtual { // this means that his fucntion can be overriden, in the file inheritance_override.sol, there is an example of this... */\n    tag_25:\n        /* \"storageFactory/simpleStorage.sol\":760:766  number */\n      dup1\n        /* \"storageFactory/simpleStorage.sol\":748:757  newNumber */\n      0x04\n        /* \"storageFactory/simpleStorage.sol\":748:766  newNumber = number */\n      dup2\n      swap1\n      sstore\n      pop\n        /* \"storageFactory/simpleStorage.sol\":572:774  function addNumber(int256 number) public virtual { // this means that his fucntion can be overriden, in the file inheritance_override.sol, there is an example of this... */\n      pop\n      jump\t// out\n        /* \"storageFactory/simpleStorage.sol\":1553:1679  function getPersonNumber(uint256 number) public view returns(int256){... */\n    tag_28:\n        /* \"storageFactory/simpleStorage.sol\":1614:1620  int256 */\n      0x00\n        /* \"storageFactory/simpleStorage.sol\":1640:1646  people */\n      0x01\n        /* \"storageFactory/simpleStorage.sol\":1647:1653  number */\n      dup3\n        /* \"storageFactory/simpleStorage.sol\":1640:1654  people[number] */\n      dup2\n      sload\n      dup2\n      lt\n      tag_67\n      jumpi\n      tag_68\n      tag_45\n      jump\t// in\n    tag_68:\n    tag_67:\n      swap1\n      0x00\n      mstore\n      keccak256(0x00, 0x20)\n      swap1\n      0x02\n      mul\n      add\n        /* \"storageFactory/simpleStorage.sol\":1640:1670  people[number].favouriteNumber */\n      0x00\n      add\n      sload\n        /* \"storageFactory/simpleStorage.sol\":1632:1671  return (people[number].favouriteNumber) */\n      swap1\n      pop\n        /* \"storageFactory/simpleStorage.sol\":1553:1679  function getPersonNumber(uint256 number) public view returns(int256){... */\n      swap2\n      swap1\n      pop\n      jump\t// out\n        /* \"storageFactory/simpleStorage.sol\":874:1257  function addPerson(string memory name, int256 number) public {... */\n    tag_34:\n        /* \"storageFactory/simpleStorage.sol\":946:952  people */\n      0x01\n        /* \"storageFactory/simpleStorage.sol\":958:978  Person(number, name) */\n      mload(0x40)\n      dup1\n      0x40\n      add\n      0x40\n      mstore\n      dup1\n        /* \"storageFactory/simpleStorage.sol\":965:971  number */\n      dup4\n        /* \"storageFactory/simpleStorage.sol\":958:978  Person(number, name) */\n      dup2\n      mstore\n      0x20\n      add\n        /* \"storageFactory/simpleStorage.sol\":973:977  name */\n      dup5\n        /* \"storageFactory/simpleStorage.sol\":958:978  Person(number, name) */\n      dup2\n      mstore\n      pop\n        /* \"storageFactory/simpleStorage.sol\":946:979  people.push(Person(number, name)) */\n      swap1\n      dup1\n      0x01\n      dup2\n      sload\n      add\n      dup1\n      dup3\n      sstore\n      dup1\n      swap2\n      pop\n      pop\n      0x01\n      swap1\n      sub\n      swap1\n      0x00\n      mstore\n      keccak256(0x00, 0x20)\n      swap1\n      0x02\n      mul\n      add\n      0x00\n      swap1\n      swap2\n      swap1\n      swap2\n      swap1\n      swap2\n      pop\n      0x00\n      dup3\n      add\n      mload\n      dup2\n      0x00\n      add\n      sstore\n      0x20\n      dup3\n      add\n      mload\n      dup2\n      0x01\n      add\n      swap1\n      dup2\n      tag_72\n      swap2\n      swap1\n      tag_73\n      jump\t// in\n    tag_72:\n      pop\n      pop\n      pop\n        /* \"storageFactory/simpleStorage.sol\":1015:1019  name */\n      dup2\n        /* \"storageFactory/simpleStorage.sol\":990:1005  mapNameToNumber */\n      0x00\n        /* \"storageFactory/simpleStorage.sol\":990:1013  mapNameToNumber[number] */\n      dup1\n        /* \"storageFactory/simpleStorage.sol\":1006:1012  number */\n      dup4\n        /* \"storageFactory/simpleStorage.sol\":990:1013  mapNameToNumber[number] */\n      dup2\n      mstore\n      0x20\n      add\n      swap1\n      dup2\n      mstore\n      0x20\n      add\n      0x00\n      keccak256\n        /* \"storageFactory/simpleStorage.sol\":990:1019  mapNameToNumber[number]= name */\n      swap1\n      dup2\n      tag_74\n      swap2\n      swap1\n      tag_73\n      jump\t// in\n    tag_74:\n      pop\n        /* \"storageFactory/simpleStorage.sol\":874:1257  function addPerson(string memory name, int256 number) public {... */\n      pop\n      pop\n      jump\t// out\n        /* \"storageFactory/simpleStorage.sol\":174:222  mapping(int256 => string) public mapNameToNumber */\n    tag_37:\n      mstore(0x20, 0x00)\n      dup1\n      0x00\n      mstore\n      keccak256(0x00, 0x40)\n      0x00\n      swap2\n      pop\n      swap1\n      pop\n      dup1\n      sload\n      tag_75\n      swap1\n      tag_51\n      jump\t// in\n    tag_75:\n      dup1\n      0x1f\n      add\n      0x20\n      dup1\n      swap2\n      div\n      mul\n      0x20\n      add\n      mload(0x40)\n      swap1\n      dup2\n      add\n      0x40\n      mstore\n      dup1\n      swap3\n      swap2\n      swap1\n      dup2\n      dup2\n      mstore\n      0x20\n      add\n      dup3\n      dup1\n      sload\n      tag_76\n      swap1\n      tag_51\n      jump\t// in\n    tag_76:\n      dup1\n      iszero\n      tag_77\n      jumpi\n      dup1\n      0x1f\n      lt\n      tag_78\n      jumpi\n      0x0100\n      dup1\n      dup4\n      sload\n      div\n      mul\n      dup4\n      mstore\n      swap2\n      0x20\n      add\n      swap2\n      jump(tag_77)\n    tag_78:\n      dup3\n      add\n      swap2\n      swap1\n      0x00\n      mstore\n      keccak256(0x00, 0x20)\n      swap1\n    tag_79:\n      dup2\n      sload\n      dup2\n      mstore\n      swap1\n      0x01\n      add\n      swap1\n      0x20\n      add\n      dup1\n      dup4\n      gt\n      tag_79\n      jumpi\n      dup3\n      swap1\n      sub\n      0x1f\n      and\n      dup3\n      add\n      swap2\n    tag_77:\n      pop\n      pop\n      pop\n      pop\n      pop\n      dup2\n      jump\t// out\n        /* \"storageFactory/simpleStorage.sol\":782:866  function viewNumber() public view returns(int256){... */\n    tag_40:\n        /* \"storageFactory/simpleStorage.sol\":824:830  int256 */\n      0x00\n        /* \"storageFactory/simpleStorage.sol\":849:858  newNumber */\n      sload(0x04)\n        /* \"storageFactory/simpleStorage.sol\":842:858  return newNumber */\n      swap1\n      pop\n        /* \"storageFactory/simpleStorage.sol\":782:866  function viewNumber() public view returns(int256){... */\n      swap1\n      jump\t// out\n        /* \"#utility.yul\":7:82   */\n    tag_81:\n        /* \"#utility.yul\":40:46   */\n      0x00\n        /* \"#utility.yul\":73:75   */\n      0x40\n        /* \"#utility.yul\":67:76   */\n      mload\n        /* \"#utility.yul\":57:76   */\n      swap1\n      pop\n        /* \"#utility.yul\":7:82   */\n      swap1\n      jump\t// out\n        /* \"#utility.yul\":88:205   */\n    tag_82:\n        /* \"#utility.yul\":197:198   */\n      0x00\n        /* \"#utility.yul\":194:195   */\n      dup1\n        /* \"#utility.yul\":187:199   */\n      revert\n        /* \"#utility.yul\":211:328   */\n    tag_83:\n        /* \"#utility.yul\":320:321   */\n      0x00\n        /* \"#utility.yul\":317:318   */\n      dup1\n        /* \"#utility.yul\":310:322   */\n      revert\n        /* \"#utility.yul\":334:411   */\n    tag_84:\n        /* \"#utility.yul\":371:378   */\n      0x00\n        /* \"#utility.yul\":400:405   */\n      dup2\n        /* \"#utility.yul\":389:405   */\n      swap1\n      pop\n        /* \"#utility.yul\":334:411   */\n      swap2\n      swap1\n      pop\n      jump\t// out\n        /* \"#utility.yul\":417:539   */\n    tag_85:\n        /* \"#utility.yul\":490:514   */\n      tag_127\n        /* \"#utility.yul\":508:513   */\n      dup2\n        /* \"#utility.yul\":490:514   */\n      tag_84\n      jump\t// in\n    tag_127:\n        /* \"#utility.yul\":483:488   */\n      dup2\n        /* \"#utility.yul\":480:515   */\n      eq\n        /* \"#utility.yul\":470:533   */\n      tag_128\n      jumpi\n        /* \"#utility.yul\":529:530   */\n      0x00\n        /* \"#utility.yul\":526:527   */\n      dup1\n        /* \"#utility.yul\":519:531   */\n      revert\n        /* \"#utility.yul\":470:533   */\n    tag_128:\n        /* \"#utility.yul\":417:539   */\n      pop\n      jump\t// out\n        /* \"#utility.yul\":545:684   */\n    tag_86:\n        /* \"#utility.yul\":591:596   */\n      0x00\n        /* \"#utility.yul\":629:635   */\n      dup2\n        /* \"#utility.yul\":616:636   */\n      calldataload\n        /* \"#utility.yul\":607:636   */\n      swap1\n      pop\n        /* \"#utility.yul\":645:678   */\n      tag_130\n        /* \"#utility.yul\":672:677   */\n      dup2\n        /* \"#utility.yul\":645:678   */\n      tag_85\n      jump\t// in\n    tag_130:\n        /* \"#utility.yul\":545:684   */\n      swap3\n      swap2\n      pop\n      pop\n      jump\t// out\n        /* \"#utility.yul\":690:1019   */\n    tag_13:\n        /* \"#utility.yul\":749:755   */\n      0x00\n        /* \"#utility.yul\":798:800   */\n      0x20\n        /* \"#utility.yul\":786:795   */\n      dup3\n        /* \"#utility.yul\":777:784   */\n      dup5\n        /* \"#utility.yul\":773:796   */\n      sub\n        /* \"#utility.yul\":769:801   */\n      slt\n        /* \"#utility.yul\":766:885   */\n      iszero\n      tag_132\n      jumpi\n        /* \"#utility.yul\":804:883   */\n      tag_133\n      tag_82\n      jump\t// in\n    tag_133:\n        /* \"#utility.yul\":766:885   */\n    tag_132:\n        /* \"#utility.yul\":924:925   */\n      0x00\n        /* \"#utility.yul\":949:1002   */\n      tag_134\n        /* \"#utility.yul\":994:1001   */\n      dup5\n        /* \"#utility.yul\":985:991   */\n      dup3\n        /* \"#utility.yul\":974:983   */\n      dup6\n        /* \"#utility.yul\":970:992   */\n      add\n        /* \"#utility.yul\":949:1002   */\n      tag_86\n      jump\t// in\n    tag_134:\n        /* \"#utility.yul\":939:1002   */\n      swap2\n      pop\n        /* \"#utility.yul\":895:1012   */\n      pop\n        /* \"#utility.yul\":690:1019   */\n      swap3\n      swap2\n      pop\n      pop\n      jump\t// out\n        /* \"#utility.yul\":1025:1101   */\n    tag_87:\n        /* \"#utility.yul\":1061:1068   */\n      0x00\n        /* \"#utility.yul\":1090:1095   */\n      dup2\n        /* \"#utility.yul\":1079:1095   */\n      swap1\n      pop\n        /* \"#utility.yul\":1025:1101   */\n      swap2\n      swap1\n      pop\n      jump\t// out\n        /* \"#utility.yul\":1107:1222   */\n    tag_88:\n        /* \"#utility.yul\":1192:1215   */\n      tag_137\n        /* \"#utility.yul\":1209:1214   */\n      dup2\n        /* \"#utility.yul\":1192:1215   */\n      tag_87\n      jump\t// in\n    tag_137:\n        /* \"#utility.yul\":1187:1190   */\n      dup3\n        /* \"#utility.yul\":1180:1216   */\n      mstore\n        /* \"#utility.yul\":1107:1222   */\n      pop\n      pop\n      jump\t// out\n        /* \"#utility.yul\":1228:1327   */\n    tag_89:\n        /* \"#utility.yul\":1280:1286   */\n      0x00\n        /* \"#utility.yul\":1314:1319   */\n      dup2\n        /* \"#utility.yul\":1308:1320   */\n      mload\n        /* \"#utility.yul\":1298:1320   */\n      swap1\n      pop\n        /* \"#utility.yul\":1228:1327   */\n      swap2\n      swap1\n      pop\n      jump\t// out\n        /* \"#utility.yul\":1333:1502   */\n    tag_90:\n        /* \"#utility.yul\":1417:1428   */\n      0x00\n        /* \"#utility.yul\":1451:1457   */\n      dup3\n        /* \"#utility.yul\":1446:1449   */\n      dup3\n        /* \"#utility.yul\":1439:1458   */\n      mstore\n        /* \"#utility.yul\":1491:1495   */\n      0x20\n        /* \"#utility.yul\":1486:1489   */\n      dup3\n        /* \"#utility.yul\":1482:1496   */\n      add\n        /* \"#utility.yul\":1467:1496   */\n      swap1\n      pop\n        /* \"#utility.yul\":1333:1502   */\n      swap3\n      swap2\n      pop\n      pop\n      jump\t// out\n        /* \"#utility.yul\":1508:1647   */\n    tag_91:\n        /* \"#utility.yul\":1597:1603   */\n      dup3\n        /* \"#utility.yul\":1592:1595   */\n      dup2\n        /* \"#utility.yul\":1587:1590   */\n      dup4\n        /* \"#utility.yul\":1581:1604   */\n      mcopy\n        /* \"#utility.yul\":1638:1639   */\n      0x00\n        /* \"#utility.yul\":1629:1635   */\n      dup4\n        /* \"#utility.yul\":1624:1627   */\n      dup4\n        /* \"#utility.yul\":1620:1636   */\n      add\n        /* \"#utility.yul\":1613:1640   */\n      mstore\n        /* \"#utility.yul\":1508:1647   */\n      pop\n      pop\n      pop\n      jump\t// out\n        /* \"#utility.yul\":1653:1755   */\n    tag_92:\n        /* \"#utility.yul\":1694:1700   */\n      0x00\n        /* \"#utility.yul\":1745:1747   */\n      0x1f\n        /* \"#utility.yul\":1741:1748   */\n      not\n        /* \"#utility.yul\":1736:1738   */\n      0x1f\n        /* \"#utility.yul\":1729:1734   */\n      dup4\n        /* \"#utility.yul\":1725:1739   */\n      add\n        /* \"#utility.yul\":1721:1749   */\n      and\n        /* \"#utility.yul\":1711:1749   */\n      swap1\n      pop\n        /* \"#utility.yul\":1653:1755   */\n      swap2\n      swap1\n      pop\n      jump\t// out\n        /* \"#utility.yul\":1761:2138   */\n    tag_93:\n        /* \"#utility.yul\":1849:1852   */\n      0x00\n        /* \"#utility.yul\":1877:1916   */\n      tag_143\n        /* \"#utility.yul\":1910:1915   */\n      dup3\n        /* \"#utility.yul\":1877:1916   */\n      tag_89\n      jump\t// in\n    tag_143:\n        /* \"#utility.yul\":1932:2003   */\n      tag_144\n        /* \"#utility.yul\":1996:2002   */\n      dup2\n        /* \"#utility.yul\":1991:1994   */\n      dup6\n        /* \"#utility.yul\":1932:2003   */\n      tag_90\n      jump\t// in\n    tag_144:\n        /* \"#utility.yul\":1925:2003   */\n      swap4\n      pop\n        /* \"#utility.yul\":2012:2077   */\n      tag_145\n        /* \"#utility.yul\":2070:2076   */\n      dup2\n        /* \"#utility.yul\":2065:2068   */\n      dup6\n        /* \"#utility.yul\":2058:2062   */\n      0x20\n        /* \"#utility.yul\":2051:2056   */\n      dup7\n        /* \"#utility.yul\":2047:2063   */\n      add\n        /* \"#utility.yul\":2012:2077   */\n      tag_91\n      jump\t// in\n    tag_145:\n        /* \"#utility.yul\":2102:2131   */\n      tag_146\n        /* \"#utility.yul\":2124:2130   */\n      dup2\n        /* \"#utility.yul\":2102:2131   */\n      tag_92\n      jump\t// in\n    tag_146:\n        /* \"#utility.yul\":2097:2100   */\n      dup5\n        /* \"#utility.yul\":2093:2132   */\n      add\n        /* \"#utility.yul\":2086:2132   */\n      swap2\n      pop\n        /* \"#utility.yul\":1853:2138   */\n      pop\n        /* \"#utility.yul\":1761:2138   */\n      swap3\n      swap2\n      pop\n      pop\n      jump\t// out\n        /* \"#utility.yul\":2144:2563   */\n    tag_16:\n        /* \"#utility.yul\":2283:2287   */\n      0x00\n        /* \"#utility.yul\":2321:2323   */\n      0x40\n        /* \"#utility.yul\":2310:2319   */\n      dup3\n        /* \"#utility.yul\":2306:2324   */\n      add\n        /* \"#utility.yul\":2298:2324   */\n      swap1\n      pop\n        /* \"#utility.yul\":2334:2403   */\n      tag_148\n        /* \"#utility.yul\":2400:2401   */\n      0x00\n        /* \"#utility.yul\":2389:2398   */\n      dup4\n        /* \"#utility.yul\":2385:2402   */\n      add\n        /* \"#utility.yul\":2376:2382   */\n      dup6\n        /* \"#utility.yul\":2334:2403   */\n      tag_88\n      jump\t// in\n    tag_148:\n        /* \"#utility.yul\":2450:2459   */\n      dup2\n        /* \"#utility.yul\":2444:2448   */\n      dup2\n        /* \"#utility.yul\":2440:2460   */\n      sub\n        /* \"#utility.yul\":2435:2437   */\n      0x20\n        /* \"#utility.yul\":2424:2433   */\n      dup4\n        /* \"#utility.yul\":2420:2438   */\n      add\n        /* \"#utility.yul\":2413:2461   */\n      mstore\n        /* \"#utility.yul\":2478:2556   */\n      tag_149\n        /* \"#utility.yul\":2551:2555   */\n      dup2\n        /* \"#utility.yul\":2542:2548   */\n      dup5\n        /* \"#utility.yul\":2478:2556   */\n      tag_93\n      jump\t// in\n    tag_149:\n        /* \"#utility.yul\":2470:2556   */\n      swap1\n      pop\n        /* \"#utility.yul\":2144:2563   */\n      swap4\n      swap3\n      pop\n      pop\n      pop\n      jump\t// out\n        /* \"#utility.yul\":2569:2882   */\n    tag_21:\n        /* \"#utility.yul\":2682:2686   */\n      0x00\n        /* \"#utility.yul\":2720:2722   */\n      0x20\n        /* \"#utility.yul\":2709:2718   */\n      dup3\n        /* \"#utility.yul\":2705:2723   */\n      add\n        /* \"#utility.yul\":2697:2723   */\n      swap1\n      pop\n        /* \"#utility.yul\":2769:2778   */\n      dup2\n        /* \"#utility.yul\":2763:2767   */\n      dup2\n        /* \"#utility.yul\":2759:2779   */\n      sub\n        /* \"#utility.yul\":2755:2756   */\n      0x00\n        /* \"#utility.yul\":2744:2753   */\n      dup4\n        /* \"#utility.yul\":2740:2757   */\n      add\n        /* \"#utility.yul\":2733:2780   */\n      mstore\n        /* \"#utility.yul\":2797:2875   */\n      tag_151\n        /* \"#utility.yul\":2870:2874   */\n      dup2\n        /* \"#utility.yul\":2861:2867   */\n      dup5\n        /* \"#utility.yul\":2797:2875   */\n      tag_93\n      jump\t// in\n    tag_151:\n        /* \"#utility.yul\":2789:2875   */\n      swap1\n      pop\n        /* \"#utility.yul\":2569:2882   */\n      swap3\n      swap2\n      pop\n      pop\n      jump\t// out\n        /* \"#utility.yul\":2888:3008   */\n    tag_94:\n        /* \"#utility.yul\":2960:2983   */\n      tag_153\n        /* \"#utility.yul\":2977:2982   */\n      dup2\n        /* \"#utility.yul\":2960:2983   */\n      tag_87\n      jump\t// in\n    tag_153:\n        /* \"#utility.yul\":2953:2958   */\n      dup2\n        /* \"#utility.yul\":2950:2984   */\n      eq\n        /* \"#utility.yul\":2940:3002   */\n      tag_154\n      jumpi\n        /* \"#utility.yul\":2998:2999   */\n      0x00\n        /* \"#utility.yul\":2995:2996   */\n      dup1\n        /* \"#utility.yul\":2988:3000   */\n      revert\n        /* \"#utility.yul\":2940:3002   */\n    tag_154:\n        /* \"#utility.yul\":2888:3008   */\n      pop\n      jump\t// out\n        /* \"#utility.yul\":3014:3151   */\n    tag_95:\n        /* \"#utility.yul\":3059:3064   */\n      0x00\n        /* \"#utility.yul\":3097:3103   */\n      dup2\n        /* \"#utility.yul\":3084:3104   */\n      calldataload\n        /* \"#utility.yul\":3075:3104   */\n      swap1\n      pop\n        /* \"#utility.yul\":3113:3145   */\n      tag_156\n        /* \"#utility.yul\":3139:3144   */\n      dup2\n        /* \"#utility.yul\":3113:3145   */\n      tag_94\n      jump\t// in\n    tag_156:\n        /* \"#utility.yul\":3014:3151   */\n      swap3\n      swap2\n      pop\n      pop\n      jump\t// out\n        /* \"#utility.yul\":3157:3484   */\n    tag_24:\n        /* \"#utility.yul\":3215:3221   */\n      0x00\n        /* \"#utility.yul\":3264:3266   */\n      0x20\n        /* \"#utility.yul\":3252:3261   */\n      dup3\n        /* \"#utility.yul\":3243:3250   */\n      dup5\n        /* \"#utility.yul\":3239:3262   */\n      sub\n        /* \"#utility.yul\":3235:3267   */\n      slt\n        /* \"#utility.yul\":3232:3351   */\n      iszero\n      tag_158\n      jumpi\n        /* \"#utility.yul\":3270:3349   */\n      tag_159\n      tag_82\n      jump\t// in\n    tag_159:\n        /* \"#utility.yul\":3232:3351   */\n    tag_158:\n        /* \"#utility.yul\":3390:3391   */\n      0x00\n        /* \"#utility.yul\":3415:3467   */\n      tag_160\n        /* \"#utility.yul\":3459:3466   */\n      dup5\n        /* \"#utility.yul\":3450:3456   */\n      dup3\n        /* \"#utility.yul\":3439:3448   */\n      dup6\n        /* \"#utility.yul\":3435:3457   */\n      add\n        /* \"#utility.yul\":3415:3467   */\n      tag_95\n      jump\t// in\n    tag_160:\n        /* \"#utility.yul\":3405:3467   */\n      swap2\n      pop\n        /* \"#utility.yul\":3361:3477   */\n      pop\n        /* \"#utility.yul\":3157:3484   */\n      swap3\n      swap2\n      pop\n      pop\n      jump\t// out\n        /* \"#utility.yul\":3490:3708   */\n    tag_30:\n        /* \"#utility.yul\":3581:3585   */\n      0x00\n        /* \"#utility.yul\":3619:3621   */\n      0x20\n        /* \"#utility.yul\":3608:3617   */\n      dup3\n        /* \"#utility.yul\":3604:3622   */\n      add\n        /* \"#utility.yul\":3596:3622   */\n      swap1\n      pop\n        /* \"#utility.yul\":3632:3701   */\n      tag_162\n        /* \"#utility.yul\":3698:3699   */\n      0x00\n        /* \"#utility.yul\":3687:3696   */\n      dup4\n        /* \"#utility.yul\":3683:3700   */\n      add\n        /* \"#utility.yul\":3674:3680   */\n      dup5\n        /* \"#utility.yul\":3632:3701   */\n      tag_88\n      jump\t// in\n    tag_162:\n        /* \"#utility.yul\":3490:3708   */\n      swap3\n      swap2\n      pop\n      pop\n      jump\t// out\n        /* \"#utility.yul\":3714:3831   */\n    tag_96:\n        /* \"#utility.yul\":3823:3824   */\n      0x00\n        /* \"#utility.yul\":3820:3821   */\n      dup1\n        /* \"#utility.yul\":3813:3825   */\n      revert\n        /* \"#utility.yul\":3837:3954   */\n    tag_97:\n        /* \"#utility.yul\":3946:3947   */\n      0x00\n        /* \"#utility.yul\":3943:3944   */\n      dup1\n        /* \"#utility.yul\":3936:3948   */\n      revert\n        /* \"#utility.yul\":3960:4140   */\n    tag_98:\n        /* \"#utility.yul\":4008:4085   */\n      0x4e487b7100000000000000000000000000000000000000000000000000000000\n        /* \"#utility.yul\":4005:4006   */\n      0x00\n        /* \"#utility.yul\":3998:4086   */\n      mstore\n        /* \"#utility.yul\":4105:4109   */\n      0x41\n        /* \"#utility.yul\":4102:4103   */\n      0x04\n        /* \"#utility.yul\":4095:4110   */\n      mstore\n        /* \"#utility.yul\":4129:4133   */\n      0x24\n        /* \"#utility.yul\":4126:4127   */\n      0x00\n        /* \"#utility.yul\":4119:4134   */\n      revert\n        /* \"#utility.yul\":4146:4427   */\n    tag_99:\n        /* \"#utility.yul\":4229:4256   */\n      tag_167\n        /* \"#utility.yul\":4251:4255   */\n      dup3\n        /* \"#utility.yul\":4229:4256   */\n      tag_92\n      jump\t// in\n    tag_167:\n        /* \"#utility.yul\":4221:4227   */\n      dup2\n        /* \"#utility.yul\":4217:4257   */\n      add\n        /* \"#utility.yul\":4359:4365   */\n      dup2\n        /* \"#utility.yul\":4347:4357   */\n      dup2\n        /* \"#utility.yul\":4344:4366   */\n      lt\n        /* \"#utility.yul\":4323:4341   */\n      0xffffffffffffffff\n        /* \"#utility.yul\":4311:4321   */\n      dup3\n        /* \"#utility.yul\":4308:4342   */\n      gt\n        /* \"#utility.yul\":4305:4367   */\n      or\n        /* \"#utility.yul\":4302:4390   */\n      iszero\n      tag_168\n      jumpi\n        /* \"#utility.yul\":4370:4388   */\n      tag_169\n      tag_98\n      jump\t// in\n    tag_169:\n        /* \"#utility.yul\":4302:4390   */\n    tag_168:\n        /* \"#utility.yul\":4410:4420   */\n      dup1\n        /* \"#utility.yul\":4406:4408   */\n      0x40\n        /* \"#utility.yul\":4399:4421   */\n      mstore\n        /* \"#utility.yul\":4189:4427   */\n      pop\n        /* \"#utility.yul\":4146:4427   */\n      pop\n      pop\n      jump\t// out\n        /* \"#utility.yul\":4433:4562   */\n    tag_100:\n        /* \"#utility.yul\":4467:4473   */\n      0x00\n        /* \"#utility.yul\":4494:4514   */\n      tag_171\n      tag_81\n      jump\t// in\n    tag_171:\n        /* \"#utility.yul\":4484:4514   */\n      swap1\n      pop\n        /* \"#utility.yul\":4523:4556   */\n      tag_172\n        /* \"#utility.yul\":4551:4555   */\n      dup3\n        /* \"#utility.yul\":4543:4549   */\n      dup3\n        /* \"#utility.yul\":4523:4556   */\n      tag_99\n      jump\t// in\n    tag_172:\n        /* \"#utility.yul\":4433:4562   */\n      swap2\n      swap1\n      pop\n      jump\t// out\n        /* \"#utility.yul\":4568:4876   */\n    tag_101:\n        /* \"#utility.yul\":4630:4634   */\n      0x00\n        /* \"#utility.yul\":4720:4738   */\n      0xffffffffffffffff\n        /* \"#utility.yul\":4712:4718   */\n      dup3\n        /* \"#utility.yul\":4709:4739   */\n      gt\n        /* \"#utility.yul\":4706:4762   */\n      iszero\n      tag_174\n      jumpi\n        /* \"#utility.yul\":4742:4760   */\n      tag_175\n      tag_98\n      jump\t// in\n    tag_175:\n        /* \"#utility.yul\":4706:4762   */\n    tag_174:\n        /* \"#utility.yul\":4780:4809   */\n      tag_176\n        /* \"#utility.yul\":4802:4808   */\n      dup3\n        /* \"#utility.yul\":4780:4809   */\n      tag_92\n      jump\t// in\n    tag_176:\n        /* \"#utility.yul\":4772:4809   */\n      swap1\n      pop\n        /* \"#utility.yul\":4864:4868   */\n      0x20\n        /* \"#utility.yul\":4858:4862   */\n      dup2\n        /* \"#utility.yul\":4854:4869   */\n      add\n        /* \"#utility.yul\":4846:4869   */\n      swap1\n      pop\n        /* \"#utility.yul\":4568:4876   */\n      swap2\n      swap1\n      pop\n      jump\t// out\n        /* \"#utility.yul\":4882:5030   */\n    tag_102:\n        /* \"#utility.yul\":4980:4986   */\n      dup3\n        /* \"#utility.yul\":4975:4978   */\n      dup2\n        /* \"#utility.yul\":4970:4973   */\n      dup4\n        /* \"#utility.yul\":4957:4987   */\n      calldatacopy\n        /* \"#utility.yul\":5021:5022   */\n      0x00\n        /* \"#utility.yul\":5012:5018   */\n      dup4\n        /* \"#utility.yul\":5007:5010   */\n      dup4\n        /* \"#utility.yul\":5003:5019   */\n      add\n        /* \"#utility.yul\":4996:5023   */\n      mstore\n        /* \"#utility.yul\":4882:5030   */\n      pop\n      pop\n      pop\n      jump\t// out\n        /* \"#utility.yul\":5036:5461   */\n    tag_103:\n        /* \"#utility.yul\":5114:5119   */\n      0x00\n        /* \"#utility.yul\":5139:5205   */\n      tag_179\n        /* \"#utility.yul\":5155:5204   */\n      tag_180\n        /* \"#utility.yul\":5197:5203   */\n      dup5\n        /* \"#utility.yul\":5155:5204   */\n      tag_101\n      jump\t// in\n    tag_180:\n        /* \"#utility.yul\":5139:5205   */\n      tag_100\n      jump\t// in\n    tag_179:\n        /* \"#utility.yul\":5130:5205   */\n      swap1\n      pop\n        /* \"#utility.yul\":5228:5234   */\n      dup3\n        /* \"#utility.yul\":5221:5226   */\n      dup2\n        /* \"#utility.yul\":5214:5235   */\n      mstore\n        /* \"#utility.yul\":5266:5270   */\n      0x20\n        /* \"#utility.yul\":5259:5264   */\n      dup2\n        /* \"#utility.yul\":5255:5271   */\n      add\n        /* \"#utility.yul\":5304:5307   */\n      dup5\n        /* \"#utility.yul\":5295:5301   */\n      dup5\n        /* \"#utility.yul\":5290:5293   */\n      dup5\n        /* \"#utility.yul\":5286:5302   */\n      add\n        /* \"#utility.yul\":5283:5308   */\n      gt\n        /* \"#utility.yul\":5280:5392   */\n      iszero\n      tag_181\n      jumpi\n        /* \"#utility.yul\":5311:5390   */\n      tag_182\n      tag_97\n      jump\t// in\n    tag_182:\n        /* \"#utility.yul\":5280:5392   */\n    tag_181:\n        /* \"#utility.yul\":5401:5455   */\n      tag_183\n        /* \"#utility.yul\":5448:5454   */\n      dup5\n        /* \"#utility.yul\":5443:5446   */\n      dup3\n        /* \"#utility.yul\":5438:5441   */\n      dup6\n        /* \"#utility.yul\":5401:5455   */\n      tag_102\n      jump\t// in\n    tag_183:\n        /* \"#utility.yul\":5120:5461   */\n      pop\n        /* \"#utility.yul\":5036:5461   */\n      swap4\n      swap3\n      pop\n      pop\n      pop\n      jump\t// out\n        /* \"#utility.yul\":5481:5821   */\n    tag_104:\n        /* \"#utility.yul\":5537:5542   */\n      0x00\n        /* \"#utility.yul\":5586:5589   */\n      dup3\n        /* \"#utility.yul\":5579:5583   */\n      0x1f\n        /* \"#utility.yul\":5571:5577   */\n      dup4\n        /* \"#utility.yul\":5567:5584   */\n      add\n        /* \"#utility.yul\":5563:5590   */\n      slt\n        /* \"#utility.yul\":5553:5675   */\n      tag_185\n      jumpi\n        /* \"#utility.yul\":5594:5673   */\n      tag_186\n      tag_96\n      jump\t// in\n    tag_186:\n        /* \"#utility.yul\":5553:5675   */\n    tag_185:\n        /* \"#utility.yul\":5711:5717   */\n      dup2\n        /* \"#utility.yul\":5698:5718   */\n      calldataload\n        /* \"#utility.yul\":5736:5815   */\n      tag_187\n        /* \"#utility.yul\":5811:5814   */\n      dup5\n        /* \"#utility.yul\":5803:5809   */\n      dup3\n        /* \"#utility.yul\":5796:5800   */\n      0x20\n        /* \"#utility.yul\":5788:5794   */\n      dup7\n        /* \"#utility.yul\":5784:5801   */\n      add\n        /* \"#utility.yul\":5736:5815   */\n      tag_103\n      jump\t// in\n    tag_187:\n        /* \"#utility.yul\":5727:5815   */\n      swap2\n      pop\n        /* \"#utility.yul\":5543:5821   */\n      pop\n        /* \"#utility.yul\":5481:5821   */\n      swap3\n      swap2\n      pop\n      pop\n      jump\t// out\n        /* \"#utility.yul\":5827:6479   */\n    tag_33:\n        /* \"#utility.yul\":5904:5910   */\n      0x00\n        /* \"#utility.yul\":5912:5918   */\n      dup1\n        /* \"#utility.yul\":5961:5963   */\n      0x40\n        /* \"#utility.yul\":5949:5958   */\n      dup4\n        /* \"#utility.yul\":5940:5947   */\n      dup6\n        /* \"#utility.yul\":5936:5959   */\n      sub\n        /* \"#utility.yul\":5932:5964   */\n      slt\n        /* \"#utility.yul\":5929:6048   */\n      iszero\n      tag_189\n      jumpi\n        /* \"#utility.yul\":5967:6046   */\n      tag_190\n      tag_82\n      jump\t// in\n    tag_190:\n        /* \"#utility.yul\":5929:6048   */\n    tag_189:\n        /* \"#utility.yul\":6115:6116   */\n      0x00\n        /* \"#utility.yul\":6104:6113   */\n      dup4\n        /* \"#utility.yul\":6100:6117   */\n      add\n        /* \"#utility.yul\":6087:6118   */\n      calldataload\n        /* \"#utility.yul\":6145:6163   */\n      0xffffffffffffffff\n        /* \"#utility.yul\":6137:6143   */\n      dup2\n        /* \"#utility.yul\":6134:6164   */\n      gt\n        /* \"#utility.yul\":6131:6248   */\n      iszero\n      tag_191\n      jumpi\n        /* \"#utility.yul\":6167:6246   */\n      tag_192\n      tag_83\n      jump\t// in\n    tag_192:\n        /* \"#utility.yul\":6131:6248   */\n    tag_191:\n        /* \"#utility.yul\":6272:6335   */\n      tag_193\n        /* \"#utility.yul\":6327:6334   */\n      dup6\n        /* \"#utility.yul\":6318:6324   */\n      dup3\n        /* \"#utility.yul\":6307:6316   */\n      dup7\n        /* \"#utility.yul\":6303:6325   */\n      add\n        /* \"#utility.yul\":6272:6335   */\n      tag_104\n      jump\t// in\n    tag_193:\n        /* \"#utility.yul\":6262:6335   */\n      swap3\n      pop\n        /* \"#utility.yul\":6058:6345   */\n      pop\n        /* \"#utility.yul\":6384:6386   */\n      0x20\n        /* \"#utility.yul\":6410:6462   */\n      tag_194\n        /* \"#utility.yul\":6454:6461   */\n      dup6\n        /* \"#utility.yul\":6445:6451   */\n      dup3\n        /* \"#utility.yul\":6434:6443   */\n      dup7\n        /* \"#utility.yul\":6430:6452   */\n      add\n        /* \"#utility.yul\":6410:6462   */\n      tag_95\n      jump\t// in\n    tag_194:\n        /* \"#utility.yul\":6400:6462   */\n      swap2\n      pop\n        /* \"#utility.yul\":6355:6472   */\n      pop\n        /* \"#utility.yul\":5827:6479   */\n      swap3\n      pop\n      swap3\n      swap1\n      pop\n      jump\t// out\n        /* \"#utility.yul\":6485:6665   */\n    tag_45:\n        /* \"#utility.yul\":6533:6610   */\n      0x4e487b7100000000000000000000000000000000000000000000000000000000\n        /* \"#utility.yul\":6530:6531   */\n      0x00\n        /* \"#utility.yul\":6523:6611   */\n      mstore\n        /* \"#utility.yul\":6630:6634   */\n      0x32\n        /* \"#utility.yul\":6627:6628   */\n      0x04\n        /* \"#utility.yul\":6620:6635   */\n      mstore\n        /* \"#utility.yul\":6654:6658   */\n      0x24\n        /* \"#utility.yul\":6651:6652   */\n      0x00\n        /* \"#utility.yul\":6644:6659   */\n      revert\n        /* \"#utility.yul\":6671:6851   */\n    tag_105:\n        /* \"#utility.yul\":6719:6796   */\n      0x4e487b7100000000000000000000000000000000000000000000000000000000\n        /* \"#utility.yul\":6716:6717   */\n      0x00\n        /* \"#utility.yul\":6709:6797   */\n      mstore\n        /* \"#utility.yul\":6816:6820   */\n      0x22\n        /* \"#utility.yul\":6813:6814   */\n      0x04\n        /* \"#utility.yul\":6806:6821   */\n      mstore\n        /* \"#utility.yul\":6840:6844   */\n      0x24\n        /* \"#utility.yul\":6837:6838   */\n      0x00\n        /* \"#utility.yul\":6830:6845   */\n      revert\n        /* \"#utility.yul\":6857:7177   */\n    tag_51:\n        /* \"#utility.yul\":6901:6907   */\n      0x00\n        /* \"#utility.yul\":6938:6939   */\n      0x02\n        /* \"#utility.yul\":6932:6936   */\n      dup3\n        /* \"#utility.yul\":6928:6940   */\n      div\n        /* \"#utility.yul\":6918:6940   */\n      swap1\n      pop\n        /* \"#utility.yul\":6985:6986   */\n      0x01\n        /* \"#utility.yul\":6979:6983   */\n      dup3\n        /* \"#utility.yul\":6975:6987   */\n      and\n        /* \"#utility.yul\":7006:7024   */\n      dup1\n        /* \"#utility.yul\":6996:7077   */\n      tag_198\n      jumpi\n        /* \"#utility.yul\":7062:7066   */\n      0x7f\n        /* \"#utility.yul\":7054:7060   */\n      dup3\n        /* \"#utility.yul\":7050:7067   */\n      and\n        /* \"#utility.yul\":7040:7067   */\n      swap2\n      pop\n        /* \"#utility.yul\":6996:7077   */\n    tag_198:\n        /* \"#utility.yul\":7124:7126   */\n      0x20\n        /* \"#utility.yul\":7116:7122   */\n      dup3\n        /* \"#utility.yul\":7113:7127   */\n      lt\n        /* \"#utility.yul\":7093:7111   */\n      dup2\n        /* \"#utility.yul\":7090:7128   */\n      sub\n        /* \"#utility.yul\":7087:7171   */\n      tag_199\n      jumpi\n        /* \"#utility.yul\":7143:7161   */\n      tag_200\n      tag_105\n      jump\t// in\n    tag_200:\n        /* \"#utility.yul\":7087:7171   */\n    tag_199:\n        /* \"#utility.yul\":6908:7177   */\n      pop\n        /* \"#utility.yul\":6857:7177   */\n      swap2\n      swap1\n      pop\n      jump\t// out\n        /* \"#utility.yul\":7183:7324   */\n    tag_106:\n        /* \"#utility.yul\":7232:7236   */\n      0x00\n        /* \"#utility.yul\":7255:7258   */\n      dup2\n        /* \"#utility.yul\":7247:7258   */\n      swap1\n      pop\n        /* \"#utility.yul\":7278:7281   */\n      dup2\n        /* \"#utility.yul\":7275:7276   */\n      0x00\n        /* \"#utility.yul\":7268:7282   */\n      mstore\n        /* \"#utility.yul\":7312:7316   */\n      0x20\n        /* \"#utility.yul\":7309:7310   */\n      0x00\n        /* \"#utility.yul\":7299:7317   */\n      keccak256\n        /* \"#utility.yul\":7291:7317   */\n      swap1\n      pop\n        /* \"#utility.yul\":7183:7324   */\n      swap2\n      swap1\n      pop\n      jump\t// out\n        /* \"#utility.yul\":7330:7423   */\n    tag_107:\n        /* \"#utility.yul\":7367:7373   */\n      0x00\n        /* \"#utility.yul\":7414:7416   */\n      0x20\n        /* \"#utility.yul\":7409:7411   */\n      0x1f\n        /* \"#utility.yul\":7402:7407   */\n      dup4\n        /* \"#utility.yul\":7398:7412   */\n      add\n        /* \"#utility.yul\":7394:7417   */\n      div\n        /* \"#utility.yul\":7384:7417   */\n      swap1\n      pop\n        /* \"#utility.yul\":7330:7423   */\n      swap2\n      swap1\n      pop\n      jump\t// out\n        /* \"#utility.yul\":7429:7536   */\n    tag_108:\n        /* \"#utility.yul\":7473:7481   */\n      0x00\n        /* \"#utility.yul\":7523:7528   */\n      dup3\n        /* \"#utility.yul\":7517:7521   */\n      dup3\n        /* \"#utility.yul\":7513:7529   */\n      shl\n        /* \"#utility.yul\":7492:7529   */\n      swap1\n      pop\n        /* \"#utility.yul\":7429:7536   */\n      swap3\n      swap2\n      pop\n      pop\n      jump\t// out\n        /* \"#utility.yul\":7542:7935   */\n    tag_109:\n        /* \"#utility.yul\":7611:7617   */\n      0x00\n        /* \"#utility.yul\":7661:7662   */\n      0x08\n        /* \"#utility.yul\":7649:7659   */\n      dup4\n        /* \"#utility.yul\":7645:7663   */\n      mul\n        /* \"#utility.yul\":7684:7781   */\n      tag_205\n        /* \"#utility.yul\":7714:7780   */\n      0xffffffffffffffffffffffffffffffffffffffffffffffffffffffffffffffff\n        /* \"#utility.yul\":7703:7712   */\n      dup3\n        /* \"#utility.yul\":7684:7781   */\n      tag_108\n      jump\t// in\n    tag_205:\n        /* \"#utility.yul\":7802:7841   */\n      tag_206\n        /* \"#utility.yul\":7832:7840   */\n      dup7\n        /* \"#utility.yul\":7821:7830   */\n      dup4\n        /* \"#utility.yul\":7802:7841   */\n      tag_108\n      jump\t// in\n    tag_206:\n        /* \"#utility.yul\":7790:7841   */\n      swap6\n      pop\n        /* \"#utility.yul\":7874:7878   */\n      dup1\n        /* \"#utility.yul\":7870:7879   */\n      not\n        /* \"#utility.yul\":7863:7868   */\n      dup5\n        /* \"#utility.yul\":7859:7880   */\n      and\n        /* \"#utility.yul\":7850:7880   */\n      swap4\n      pop\n        /* \"#utility.yul\":7923:7927   */\n      dup1\n        /* \"#utility.yul\":7913:7921   */\n      dup7\n        /* \"#utility.yul\":7909:7928   */\n      and\n        /* \"#utility.yul\":7902:7907   */\n      dup5\n        /* \"#utility.yul\":7899:7929   */\n      or\n        /* \"#utility.yul\":7889:7929   */\n      swap3\n      pop\n        /* \"#utility.yul\":7618:7935   */\n      pop\n      pop\n        /* \"#utility.yul\":7542:7935   */\n      swap4\n      swap3\n      pop\n      pop\n      pop\n      jump\t// out\n        /* \"#utility.yul\":7941:8001   */\n    tag_110:\n        /* \"#utility.yul\":7969:7972   */\n      0x00\n        /* \"#utility.yul\":7990:7995   */\n      dup2\n        /* \"#utility.yul\":7983:7995   */\n      swap1\n      pop\n        /* \"#utility.yul\":7941:8001   */\n      swap2\n      swap1\n      pop\n      jump\t// out\n        /* \"#utility.yul\":8007:8149   */\n    tag_111:\n        /* \"#utility.yul\":8057:8066   */\n      0x00\n        /* \"#utility.yul\":8090:8143   */\n      tag_209\n        /* \"#utility.yul\":8108:8142   */\n      tag_210\n        /* \"#utility.yul\":8117:8141   */\n      tag_211\n        /* \"#utility.yul\":8135:8140   */\n      dup5\n        /* \"#utility.yul\":8117:8141   */\n      tag_84\n      jump\t// in\n    tag_211:\n        /* \"#utility.yul\":8108:8142   */\n      tag_110\n      jump\t// in\n    tag_210:\n        /* \"#utility.yul\":8090:8143   */\n      tag_84\n      jump\t// in\n    tag_209:\n        /* \"#utility.yul\":8077:8143   */\n      swap1\n      pop\n        /* \"#utility.yul\":8007:8149   */\n      swap2\n      swap1\n      pop\n      jump\t// out\n        /* \"#utility.yul\":8155:8230   */\n    tag_112:\n        /* \"#utility.yul\":8198:8201   */\n      0x00\n        /* \"#utility.yul\":8219:8224   */\n      dup2\n        /* \"#utility.yul\":8212:8224   */\n      swap1\n      pop\n        /* \"#utility.yul\":8155:8230   */\n      swap2\n      swap1\n      pop\n      jump\t// out\n        /* \"#utility.yul\":8236:8505   */\n    tag_113:\n        /* \"#utility.yul\":8346:8385   */\n      tag_214\n        /* \"#utility.yul\":8377:8384   */\n      dup4\n        /* \"#utility.yul\":8346:8385   */\n      tag_111\n      jump\t// in\n    tag_214:\n        /* \"#utility.yul\":8407:8498   */\n      tag_215\n        /* \"#utility.yul\":8456:8497   */\n      tag_216\n        /* \"#utility.yul\":8480:8496   */\n      dup3\n        /* \"#utility.yul\":8456:8497   */\n      tag_112\n      jump\t// in\n    tag_216:\n        /* \"#utility.yul\":8448:8454   */\n      dup5\n        /* \"#utility.yul\":8441:8445   */\n      dup5\n        /* \"#utility.yul\":8435:8446   */\n      sload\n        /* \"#utility.yul\":8407:8498   */\n      tag_109\n      jump\t// in\n    tag_215:\n        /* \"#utility.yul\":8401:8405   */\n      dup3\n        /* \"#utility.yul\":8394:8499   */\n      sstore\n        /* \"#utility.yul\":8312:8505   */\n      pop\n        /* \"#utility.yul\":8236:8505   */\n      pop\n      pop\n      pop\n      jump\t// out\n        /* \"#utility.yul\":8511:8584   */\n    tag_114:\n        /* \"#utility.yul\":8556:8559   */\n      0x00\n        /* \"#utility.yul\":8511:8584   */\n      swap1\n      jump\t// out\n        /* \"#utility.yul\":8590:8779   */\n    tag_115:\n        /* \"#utility.yul\":8667:8699   */\n      tag_219\n      tag_114\n      jump\t// in\n    tag_219:\n        /* \"#utility.yul\":8708:8773   */\n      tag_220\n        /* \"#utility.yul\":8766:8772   */\n      dup2\n        /* \"#utility.yul\":8758:8764   */\n      dup5\n        /* \"#utility.yul\":8752:8756   */\n      dup5\n        /* \"#utility.yul\":8708:8773   */\n      tag_113\n      jump\t// in\n    tag_220:\n        /* \"#utility.yul\":8643:8779   */\n      pop\n        /* \"#utility.yul\":8590:8779   */\n      pop\n      pop\n      jump\t// out\n        /* \"#utility.yul\":8785:8971   */\n    tag_116:\n        /* \"#utility.yul\":8845:8965   */\n    tag_222:\n        /* \"#utility.yul\":8862:8865   */\n      dup2\n        /* \"#utility.yul\":8855:8860   */\n      dup2\n        /* \"#utility.yul\":8852:8866   */\n      lt\n        /* \"#utility.yul\":8845:8965   */\n      iszero\n      tag_224\n      jumpi\n        /* \"#utility.yul\":8916:8955   */\n      tag_225\n        /* \"#utility.yul\":8953:8954   */\n      0x00\n        /* \"#utility.yul\":8946:8951   */\n      dup3\n        /* \"#utility.yul\":8916:8955   */\n      tag_115\n      jump\t// in\n    tag_225:\n        /* \"#utility.yul\":8889:8890   */\n      0x01\n        /* \"#utility.yul\":8882:8887   */\n      dup2\n        /* \"#utility.yul\":8878:8891   */\n      add\n        /* \"#utility.yul\":8869:8891   */\n      swap1\n      pop\n        /* \"#utility.yul\":8845:8965   */\n      jump(tag_222)\n    tag_224:\n        /* \"#utility.yul\":8785:8971   */\n      pop\n      pop\n      jump\t// out\n        /* \"#utility.yul\":8977:9520   */\n    tag_117:\n        /* \"#utility.yul\":9078:9080   */\n      0x1f\n        /* \"#utility.yul\":9073:9076   */\n      dup3\n        /* \"#utility.yul\":9070:9081   */\n      gt\n        /* \"#utility.yul\":9067:9513   */\n      iszero\n      tag_227\n      jumpi\n        /* \"#utility.yul\":9112:9150   */\n      tag_228\n        /* \"#utility.yul\":9144:9149   */\n      dup2\n        /* \"#utility.yul\":9112:9150   */\n      tag_106\n      jump\t// in\n    tag_228:\n        /* \"#utility.yul\":9196:9225   */\n      tag_229\n        /* \"#utility.yul\":9214:9224   */\n      dup5\n        /* \"#utility.yul\":9196:9225   */\n      tag_107\n      jump\t// in\n    tag_229:\n        /* \"#utility.yul\":9186:9194   */\n      dup2\n        /* \"#utility.yul\":9182:9226   */\n      add\n        /* \"#utility.yul\":9379:9381   */\n      0x20\n        /* \"#utility.yul\":9367:9377   */\n      dup6\n        /* \"#utility.yul\":9364:9382   */\n      lt\n        /* \"#utility.yul\":9361:9410   */\n      iszero\n      tag_230\n      jumpi\n        /* \"#utility.yul\":9400:9408   */\n      dup2\n        /* \"#utility.yul\":9385:9408   */\n      swap1\n      pop\n        /* \"#utility.yul\":9361:9410   */\n    tag_230:\n        /* \"#utility.yul\":9423:9503   */\n      tag_231\n        /* \"#utility.yul\":9479:9501   */\n      tag_232\n        /* \"#utility.yul\":9497:9500   */\n      dup6\n        /* \"#utility.yul\":9479:9501   */\n      tag_107\n      jump\t// in\n    tag_232:\n        /* \"#utility.yul\":9469:9477   */\n      dup4\n        /* \"#utility.yul\":9465:9502   */\n      add\n        /* \"#utility.yul\":9452:9463   */\n      dup3\n        /* \"#utility.yul\":9423:9503   */\n      tag_116\n      jump\t// in\n    tag_231:\n        /* \"#utility.yul\":9082:9513   */\n      pop\n      pop\n        /* \"#utility.yul\":9067:9513   */\n    tag_227:\n        /* \"#utility.yul\":8977:9520   */\n      pop\n      pop\n      pop\n      jump\t// out\n        /* \"#utility.yul\":9526:9643   */\n    tag_118:\n        /* \"#utility.yul\":9580:9588   */\n      0x00\n        /* \"#utility.yul\":9630:9635   */\n      dup3\n        /* \"#utility.yul\":9624:9628   */\n      dup3\n        /* \"#utility.yul\":9620:9636   */\n      shr\n        /* \"#utility.yul\":9599:9636   */\n      swap1\n      pop\n        /* \"#utility.yul\":9526:9643   */\n      swap3\n      swap2\n      pop\n      pop\n      jump\t// out\n        /* \"#utility.yul\":9649:9818   */\n    tag_119:\n        /* \"#utility.yul\":9693:9699   */\n      0x00\n        /* \"#utility.yul\":9726:9777   */\n      tag_235\n        /* \"#utility.yul\":9774:9775   */\n      0x00\n        /* \"#utility.yul\":9770:9776   */\n      not\n        /* \"#utility.yul\":9762:9767   */\n      dup5\n        /* \"#utility.yul\":9759:9760   */\n      0x08\n        /* \"#utility.yul\":9755:9768   */\n      mul\n        /* \"#utility.yul\":9726:9777   */\n      tag_118\n      jump\t// in\n    tag_235:\n        /* \"#utility.yul\":9722:9778   */\n      not\n        /* \"#utility.yul\":9807:9811   */\n      dup1\n        /* \"#utility.yul\":9801:9805   */\n      dup4\n        /* \"#utility.yul\":9797:9812   */\n      and\n        /* \"#utility.yul\":9787:9812   */\n      swap2\n      pop\n        /* \"#utility.yul\":9700:9818   */\n      pop\n        /* \"#utility.yul\":9649:9818   */\n      swap3\n      swap2\n      pop\n      pop\n      jump\t// out\n        /* \"#utility.yul\":9823:10118   */\n    tag_120:\n        /* \"#utility.yul\":9899:9903   */\n      0x00\n        /* \"#utility.yul\":10045:10074   */\n      tag_237\n        /* \"#utility.yul\":10070:10073   */\n      dup4\n        /* \"#utility.yul\":10064:10068   */\n      dup4\n        /* \"#utility.yul\":10045:10074   */\n      tag_119\n      jump\t// in\n    tag_237:\n        /* \"#utility.yul\":10037:10074   */\n      swap2\n      pop\n        /* \"#utility.yul\":10107:10110   */\n      dup3\n        /* \"#utility.yul\":10104:10105   */\n      0x02\n        /* \"#utility.yul\":10100:10111   */\n      mul\n        /* \"#utility.yul\":10094:10098   */\n      dup3\n        /* \"#utility.yul\":10091:10112   */\n      or\n        /* \"#utility.yul\":10083:10112   */\n      swap1\n      pop\n        /* \"#utility.yul\":9823:10118   */\n      swap3\n      swap2\n      pop\n      pop\n      jump\t// out\n        /* \"#utility.yul\":10123:11518   */\n    tag_73:\n        /* \"#utility.yul\":10240:10277   */\n      tag_239\n        /* \"#utility.yul\":10273:10276   */\n      dup3\n        /* \"#utility.yul\":10240:10277   */\n      tag_89\n      jump\t// in\n    tag_239:\n        /* \"#utility.yul\":10342:10360   */\n      0xffffffffffffffff\n        /* \"#utility.yul\":10334:10340   */\n      dup2\n        /* \"#utility.yul\":10331:10361   */\n      gt\n        /* \"#utility.yul\":10328:10384   */\n      iszero\n      tag_240\n      jumpi\n        /* \"#utility.yul\":10364:10382   */\n      tag_241\n      tag_98\n      jump\t// in\n    tag_241:\n        /* \"#utility.yul\":10328:10384   */\n    tag_240:\n        /* \"#utility.yul\":10408:10446   */\n      tag_242\n        /* \"#utility.yul\":10440:10444   */\n      dup3\n        /* \"#utility.yul\":10434:10445   */\n      sload\n        /* \"#utility.yul\":10408:10446   */\n      tag_51\n      jump\t// in\n    tag_242:\n        /* \"#utility.yul\":10493:10560   */\n      tag_243\n        /* \"#utility.yul\":10553:10559   */\n      dup3\n        /* \"#utility.yul\":10545:10551   */\n      dup3\n        /* \"#utility.yul\":10539:10543   */\n      dup6\n        /* \"#utility.yul\":10493:10560   */\n      tag_117\n      jump\t// in\n    tag_243:\n        /* \"#utility.yul\":10587:10588   */\n      0x00\n        /* \"#utility.yul\":10611:10615   */\n      0x20\n        /* \"#utility.yul\":10598:10615   */\n      swap1\n      pop\n        /* \"#utility.yul\":10643:10645   */\n      0x1f\n        /* \"#utility.yul\":10635:10641   */\n      dup4\n        /* \"#utility.yul\":10632:10646   */\n      gt\n        /* \"#utility.yul\":10660:10661   */\n      0x01\n        /* \"#utility.yul\":10655:11273   */\n      dup2\n      eq\n      tag_245\n      jumpi\n        /* \"#utility.yul\":11317:11318   */\n      0x00\n        /* \"#utility.yul\":11334:11340   */\n      dup5\n        /* \"#utility.yul\":11331:11408   */\n      iszero\n      tag_246\n      jumpi\n        /* \"#utility.yul\":11383:11392   */\n      dup3\n        /* \"#utility.yul\":11378:11381   */\n      dup8\n        /* \"#utility.yul\":11374:11393   */\n      add\n        /* \"#utility.yul\":11368:11394   */\n      mload\n        /* \"#utility.yul\":11359:11394   */\n      swap1\n      pop\n        /* \"#utility.yul\":11331:11408   */\n    tag_246:\n        /* \"#utility.yul\":11434:11501   */\n      tag_247\n        /* \"#utility.yul\":11494:11500   */\n      dup6\n        /* \"#utility.yul\":11487:11492   */\n      dup3\n        /* \"#utility.yul\":11434:11501   */\n      tag_120\n      jump\t// in\n    tag_247:\n        /* \"#utility.yul\":11428:11432   */\n      dup7\n        /* \"#utility.yul\":11421:11502   */\n      sstore\n        /* \"#utility.yul\":11290:11512   */\n      pop\n        /* \"#utility.yul\":10625:11512   */\n      jump(tag_244)\n        /* \"#utility.yul\":10655:11273   */\n    tag_245:\n        /* \"#utility.yul\":10707:10711   */\n      0x1f\n        /* \"#utility.yul\":10703:10712   */\n      not\n        /* \"#utility.yul\":10695:10701   */\n      dup5\n        /* \"#utility.yul\":10691:10713   */\n      and\n        /* \"#utility.yul\":10741:10778   */\n      tag_248\n        /* \"#utility.yul\":10773:10777   */\n      dup7\n        /* \"#utility.yul\":10741:10778   */\n      tag_106\n      jump\t// in\n    tag_248:\n        /* \"#utility.yul\":10800:10801   */\n      0x00\n        /* \"#utility.yul\":10814:11022   */\n    tag_249:\n        /* \"#utility.yul\":10828:10835   */\n      dup3\n        /* \"#utility.yul\":10825:10826   */\n      dup2\n        /* \"#utility.yul\":10822:10836   */\n      lt\n        /* \"#utility.yul\":10814:11022   */\n      iszero\n      tag_251\n      jumpi\n        /* \"#utility.yul\":10907:10916   */\n      dup5\n        /* \"#utility.yul\":10902:10905   */\n      dup10\n        /* \"#utility.yul\":10898:10917   */\n      add\n        /* \"#utility.yul\":10892:10918   */\n      mload\n        /* \"#utility.yul\":10884:10890   */\n      dup3\n        /* \"#utility.yul\":10877:10919   */\n      sstore\n        /* \"#utility.yul\":10958:10959   */\n      0x01\n        /* \"#utility.yul\":10950:10956   */\n      dup3\n        /* \"#utility.yul\":10946:10960   */\n      add\n        /* \"#utility.yul\":10936:10960   */\n      swap2\n      pop\n        /* \"#utility.yul\":11005:11007   */\n      0x20\n        /* \"#utility.yul\":10994:11003   */\n      dup6\n        /* \"#utility.yul\":10990:11008   */\n      add\n        /* \"#utility.yul\":10977:11008   */\n      swap5\n      pop\n        /* \"#utility.yul\":10851:10855   */\n      0x20\n        /* \"#utility.yul\":10848:10849   */\n      dup2\n        /* \"#utility.yul\":10844:10856   */\n      add\n        /* \"#utility.yul\":10839:10856   */\n      swap1\n      pop\n        /* \"#utility.yul\":10814:11022   */\n      jump(tag_249)\n    tag_251:\n        /* \"#utility.yul\":11050:11056   */\n      dup7\n        /* \"#utility.yul\":11041:11048   */\n      dup4\n        /* \"#utility.yul\":11038:11057   */\n      lt\n        /* \"#utility.yul\":11035:11214   */\n      iszero\n      tag_252\n      jumpi\n        /* \"#utility.yul\":11108:11117   */\n      dup5\n        /* \"#utility.yul\":11103:11106   */\n      dup10\n        /* \"#utility.yul\":11099:11118   */\n      add\n        /* \"#utility.yul\":11093:11119   */\n      mload\n        /* \"#utility.yul\":11151:11199   */\n      tag_253\n        /* \"#utility.yul\":11193:11197   */\n      0x1f\n        /* \"#utility.yul\":11185:11191   */\n      dup10\n        /* \"#utility.yul\":11181:11198   */\n      and\n        /* \"#utility.yul\":11170:11179   */\n      dup3\n        /* \"#utility.yul\":11151:11199   */\n      tag_119\n      jump\t// in\n    tag_253:\n        /* \"#utility.yul\":11143:11149   */\n      dup4\n        /* \"#utility.yul\":11136:11200   */\n      sstore\n        /* \"#utility.yul\":11058:11214   */\n      pop\n        /* \"#utility.yul\":11035:11214   */\n    tag_252:\n        /* \"#utility.yul\":11260:11261   */\n      0x01\n        /* \"#utility.yul\":11256:11257   */\n      0x02\n        /* \"#utility.yul\":11248:11254   */\n      dup9\n        /* \"#utility.yul\":11244:11258   */\n      mul\n        /* \"#utility.yul\":11240:11262   */\n      add\n        /* \"#utility.yul\":11234:11238   */\n      dup9\n        /* \"#utility.yul\":11227:11263   */\n      sstore\n        /* \"#utility.yul\":10662:11273   */\n      pop\n      pop\n      pop\n        /* \"#utility.yul\":10625:11512   */\n    tag_244:\n      pop\n        /* \"#utility.yul\":10215:11518   */\n      pop\n      pop\n      pop\n        /* \"#utility.yul\":10123:11518   */\n      pop\n      pop\n      jump\t// out\n\n    auxdata: 0xa264697066735822122083947cfc98f082475d6883a2b08dcdfe1aa17c63c77df8f2e92ccaa33b6789b364736f6c634300081a0033\n}\n",
				"bytecode": {
					"linkReferences": {},
					"object": "6080604052348015600e575f80fd5b50610ae18061001c5f395ff3fe608060405234801561000f575f80fd5b506004361061007b575f3560e01c80636ad7eebc116100595780636ad7eebc146100fc57806370d464e11461012c578063bb49693814610148578063d811a0f7146101785761007b565b8063246982c41461007f57806340ab422e146100b057806363893d17146100e0575b5f80fd5b610099600480360381019061009491906104c0565b610196565b6040516100a7929190610573565b60405180910390f35b6100ca60048036038101906100c591906104c0565b610272565b6040516100d791906105a1565b60405180910390f35b6100fa60048036038101906100f591906105eb565b610325565b005b610116600480360381019061011191906104c0565b61032f565b6040516101239190610616565b60405180910390f35b6101466004803603810190610141919061075b565b61035a565b005b610162600480360381019061015d91906105eb565b6103d9565b60405161016f91906105a1565b60405180910390f35b610180610473565b60405161018d9190610616565b60405180910390f35b5f6060600183815481106101ad576101ac6107b5565b5b905f5260205f2090600202015f0154600184815481106101d0576101cf6107b5565b5b905f5260205f2090600202016001018080546101eb9061080f565b80601f01602080910402602001604051908101604052809291908181526020018280546102179061080f565b80156102625780601f1061023957610100808354040283529160200191610262565b820191905f5260205f20905b81548152906001019060200180831161024557829003601f168201915b5050505050905091509150915091565b606060018281548110610288576102876107b5565b5b905f5260205f20906002020160010180546102a29061080f565b80601f01602080910402602001604051908101604052809291908181526020018280546102ce9061080f565b80156103195780601f106102f057610100808354040283529160200191610319565b820191905f5260205f20905b8154815290600101906020018083116102fc57829003601f168201915b50505050509050919050565b8060048190555050565b5f60018281548110610344576103436107b5565b5b905f5260205f2090600202015f01549050919050565b6001604051806040016040528083815260200184815250908060018154018082558091505060019003905f5260205f2090600202015f909190919091505f820151815f015560208201518160010190816103b491906109dc565b505050815f808381526020019081526020015f2090816103d491906109dc565b505050565b5f602052805f5260405f205f9150905080546103f49061080f565b80601f01602080910402602001604051908101604052809291908181526020018280546104209061080f565b801561046b5780601f106104425761010080835404028352916020019161046b565b820191905f5260205f20905b81548152906001019060200180831161044e57829003601f168201915b505050505081565b5f600454905090565b5f604051905090565b5f80fd5b5f80fd5b5f819050919050565b61049f8161048d565b81146104a9575f80fd5b50565b5f813590506104ba81610496565b92915050565b5f602082840312156104d5576104d4610485565b5b5f6104e2848285016104ac565b91505092915050565b5f819050919050565b6104fd816104eb565b82525050565b5f81519050919050565b5f82825260208201905092915050565b8281835e5f83830152505050565b5f601f19601f8301169050919050565b5f61054582610503565b61054f818561050d565b935061055f81856020860161051d565b6105688161052b565b840191505092915050565b5f6040820190506105865f8301856104f4565b8181036020830152610598818461053b565b90509392505050565b5f6020820190508181035f8301526105b9818461053b565b905092915050565b6105ca816104eb565b81146105d4575f80fd5b50565b5f813590506105e5816105c1565b92915050565b5f60208284031215610600576105ff610485565b5b5f61060d848285016105d7565b91505092915050565b5f6020820190506106295f8301846104f4565b92915050565b5f80fd5b5f80fd5b7f4e487b71000000000000000000000000000000000000000000000000000000005f52604160045260245ffd5b61066d8261052b565b810181811067ffffffffffffffff8211171561068c5761068b610637565b5b80604052505050565b5f61069e61047c565b90506106aa8282610664565b919050565b5f67ffffffffffffffff8211156106c9576106c8610637565b5b6106d28261052b565b9050602081019050919050565b828183375f83830152505050565b5f6106ff6106fa846106af565b610695565b90508281526020810184848401111561071b5761071a610633565b5b6107268482856106df565b509392505050565b5f82601f8301126107425761074161062f565b5b81356107528482602086016106ed565b91505092915050565b5f806040838503121561077157610770610485565b5b5f83013567ffffffffffffffff81111561078e5761078d610489565b5b61079a8582860161072e565b92505060206107ab858286016105d7565b9150509250929050565b7f4e487b71000000000000000000000000000000000000000000000000000000005f52603260045260245ffd5b7f4e487b71000000000000000000000000000000000000000000000000000000005f52602260045260245ffd5b5f600282049050600182168061082657607f821691505b602082108103610839576108386107e2565b5b50919050565b5f819050815f5260205f209050919050565b5f6020601f8301049050919050565b5f82821b905092915050565b5f6008830261089b7fffffffffffffffffffffffffffffffffffffffffffffffffffffffffffffffff82610860565b6108a58683610860565b95508019841693508086168417925050509392505050565b5f819050919050565b5f6108e06108db6108d68461048d565b6108bd565b61048d565b9050919050565b5f819050919050565b6108f9836108c6565b61090d610905826108e7565b84845461086c565b825550505050565b5f90565b610921610915565b61092c8184846108f0565b505050565b5b8181101561094f576109445f82610919565b600181019050610932565b5050565b601f821115610994576109658161083f565b61096e84610851565b8101602085101561097d578190505b61099161098985610851565b830182610931565b50505b505050565b5f82821c905092915050565b5f6109b45f1984600802610999565b1980831691505092915050565b5f6109cc83836109a5565b9150826002028217905092915050565b6109e582610503565b67ffffffffffffffff8111156109fe576109fd610637565b5b610a08825461080f565b610a13828285610953565b5f60209050601f831160018114610a44575f8415610a32578287015190505b610a3c85826109c1565b865550610aa3565b601f198416610a528661083f565b5f5b82811015610a7957848901518255600182019150602085019450602081019050610a54565b86831015610a965784890151610a92601f8916826109a5565b8355505b6001600288020188555050505b50505050505056fea264697066735822122083947cfc98f082475d6883a2b08dcdfe1aa17c63c77df8f2e92ccaa33b6789b364736f6c634300081a0033",
					"opcodes": "PUSH1 0x80 PUSH1 0x40 MSTORE CALLVALUE DUP1 ISZERO PUSH1 0xE JUMPI PUSH0 DUP1 REVERT JUMPDEST POP PUSH2 0xAE1 DUP1 PUSH2 0x1C PUSH0 CODECOPY PUSH0 RETURN INVALID PUSH1 0x80 PUSH1 0x40 MSTORE CALLVALUE DUP1 ISZERO PUSH2 0xF JUMPI PUSH0 DUP1 REVERT JUMPDEST POP PUSH1 0x4 CALLDATASIZE LT PUSH2 0x7B JUMPI PUSH0 CALLDATALOAD PUSH1 0xE0 SHR DUP1 PUSH4 0x6AD7EEBC GT PUSH2 0x59 JUMPI DUP1 PUSH4 0x6AD7EEBC EQ PUSH2 0xFC JUMPI DUP1 PUSH4 0x70D464E1 EQ PUSH2 0x12C JUMPI DUP1 PUSH4 0xBB496938 EQ PUSH2 0x148 JUMPI DUP1 PUSH4 0xD811A0F7 EQ PUSH2 0x178 JUMPI PUSH2 0x7B JUMP JUMPDEST DUP1 PUSH4 0x246982C4 EQ PUSH2 0x7F JUMPI DUP1 PUSH4 0x40AB422E EQ PUSH2 0xB0 JUMPI DUP1 PUSH4 0x63893D17 EQ PUSH2 0xE0 JUMPI JUMPDEST PUSH0 DUP1 REVERT JUMPDEST PUSH2 0x99 PUSH1 0x4 DUP1 CALLDATASIZE SUB DUP2 ADD SWAP1 PUSH2 0x94 SWAP2 SWAP1 PUSH2 0x4C0 JUMP JUMPDEST PUSH2 0x196 JUMP JUMPDEST PUSH1 0x40 MLOAD PUSH2 0xA7 SWAP3 SWAP2 SWAP1 PUSH2 0x573 JUMP JUMPDEST PUSH1 0x40 MLOAD DUP1 SWAP2 SUB SWAP1 RETURN JUMPDEST PUSH2 0xCA PUSH1 0x4 DUP1 CALLDATASIZE SUB DUP2 ADD SWAP1 PUSH2 0xC5 SWAP2 SWAP1 PUSH2 0x4C0 JUMP JUMPDEST PUSH2 0x272 JUMP JUMPDEST PUSH1 0x40 MLOAD PUSH2 0xD7 SWAP2 SWAP1 PUSH2 0x5A1 JUMP JUMPDEST PUSH1 0x40 MLOAD DUP1 SWAP2 SUB SWAP1 RETURN JUMPDEST PUSH2 0xFA PUSH1 0x4 DUP1 CALLDATASIZE SUB DUP2 ADD SWAP1 PUSH2 0xF5 SWAP2 SWAP1 PUSH2 0x5EB JUMP JUMPDEST PUSH2 0x325 JUMP JUMPDEST STOP JUMPDEST PUSH2 0x116 PUSH1 0x4 DUP1 CALLDATASIZE SUB DUP2 ADD SWAP1 PUSH2 0x111 SWAP2 SWAP1 PUSH2 0x4C0 JUMP JUMPDEST PUSH2 0x32F JUMP JUMPDEST PUSH1 0x40 MLOAD PUSH2 0x123 SWAP2 SWAP1 PUSH2 0x616 JUMP JUMPDEST PUSH1 0x40 MLOAD DUP1 SWAP2 SUB SWAP1 RETURN JUMPDEST PUSH2 0x146 PUSH1 0x4 DUP1 CALLDATASIZE SUB DUP2 ADD SWAP1 PUSH2 0x141 SWAP2 SWAP1 PUSH2 0x75B JUMP JUMPDEST PUSH2 0x35A JUMP JUMPDEST STOP JUMPDEST PUSH2 0x162 PUSH1 0x4 DUP1 CALLDATASIZE SUB DUP2 ADD SWAP1 PUSH2 0x15D SWAP2 SWAP1 PUSH2 0x5EB JUMP JUMPDEST PUSH2 0x3D9 JUMP JUMPDEST PUSH1 0x40 MLOAD PUSH2 0x16F SWAP2 SWAP1 PUSH2 0x5A1 JUMP JUMPDEST PUSH1 0x40 MLOAD DUP1 SWAP2 SUB SWAP1 RETURN JUMPDEST PUSH2 0x180 PUSH2 0x473 JUMP JUMPDEST PUSH1 0x40 MLOAD PUSH2 0x18D SWAP2 SWAP1 PUSH2 0x616 JUMP JUMPDEST PUSH1 0x40 MLOAD DUP1 SWAP2 SUB SWAP1 RETURN JUMPDEST PUSH0 PUSH1 0x60 PUSH1 0x1 DUP4 DUP2 SLOAD DUP2 LT PUSH2 0x1AD JUMPI PUSH2 0x1AC PUSH2 0x7B5 JUMP JUMPDEST JUMPDEST SWAP1 PUSH0 MSTORE PUSH1 0x20 PUSH0 KECCAK256 SWAP1 PUSH1 0x2 MUL ADD PUSH0 ADD SLOAD PUSH1 0x1 DUP5 DUP2 SLOAD DUP2 LT PUSH2 0x1D0 JUMPI PUSH2 0x1CF PUSH2 0x7B5 JUMP JUMPDEST JUMPDEST SWAP1 PUSH0 MSTORE PUSH1 0x20 PUSH0 KECCAK256 SWAP1 PUSH1 0x2 MUL ADD PUSH1 0x1 ADD DUP1 DUP1 SLOAD PUSH2 0x1EB SWAP1 PUSH2 0x80F JUMP JUMPDEST DUP1 PUSH1 0x1F ADD PUSH1 0x20 DUP1 SWAP2 DIV MUL PUSH1 0x20 ADD PUSH1 0x40 MLOAD SWAP1 DUP2 ADD PUSH1 0x40 MSTORE DUP1 SWAP3 SWAP2 SWAP1 DUP2 DUP2 MSTORE PUSH1 0x20 ADD DUP3 DUP1 SLOAD PUSH2 0x217 SWAP1 PUSH2 0x80F JUMP JUMPDEST DUP1 ISZERO PUSH2 0x262 JUMPI DUP1 PUSH1 0x1F LT PUSH2 0x239 JUMPI PUSH2 0x100 DUP1 DUP4 SLOAD DIV MUL DUP4 MSTORE SWAP2 PUSH1 0x20 ADD SWAP2 PUSH2 0x262 JUMP JUMPDEST DUP3 ADD SWAP2 SWAP1 PUSH0 MSTORE PUSH1 0x20 PUSH0 KECCAK256 SWAP1 JUMPDEST DUP2 SLOAD DUP2 MSTORE SWAP1 PUSH1 0x1 ADD SWAP1 PUSH1 0x20 ADD DUP1 DUP4 GT PUSH2 0x245 JUMPI DUP3 SWAP1 SUB PUSH1 0x1F AND DUP3 ADD SWAP2 JUMPDEST POP POP POP POP POP SWAP1 POP SWAP2 POP SWAP2 POP SWAP2 POP SWAP2 JUMP JUMPDEST PUSH1 0x60 PUSH1 0x1 DUP3 DUP2 SLOAD DUP2 LT PUSH2 0x288 JUMPI PUSH2 0x287 PUSH2 0x7B5 JUMP JUMPDEST JUMPDEST SWAP1 PUSH0 MSTORE PUSH1 0x20 PUSH0 KECCAK256 SWAP1 PUSH1 0x2 MUL ADD PUSH1 0x1 ADD DUP1 SLOAD PUSH2 0x2A2 SWAP1 PUSH2 0x80F JUMP JUMPDEST DUP1 PUSH1 0x1F ADD PUSH1 0x20 DUP1 SWAP2 DIV MUL PUSH1 0x20 ADD PUSH1 0x40 MLOAD SWAP1 DUP2 ADD PUSH1 0x40 MSTORE DUP1 SWAP3 SWAP2 SWAP1 DUP2 DUP2 MSTORE PUSH1 0x20 ADD DUP3 DUP1 SLOAD PUSH2 0x2CE SWAP1 PUSH2 0x80F JUMP JUMPDEST DUP1 ISZERO PUSH2 0x319 JUMPI DUP1 PUSH1 0x1F LT PUSH2 0x2F0 JUMPI PUSH2 0x100 DUP1 DUP4 SLOAD DIV MUL DUP4 MSTORE SWAP2 PUSH1 0x20 ADD SWAP2 PUSH2 0x319 JUMP JUMPDEST DUP3 ADD SWAP2 SWAP1 PUSH0 MSTORE PUSH1 0x20 PUSH0 KECCAK256 SWAP1 JUMPDEST DUP2 SLOAD DUP2 MSTORE SWAP1 PUSH1 0x1 ADD SWAP1 PUSH1 0x20 ADD DUP1 DUP4 GT PUSH2 0x2FC JUMPI DUP3 SWAP1 SUB PUSH1 0x1F AND DUP3 ADD SWAP2 JUMPDEST POP POP POP POP POP SWAP1 POP SWAP2 SWAP1 POP JUMP JUMPDEST DUP1 PUSH1 0x4 DUP2 SWAP1 SSTORE POP POP JUMP JUMPDEST PUSH0 PUSH1 0x1 DUP3 DUP2 SLOAD DUP2 LT PUSH2 0x344 JUMPI PUSH2 0x343 PUSH2 0x7B5 JUMP JUMPDEST JUMPDEST SWAP1 PUSH0 MSTORE PUSH1 0x20 PUSH0 KECCAK256 SWAP1 PUSH1 0x2 MUL ADD PUSH0 ADD SLOAD SWAP1 POP SWAP2 SWAP1 POP JUMP JUMPDEST PUSH1 0x1 PUSH1 0x40 MLOAD DUP1 PUSH1 0x40 ADD PUSH1 0x40 MSTORE DUP1 DUP4 DUP2 MSTORE PUSH1 0x20 ADD DUP5 DUP2 MSTORE POP SWAP1 DUP1 PUSH1 0x1 DUP2 SLOAD ADD DUP1 DUP3 SSTORE DUP1 SWAP2 POP POP PUSH1 0x1 SWAP1 SUB SWAP1 PUSH0 MSTORE PUSH1 0x20 PUSH0 KECCAK256 SWAP1 PUSH1 0x2 MUL ADD PUSH0 SWAP1 SWAP2 SWAP1 SWAP2 SWAP1 SWAP2 POP PUSH0 DUP3 ADD MLOAD DUP2 PUSH0 ADD SSTORE PUSH1 0x20 DUP3 ADD MLOAD DUP2 PUSH1 0x1 ADD SWAP1 DUP2 PUSH2 0x3B4 SWAP2 SWAP1 PUSH2 0x9DC JUMP JUMPDEST POP POP POP DUP2 PUSH0 DUP1 DUP4 DUP2 MSTORE PUSH1 0x20 ADD SWAP1 DUP2 MSTORE PUSH1 0x20 ADD PUSH0 KECCAK256 SWAP1 DUP2 PUSH2 0x3D4 SWAP2 SWAP1 PUSH2 0x9DC JUMP JUMPDEST POP POP POP JUMP JUMPDEST PUSH0 PUSH1 0x20 MSTORE DUP1 PUSH0 MSTORE PUSH1 0x40 PUSH0 KECCAK256 PUSH0 SWAP2 POP SWAP1 POP DUP1 SLOAD PUSH2 0x3F4 SWAP1 PUSH2 0x80F JUMP JUMPDEST DUP1 PUSH1 0x1F ADD PUSH1 0x20 DUP1 SWAP2 DIV MUL PUSH1 0x20 ADD PUSH1 0x40 MLOAD SWAP1 DUP2 ADD PUSH1 0x40 MSTORE DUP1 SWAP3 SWAP2 SWAP1 DUP2 DUP2 MSTORE PUSH1 0x20 ADD DUP3 DUP1 SLOAD PUSH2 0x420 SWAP1 PUSH2 0x80F JUMP JUMPDEST DUP1 ISZERO PUSH2 0x46B JUMPI DUP1 PUSH1 0x1F LT PUSH2 0x442 JUMPI PUSH2 0x100 DUP1 DUP4 SLOAD DIV MUL DUP4 MSTORE SWAP2 PUSH1 0x20 ADD SWAP2 PUSH2 0x46B JUMP JUMPDEST DUP3 ADD SWAP2 SWAP1 PUSH0 MSTORE PUSH1 0x20 PUSH0 KECCAK256 SWAP1 JUMPDEST DUP2 SLOAD DUP2 MSTORE SWAP1 PUSH1 0x1 ADD SWAP1 PUSH1 0x20 ADD DUP1 DUP4 GT PUSH2 0x44E JUMPI DUP3 SWAP1 SUB PUSH1 0x1F AND DUP3 ADD SWAP2 JUMPDEST POP POP POP POP POP DUP2 JUMP JUMPDEST PUSH0 PUSH1 0x4 SLOAD SWAP1 POP SWAP1 JUMP JUMPDEST PUSH0 PUSH1 0x40 MLOAD SWAP1 POP SWAP1 JUMP JUMPDEST PUSH0 DUP1 REVERT JUMPDEST PUSH0 DUP1 REVERT JUMPDEST PUSH0 DUP2 SWAP1 POP SWAP2 SWAP1 POP JUMP JUMPDEST PUSH2 0x49F DUP2 PUSH2 0x48D JUMP JUMPDEST DUP2 EQ PUSH2 0x4A9 JUMPI PUSH0 DUP1 REVERT JUMPDEST POP JUMP JUMPDEST PUSH0 DUP2 CALLDATALOAD SWAP1 POP PUSH2 0x4BA DUP2 PUSH2 0x496 JUMP JUMPDEST SWAP3 SWAP2 POP POP JUMP JUMPDEST PUSH0 PUSH1 0x20 DUP3 DUP5 SUB SLT ISZERO PUSH2 0x4D5 JUMPI PUSH2 0x4D4 PUSH2 0x485 JUMP JUMPDEST JUMPDEST PUSH0 PUSH2 0x4E2 DUP5 DUP3 DUP6 ADD PUSH2 0x4AC JUMP JUMPDEST SWAP2 POP POP SWAP3 SWAP2 POP POP JUMP JUMPDEST PUSH0 DUP2 SWAP1 POP SWAP2 SWAP1 POP JUMP JUMPDEST PUSH2 0x4FD DUP2 PUSH2 0x4EB JUMP JUMPDEST DUP3 MSTORE POP POP JUMP JUMPDEST PUSH0 DUP2 MLOAD SWAP1 POP SWAP2 SWAP1 POP JUMP JUMPDEST PUSH0 DUP3 DUP3 MSTORE PUSH1 0x20 DUP3 ADD SWAP1 POP SWAP3 SWAP2 POP POP JUMP JUMPDEST DUP3 DUP2 DUP4 MCOPY PUSH0 DUP4 DUP4 ADD MSTORE POP POP POP JUMP JUMPDEST PUSH0 PUSH1 0x1F NOT PUSH1 0x1F DUP4 ADD AND SWAP1 POP SWAP2 SWAP1 POP JUMP JUMPDEST PUSH0 PUSH2 0x545 DUP3 PUSH2 0x503 JUMP JUMPDEST PUSH2 0x54F DUP2 DUP6 PUSH2 0x50D JUMP JUMPDEST SWAP4 POP PUSH2 0x55F DUP2 DUP6 PUSH1 0x20 DUP7 ADD PUSH2 0x51D JUMP JUMPDEST PUSH2 0x568 DUP2 PUSH2 0x52B JUMP JUMPDEST DUP5 ADD SWAP2 POP POP SWAP3 SWAP2 POP POP JUMP JUMPDEST PUSH0 PUSH1 0x40 DUP3 ADD SWAP1 POP PUSH2 0x586 PUSH0 DUP4 ADD DUP6 PUSH2 0x4F4 JUMP JUMPDEST DUP2 DUP2 SUB PUSH1 0x20 DUP4 ADD MSTORE PUSH2 0x598 DUP2 DUP5 PUSH2 0x53B JUMP JUMPDEST SWAP1 POP SWAP4 SWAP3 POP POP POP JUMP JUMPDEST PUSH0 PUSH1 0x20 DUP3 ADD SWAP1 POP DUP2 DUP2 SUB PUSH0 DUP4 ADD MSTORE PUSH2 0x5B9 DUP2 DUP5 PUSH2 0x53B JUMP JUMPDEST SWAP1 POP SWAP3 SWAP2 POP POP JUMP JUMPDEST PUSH2 0x5CA DUP2 PUSH2 0x4EB JUMP JUMPDEST DUP2 EQ PUSH2 0x5D4 JUMPI PUSH0 DUP1 REVERT JUMPDEST POP JUMP JUMPDEST PUSH0 DUP2 CALLDATALOAD SWAP1 POP PUSH2 0x5E5 DUP2 PUSH2 0x5C1 JUMP JUMPDEST SWAP3 SWAP2 POP POP JUMP JUMPDEST PUSH0 PUSH1 0x20 DUP3 DUP5 SUB SLT ISZERO PUSH2 0x600 JUMPI PUSH2 0x5FF PUSH2 0x485 JUMP JUMPDEST JUMPDEST PUSH0 PUSH2 0x60D DUP5 DUP3 DUP6 ADD PUSH2 0x5D7 JUMP JUMPDEST SWAP2 POP POP SWAP3 SWAP2 POP POP JUMP JUMPDEST PUSH0 PUSH1 0x20 DUP3 ADD SWAP1 POP PUSH2 0x629 PUSH0 DUP4 ADD DUP5 PUSH2 0x4F4 JUMP JUMPDEST SWAP3 SWAP2 POP POP JUMP JUMPDEST PUSH0 DUP1 REVERT JUMPDEST PUSH0 DUP1 REVERT JUMPDEST PUSH32 0x4E487B7100000000000000000000000000000000000000000000000000000000 PUSH0 MSTORE PUSH1 0x41 PUSH1 0x4 MSTORE PUSH1 0x24 PUSH0 REVERT JUMPDEST PUSH2 0x66D DUP3 PUSH2 0x52B JUMP JUMPDEST DUP2 ADD DUP2 DUP2 LT PUSH8 0xFFFFFFFFFFFFFFFF DUP3 GT OR ISZERO PUSH2 0x68C JUMPI PUSH2 0x68B PUSH2 0x637 JUMP JUMPDEST JUMPDEST DUP1 PUSH1 0x40 MSTORE POP POP POP JUMP JUMPDEST PUSH0 PUSH2 0x69E PUSH2 0x47C JUMP JUMPDEST SWAP1 POP PUSH2 0x6AA DUP3 DUP3 PUSH2 0x664 JUMP JUMPDEST SWAP2 SWAP1 POP JUMP JUMPDEST PUSH0 PUSH8 0xFFFFFFFFFFFFFFFF DUP3 GT ISZERO PUSH2 0x6C9 JUMPI PUSH2 0x6C8 PUSH2 0x637 JUMP JUMPDEST JUMPDEST PUSH2 0x6D2 DUP3 PUSH2 0x52B JUMP JUMPDEST SWAP1 POP PUSH1 0x20 DUP2 ADD SWAP1 POP SWAP2 SWAP1 POP JUMP JUMPDEST DUP3 DUP2 DUP4 CALLDATACOPY PUSH0 DUP4 DUP4 ADD MSTORE POP POP POP JUMP JUMPDEST PUSH0 PUSH2 0x6FF PUSH2 0x6FA DUP5 PUSH2 0x6AF JUMP JUMPDEST PUSH2 0x695 JUMP JUMPDEST SWAP1 POP DUP3 DUP2 MSTORE PUSH1 0x20 DUP2 ADD DUP5 DUP5 DUP5 ADD GT ISZERO PUSH2 0x71B JUMPI PUSH2 0x71A PUSH2 0x633 JUMP JUMPDEST JUMPDEST PUSH2 0x726 DUP5 DUP3 DUP6 PUSH2 0x6DF JUMP JUMPDEST POP SWAP4 SWAP3 POP POP POP JUMP JUMPDEST PUSH0 DUP3 PUSH1 0x1F DUP4 ADD SLT PUSH2 0x742 JUMPI PUSH2 0x741 PUSH2 0x62F JUMP JUMPDEST JUMPDEST DUP2 CALLDATALOAD PUSH2 0x752 DUP5 DUP3 PUSH1 0x20 DUP7 ADD PUSH2 0x6ED JUMP JUMPDEST SWAP2 POP POP SWAP3 SWAP2 POP POP JUMP JUMPDEST PUSH0 DUP1 PUSH1 0x40 DUP4 DUP6 SUB SLT ISZERO PUSH2 0x771 JUMPI PUSH2 0x770 PUSH2 0x485 JUMP JUMPDEST JUMPDEST PUSH0 DUP4 ADD CALLDATALOAD PUSH8 0xFFFFFFFFFFFFFFFF DUP2 GT ISZERO PUSH2 0x78E JUMPI PUSH2 0x78D PUSH2 0x489 JUMP JUMPDEST JUMPDEST PUSH2 0x79A DUP6 DUP3 DUP7 ADD PUSH2 0x72E JUMP JUMPDEST SWAP3 POP POP PUSH1 0x20 PUSH2 0x7AB DUP6 DUP3 DUP7 ADD PUSH2 0x5D7 JUMP JUMPDEST SWAP2 POP POP SWAP3 POP SWAP3 SWAP1 POP JUMP JUMPDEST PUSH32 0x4E487B7100000000000000000000000000000000000000000000000000000000 PUSH0 MSTORE PUSH1 0x32 PUSH1 0x4 MSTORE PUSH1 0x24 PUSH0 REVERT JUMPDEST PUSH32 0x4E487B7100000000000000000000000000000000000000000000000000000000 PUSH0 MSTORE PUSH1 0x22 PUSH1 0x4 MSTORE PUSH1 0x24 PUSH0 REVERT JUMPDEST PUSH0 PUSH1 0x2 DUP3 DIV SWAP1 POP PUSH1 0x1 DUP3 AND DUP1 PUSH2 0x826 JUMPI PUSH1 0x7F DUP3 AND SWAP2 POP JUMPDEST PUSH1 0x20 DUP3 LT DUP2 SUB PUSH2 0x839 JUMPI PUSH2 0x838 PUSH2 0x7E2 JUMP JUMPDEST JUMPDEST POP SWAP2 SWAP1 POP JUMP JUMPDEST PUSH0 DUP2 SWAP1 POP DUP2 PUSH0 MSTORE PUSH1 0x20 PUSH0 KECCAK256 SWAP1 POP SWAP2 SWAP1 POP JUMP JUMPDEST PUSH0 PUSH1 0x20 PUSH1 0x1F DUP4 ADD DIV SWAP1 POP SWAP2 SWAP1 POP JUMP JUMPDEST PUSH0 DUP3 DUP3 SHL SWAP1 POP SWAP3 SWAP2 POP POP JUMP JUMPDEST PUSH0 PUSH1 0x8 DUP4 MUL PUSH2 0x89B PUSH32 0xFFFFFFFFFFFFFFFFFFFFFFFFFFFFFFFFFFFFFFFFFFFFFFFFFFFFFFFFFFFFFFFF DUP3 PUSH2 0x860 JUMP JUMPDEST PUSH2 0x8A5 DUP7 DUP4 PUSH2 0x860 JUMP JUMPDEST SWAP6 POP DUP1 NOT DUP5 AND SWAP4 POP DUP1 DUP7 AND DUP5 OR SWAP3 POP POP POP SWAP4 SWAP3 POP POP POP JUMP JUMPDEST PUSH0 DUP2 SWAP1 POP SWAP2 SWAP1 POP JUMP JUMPDEST PUSH0 PUSH2 0x8E0 PUSH2 0x8DB PUSH2 0x8D6 DUP5 PUSH2 0x48D JUMP JUMPDEST PUSH2 0x8BD JUMP JUMPDEST PUSH2 0x48D JUMP JUMPDEST SWAP1 POP SWAP2 SWAP1 POP JUMP JUMPDEST PUSH0 DUP2 SWAP1 POP SWAP2 SWAP1 POP JUMP JUMPDEST PUSH2 0x8F9 DUP4 PUSH2 0x8C6 JUMP JUMPDEST PUSH2 0x90D PUSH2 0x905 DUP3 PUSH2 0x8E7 JUMP JUMPDEST DUP5 DUP5 SLOAD PUSH2 0x86C JUMP JUMPDEST DUP3 SSTORE POP POP POP POP JUMP JUMPDEST PUSH0 SWAP1 JUMP JUMPDEST PUSH2 0x921 PUSH2 0x915 JUMP JUMPDEST PUSH2 0x92C DUP2 DUP5 DUP5 PUSH2 0x8F0 JUMP JUMPDEST POP POP POP JUMP JUMPDEST JUMPDEST DUP2 DUP2 LT ISZERO PUSH2 0x94F JUMPI PUSH2 0x944 PUSH0 DUP3 PUSH2 0x919 JUMP JUMPDEST PUSH1 0x1 DUP2 ADD SWAP1 POP PUSH2 0x932 JUMP JUMPDEST POP POP JUMP JUMPDEST PUSH1 0x1F DUP3 GT ISZERO PUSH2 0x994 JUMPI PUSH2 0x965 DUP2 PUSH2 0x83F JUMP JUMPDEST PUSH2 0x96E DUP5 PUSH2 0x851 JUMP JUMPDEST DUP2 ADD PUSH1 0x20 DUP6 LT ISZERO PUSH2 0x97D JUMPI DUP2 SWAP1 POP JUMPDEST PUSH2 0x991 PUSH2 0x989 DUP6 PUSH2 0x851 JUMP JUMPDEST DUP4 ADD DUP3 PUSH2 0x931 JUMP JUMPDEST POP POP JUMPDEST POP POP POP JUMP JUMPDEST PUSH0 DUP3 DUP3 SHR SWAP1 POP SWAP3 SWAP2 POP POP JUMP JUMPDEST PUSH0 PUSH2 0x9B4 PUSH0 NOT DUP5 PUSH1 0x8 MUL PUSH2 0x999 JUMP JUMPDEST NOT DUP1 DUP4 AND SWAP2 POP POP SWAP3 SWAP2 POP POP JUMP JUMPDEST PUSH0 PUSH2 0x9CC DUP4 DUP4 PUSH2 0x9A5 JUMP JUMPDEST SWAP2 POP DUP3 PUSH1 0x2 MUL DUP3 OR SWAP1 POP SWAP3 SWAP2 POP POP JUMP JUMPDEST PUSH2 0x9E5 DUP3 PUSH2 0x503 JUMP JUMPDEST PUSH8 0xFFFFFFFFFFFFFFFF DUP2 GT ISZERO PUSH2 0x9FE JUMPI PUSH2 0x9FD PUSH2 0x637 JUMP JUMPDEST JUMPDEST PUSH2 0xA08 DUP3 SLOAD PUSH2 0x80F JUMP JUMPDEST PUSH2 0xA13 DUP3 DUP3 DUP6 PUSH2 0x953 JUMP JUMPDEST PUSH0 PUSH1 0x20 SWAP1 POP PUSH1 0x1F DUP4 GT PUSH1 0x1 DUP2 EQ PUSH2 0xA44 JUMPI PUSH0 DUP5 ISZERO PUSH2 0xA32 JUMPI DUP3 DUP8 ADD MLOAD SWAP1 POP JUMPDEST PUSH2 0xA3C DUP6 DUP3 PUSH2 0x9C1 JUMP JUMPDEST DUP7 SSTORE POP PUSH2 0xAA3 JUMP JUMPDEST PUSH1 0x1F NOT DUP5 AND PUSH2 0xA52 DUP7 PUSH2 0x83F JUMP JUMPDEST PUSH0 JUMPDEST DUP3 DUP2 LT ISZERO PUSH2 0xA79 JUMPI DUP5 DUP10 ADD MLOAD DUP3 SSTORE PUSH1 0x1 DUP3 ADD SWAP2 POP PUSH1 0x20 DUP6 ADD SWAP5 POP PUSH1 0x20 DUP2 ADD SWAP1 POP PUSH2 0xA54 JUMP JUMPDEST DUP7 DUP4 LT ISZERO PUSH2 0xA96 JUMPI DUP5 DUP10 ADD MLOAD PUSH2 0xA92 PUSH1 0x1F DUP10 AND DUP3 PUSH2 0x9A5 JUMP JUMPDEST DUP4 SSTORE POP JUMPDEST PUSH1 0x1 PUSH1 0x2 DUP9 MUL ADD DUP9 SSTORE POP POP POP JUMPDEST POP POP POP POP POP POP JUMP INVALID LOG2 PUSH5 0x6970667358 0x22 SLT KECCAK256 DUP4 SWAP5 PUSH29 0xFC98F082475D6883A2B08DCDFE1AA17C63C77DF8F2E92CCAA33B6789B3 PUSH5 0x736F6C6343 STOP ADDMOD BYTE STOP CALLER "
				},
				"gasEstimates": {
					"creation": {
						"codeDepositCost": "557000",
						"executionCost": "592",
						"totalCost": "557592"
					},
					"external": {
						"addNumber(int256)": "22560",
						"addPerson(string,int256)": "infinite",
						"getPerson(uint256)": "infinite",
						"getPersonName(uint256)": "infinite",
						"getPersonNumber(uint256)": "4887",
						"mapNameToNumber(int256)": "infinite",
						"viewNumber()": "2498"
					}
				},
				"methodIdentifiers": {
					"addNumber(int256)": "63893d17",
					"addPerson(string,int256)": "70d464e1",
					"getPerson(uint256)": "246982c4",
					"getPersonName(uint256)": "40ab422e",
					"getPersonNumber(uint256)": "6ad7eebc",
					"mapNameToNumber(int256)": "bb496938",
					"viewNumber()": "d811a0f7"
				}
			},
			"storageLayout": {
				"storage": [
					{
						"astId": 36,
						"contract": "storageFactory/simpleStorage.sol:SimpleStorage",
						"label": "mapNameToNumber",
						"offset": 0,
						"slot": "0",
						"type": "t_mapping(t_int256,t_string_storage)"
					},
					{
						"astId": 40,
						"contract": "storageFactory/simpleStorage.sol:SimpleStorage",
						"label": "people",
						"offset": 0,
						"slot": "1",
						"type": "t_array(t_struct(Person)32_storage)dyn_storage"
					},
					{
						"astId": 43,
						"contract": "storageFactory/simpleStorage.sol:SimpleStorage",
						"label": "person",
						"offset": 0,
						"slot": "2",
						"type": "t_struct(Person)32_storage"
					},
					{
						"astId": 45,
						"contract": "storageFactory/simpleStorage.sol:SimpleStorage",
						"label": "newNumber",
						"offset": 0,
						"slot": "4",
						"type": "t_int256"
					}
				],
				"types": {
					"t_array(t_struct(Person)32_storage)dyn_storage": {
						"base": "t_struct(Person)32_storage",
						"encoding": "dynamic_array",
						"label": "struct SimpleStorage.Person[]",
						"numberOfBytes": "32"
					},
					"t_int256": {
						"encoding": "inplace",
						"label": "int256",
						"numberOfBytes": "32"
					},
					"t_mapping(t_int256,t_string_storage)": {
						"encoding": "mapping",
						"key": "t_int256",
						"label": "mapping(int256 => string)",
						"numberOfBytes": "32",
						"value": "t_string_storage"
					},
					"t_string_storage": {
						"encoding": "bytes",
						"label": "string",
						"numberOfBytes": "32"
					},
					"t_struct(Person)32_storage": {
						"encoding": "inplace",
						"label": "struct SimpleStorage.Person",
						"members": [
							{
								"astId": 29,
								"contract": "storageFactory/simpleStorage.sol:SimpleStorage",
								"label": "favouriteNumber",
								"offset": 0,
								"slot": "0",
								"type": "t_int256"
							},
							{
								"astId": 31,
								"contract": "storageFactory/simpleStorage.sol:SimpleStorage",
								"label": "name",
								"offset": 0,
								"slot": "1",
								"type": "t_string_storage"
							}
						],
						"numberOfBytes": "64"
					}
				}
			},
			"userdoc": {
				"kind": "user",
				"methods": {},
				"version": 1
			}
		}
	}
}