{
	"FundMe/fundme.sol": {
		"FundMe": {
			"abi": [
				{
					"inputs": [],
					"name": "fund",
					"outputs": [],
					"stateMutability": "payable",
					"type": "function"
				},
				{
					"inputs": [
						{
							"internalType": "uint256",
							"name": "amount",
							"type": "uint256"
						}
					],
					"name": "getConversionRate",
					"outputs": [
						{
							"internalType": "uint256",
							"name": "",
							"type": "uint256"
						}
					],
					"stateMutability": "view",
					"type": "function"
				},
				{
					"inputs": [],
					"name": "getPrice",
					"outputs": [
						{
							"internalType": "uint256",
							"name": "",
							"type": "uint256"
						}
					],
					"stateMutability": "view",
					"type": "function"
				},
				{
					"inputs": [],
					"name": "withdraw",
					"outputs": [],
					"stateMutability": "nonpayable",
					"type": "function"
				}
			],
			"devdoc": {
				"kind": "dev",
				"methods": {},
				"version": 1
			},
			"evm": {
				"assembly": "    /* \"FundMe/fundme.sol\":207:2938  contract FundMe{... */\n  mstore(0x40, 0x80)\n    /* \"FundMe/fundme.sol\":292:296  5e18 */\n  0x4563918244f40000\n    /* \"FundMe/fundme.sol\":270:296  uint256   numberUSD = 5e18 */\n  0x00\n  sstore\n    /* \"FundMe/fundme.sol\":207:2938  contract FundMe{... */\n  callvalue\n  dup1\n  iszero\n  tag_1\n  jumpi\n  0x00\n  dup1\n  revert\ntag_1:\n  pop\n  dataSize(sub_0)\n  dup1\n  dataOffset(sub_0)\n  0x00\n  codecopy\n  0x00\n  return\nstop\n\nsub_0: assembly {\n        /* \"FundMe/fundme.sol\":207:2938  contract FundMe{... */\n      mstore(0x40, 0x80)\n      jumpi(tag_1, lt(calldatasize, 0x04))\n      shr(0xe0, calldataload(0x00))\n      dup1\n      0x3ccfd60b\n      eq\n      tag_2\n      jumpi\n      dup1\n      0x6e5b6b28\n      eq\n      tag_3\n      jumpi\n      dup1\n      0x98d5fdca\n      eq\n      tag_4\n      jumpi\n      dup1\n      0xb60d4288\n      eq\n      tag_5\n      jumpi\n    tag_1:\n      0x00\n      dup1\n      revert\n        /* \"FundMe/fundme.sol\":1288:1317  function withdraw() public {} */\n    tag_2:\n      callvalue\n      dup1\n      iszero\n      tag_6\n      jumpi\n      0x00\n      dup1\n      revert\n    tag_6:\n      pop\n      tag_7\n      tag_8\n      jump\t// in\n    tag_7:\n      stop\n        /* \"FundMe/fundme.sol\":2241:2935  function getConversionRate(uint256 amount) public view returns(uint256) {... */\n    tag_3:\n      callvalue\n      dup1\n      iszero\n      tag_9\n      jumpi\n      0x00\n      dup1\n      revert\n    tag_9:\n      pop\n      tag_10\n      0x04\n      dup1\n      calldatasize\n      sub\n      dup2\n      add\n      swap1\n      tag_11\n      swap2\n      swap1\n      tag_12\n      jump\t// in\n    tag_11:\n      tag_13\n      jump\t// in\n    tag_10:\n      mload(0x40)\n      tag_14\n      swap2\n      swap1\n      tag_15\n      jump\t// in\n    tag_14:\n      mload(0x40)\n      dup1\n      swap2\n      sub\n      swap1\n      return\n        /* \"FundMe/fundme.sol\":1325:2233  function getPrice() public view returns(uint256){... */\n    tag_4:\n      callvalue\n      dup1\n      iszero\n      tag_16\n      jumpi\n      0x00\n      dup1\n      revert\n    tag_16:\n      pop\n      tag_17\n      tag_18\n      jump\t// in\n    tag_17:\n      mload(0x40)\n      tag_19\n      swap2\n      swap1\n      tag_15\n      jump\t// in\n    tag_19:\n      mload(0x40)\n      dup1\n      swap2\n      sub\n      swap1\n      return\n        /* \"FundMe/fundme.sol\":305:1208  function fund() public payable{ // using payable keyword, we make this function able to receive eth... */\n    tag_5:\n      tag_20\n      tag_21\n      jump\t// in\n    tag_20:\n      stop\n        /* \"FundMe/fundme.sol\":1288:1317  function withdraw() public {} */\n    tag_8:\n      jump\t// out\n        /* \"FundMe/fundme.sol\":2241:2935  function getConversionRate(uint256 amount) public view returns(uint256) {... */\n    tag_13:\n        /* \"FundMe/fundme.sol\":2304:2311  uint256 */\n      0x00\n        /* \"FundMe/fundme.sol\":2324:2340  uint256 ethPrice */\n      dup1\n        /* \"FundMe/fundme.sol\":2343:2353  getPrice() */\n      tag_24\n        /* \"FundMe/fundme.sol\":2343:2351  getPrice */\n      tag_18\n        /* \"FundMe/fundme.sol\":2343:2353  getPrice() */\n      jump\t// in\n    tag_24:\n        /* \"FundMe/fundme.sol\":2324:2353  uint256 ethPrice = getPrice() */\n      swap1\n      pop\n        /* \"FundMe/fundme.sol\":2364:2381  uint256 converted */\n      0x00\n        /* \"FundMe/fundme.sol\":2404:2408  1e18 */\n      0x0de0b6b3a7640000\n        /* \"FundMe/fundme.sol\":2396:2402  amount */\n      dup5\n        /* \"FundMe/fundme.sol\":2385:2393  ethPrice */\n      dup4\n        /* \"FundMe/fundme.sol\":2385:2402  ethPrice * amount */\n      tag_25\n      swap2\n      swap1\n      tag_26\n      jump\t// in\n    tag_25:\n        /* \"FundMe/fundme.sol\":2384:2408  (ethPrice * amount)/1e18 */\n      tag_27\n      swap2\n      swap1\n      tag_28\n      jump\t// in\n    tag_27:\n        /* \"FundMe/fundme.sol\":2364:2408  uint256 converted = (ethPrice * amount)/1e18 */\n      swap1\n      pop\n        /* \"FundMe/fundme.sol\":2426:2435  converted */\n      dup1\n        /* \"FundMe/fundme.sol\":2419:2435  return converted */\n      swap3\n      pop\n      pop\n      pop\n        /* \"FundMe/fundme.sol\":2241:2935  function getConversionRate(uint256 amount) public view returns(uint256) {... */\n      swap2\n      swap1\n      pop\n      jump\t// out\n        /* \"FundMe/fundme.sol\":1325:2233  function getPrice() public view returns(uint256){... */\n    tag_18:\n        /* \"FundMe/fundme.sol\":1365:1372  uint256 */\n      0x00\n        /* \"FundMe/fundme.sol\":1384:1414  AggregatorV3Interface dataFeed */\n      dup1\n        /* \"FundMe/fundme.sol\":1458:1500  0x694AA1769357215DE4FAC081bf1f309aDC325306 */\n      0x694aa1769357215de4fac081bf1f309adc325306\n        /* \"FundMe/fundme.sol\":1425:1501  dataFeed = AggregatorV3Interface(0x694AA1769357215DE4FAC081bf1f309aDC325306) */\n      swap1\n      pop\n        /* \"FundMe/fundme.sol\":1534:1547  int256 answer */\n      0x00\n        /* \"FundMe/fundme.sol\":1622:1630  dataFeed */\n      dup2\n        /* \"FundMe/fundme.sol\":1622:1646  dataFeed.latestRoundData */\n      0xffffffffffffffffffffffffffffffffffffffff\n      and\n      0xfeaf968c\n        /* \"FundMe/fundme.sol\":1622:1648  dataFeed.latestRoundData() */\n      mload(0x40)\n      dup2\n      0xffffffff\n      and\n      0xe0\n      shl\n      dup2\n      mstore\n      0x04\n      add\n      0xa0\n      mload(0x40)\n      dup1\n      dup4\n      sub\n      dup2\n      dup7\n      gas\n      staticcall\n      iszero\n      dup1\n      iszero\n      tag_31\n      jumpi\n      returndatasize\n      0x00\n      dup1\n      returndatacopy\n      revert(0x00, returndatasize)\n    tag_31:\n      pop\n      pop\n      pop\n      pop\n      mload(0x40)\n      returndatasize\n      not(0x1f)\n      0x1f\n      dup3\n      add\n      and\n      dup3\n      add\n      dup1\n      0x40\n      mstore\n      pop\n      dup2\n      add\n      swap1\n      tag_32\n      swap2\n      swap1\n      tag_33\n      jump\t// in\n    tag_32:\n        /* \"FundMe/fundme.sol\":1512:1648  (/* uint80 roundId */,int256 answer,/*uint256 startedAt*/,/*uint256 updatedAt*/,/*uint80 answeredInRound*/) = dataFeed.latestRoundData() */\n      pop\n      pop\n      pop\n      swap2\n      pop\n      pop\n        /* \"FundMe/fundme.sol\":2067:2071  1e10 */\n      0x02540be400\n        /* \"FundMe/fundme.sol\":2060:2066  answer */\n      dup2\n        /* \"FundMe/fundme.sol\":2060:2071  answer*1e10 */\n      tag_34\n      swap2\n      swap1\n      tag_35\n      jump\t// in\n    tag_34:\n        /* \"FundMe/fundme.sol\":2045:2072  return uint256(answer*1e10) */\n      swap3\n      pop\n      pop\n      pop\n        /* \"FundMe/fundme.sol\":1325:2233  function getPrice() public view returns(uint256){... */\n      swap1\n      jump\t// out\n        /* \"FundMe/fundme.sol\":305:1208  function fund() public payable{ // using payable keyword, we make this function able to receive eth... */\n    tag_21:\n        /* \"FundMe/fundme.sol\":456:465  numberUSD */\n      sload(0x00)\n        /* \"FundMe/fundme.sol\":424:433  msg.value */\n      callvalue\n        /* \"FundMe/fundme.sol\":424:451  msg.value.getConversionRate */\n      linkerSymbol(\"f1316a4e62e7e457e87340971b0eff0f8500b3bec7ebd8cfca471c29f83a61d1\")\n      0x6e5b6b28\n      swap1\n      swap2\n        /* \"FundMe/fundme.sol\":424:453  msg.value.getConversionRate() */\n      mload(0x40)\n      dup3\n      0xffffffff\n      and\n      0xe0\n      shl\n      dup2\n      mstore\n      0x04\n      add\n      tag_37\n      swap2\n      swap1\n      tag_38\n      jump\t// in\n    tag_37:\n      0x20\n      mload(0x40)\n      dup1\n      dup4\n      sub\n      dup2\n      dup7\n      gas\n      delegatecall\n      iszero\n      dup1\n      iszero\n      tag_40\n      jumpi\n      returndatasize\n      0x00\n      dup1\n      returndatacopy\n      revert(0x00, returndatasize)\n    tag_40:\n      pop\n      pop\n      pop\n      pop\n      mload(0x40)\n      returndatasize\n      not(0x1f)\n      0x1f\n      dup3\n      add\n      and\n      dup3\n      add\n      dup1\n      0x40\n      mstore\n      pop\n      dup2\n      add\n      swap1\n      tag_41\n      swap2\n      swap1\n      tag_42\n      jump\t// in\n    tag_41:\n        /* \"FundMe/fundme.sol\":424:465  msg.value.getConversionRate() > numberUSD */\n      gt\n        /* \"FundMe/fundme.sol\":416:492  require(msg.value.getConversionRate() > numberUSD, \"didn't send enough USD\") */\n      tag_43\n      jumpi\n      mload(0x40)\n      0x08c379a000000000000000000000000000000000000000000000000000000000\n      dup2\n      mstore\n      0x04\n      add\n      tag_44\n      swap1\n      tag_45\n      jump\t// in\n    tag_44:\n      mload(0x40)\n      dup1\n      swap2\n      sub\n      swap1\n      revert\n    tag_43:\n        /* \"FundMe/fundme.sol\":305:1208  function fund() public payable{ // using payable keyword, we make this function able to receive eth... */\n      jump\t// out\n        /* \"#utility.yul\":88:205   */\n    tag_47:\n        /* \"#utility.yul\":197:198   */\n      0x00\n        /* \"#utility.yul\":194:195   */\n      dup1\n        /* \"#utility.yul\":187:199   */\n      revert\n        /* \"#utility.yul\":334:411   */\n    tag_49:\n        /* \"#utility.yul\":371:378   */\n      0x00\n        /* \"#utility.yul\":400:405   */\n      dup2\n        /* \"#utility.yul\":389:405   */\n      swap1\n      pop\n        /* \"#utility.yul\":334:411   */\n      swap2\n      swap1\n      pop\n      jump\t// out\n        /* \"#utility.yul\":417:539   */\n    tag_50:\n        /* \"#utility.yul\":490:514   */\n      tag_72\n        /* \"#utility.yul\":508:513   */\n      dup2\n        /* \"#utility.yul\":490:514   */\n      tag_49\n      jump\t// in\n    tag_72:\n        /* \"#utility.yul\":483:488   */\n      dup2\n        /* \"#utility.yul\":480:515   */\n      eq\n        /* \"#utility.yul\":470:533   */\n      tag_73\n      jumpi\n        /* \"#utility.yul\":529:530   */\n      0x00\n        /* \"#utility.yul\":526:527   */\n      dup1\n        /* \"#utility.yul\":519:531   */\n      revert\n        /* \"#utility.yul\":470:533   */\n    tag_73:\n        /* \"#utility.yul\":417:539   */\n      pop\n      jump\t// out\n        /* \"#utility.yul\":545:684   */\n    tag_51:\n        /* \"#utility.yul\":591:596   */\n      0x00\n        /* \"#utility.yul\":629:635   */\n      dup2\n        /* \"#utility.yul\":616:636   */\n      calldataload\n        /* \"#utility.yul\":607:636   */\n      swap1\n      pop\n        /* \"#utility.yul\":645:678   */\n      tag_75\n        /* \"#utility.yul\":672:677   */\n      dup2\n        /* \"#utility.yul\":645:678   */\n      tag_50\n      jump\t// in\n    tag_75:\n        /* \"#utility.yul\":545:684   */\n      swap3\n      swap2\n      pop\n      pop\n      jump\t// out\n        /* \"#utility.yul\":690:1019   */\n    tag_12:\n        /* \"#utility.yul\":749:755   */\n      0x00\n        /* \"#utility.yul\":798:800   */\n      0x20\n        /* \"#utility.yul\":786:795   */\n      dup3\n        /* \"#utility.yul\":777:784   */\n      dup5\n        /* \"#utility.yul\":773:796   */\n      sub\n        /* \"#utility.yul\":769:801   */\n      slt\n        /* \"#utility.yul\":766:885   */\n      iszero\n      tag_77\n      jumpi\n        /* \"#utility.yul\":804:883   */\n      tag_78\n      tag_47\n      jump\t// in\n    tag_78:\n        /* \"#utility.yul\":766:885   */\n    tag_77:\n        /* \"#utility.yul\":924:925   */\n      0x00\n        /* \"#utility.yul\":949:1002   */\n      tag_79\n        /* \"#utility.yul\":994:1001   */\n      dup5\n        /* \"#utility.yul\":985:991   */\n      dup3\n        /* \"#utility.yul\":974:983   */\n      dup6\n        /* \"#utility.yul\":970:992   */\n      add\n        /* \"#utility.yul\":949:1002   */\n      tag_51\n      jump\t// in\n    tag_79:\n        /* \"#utility.yul\":939:1002   */\n      swap2\n      pop\n        /* \"#utility.yul\":895:1012   */\n      pop\n        /* \"#utility.yul\":690:1019   */\n      swap3\n      swap2\n      pop\n      pop\n      jump\t// out\n        /* \"#utility.yul\":1025:1143   */\n    tag_52:\n        /* \"#utility.yul\":1112:1136   */\n      tag_81\n        /* \"#utility.yul\":1130:1135   */\n      dup2\n        /* \"#utility.yul\":1112:1136   */\n      tag_49\n      jump\t// in\n    tag_81:\n        /* \"#utility.yul\":1107:1110   */\n      dup3\n        /* \"#utility.yul\":1100:1137   */\n      mstore\n        /* \"#utility.yul\":1025:1143   */\n      pop\n      pop\n      jump\t// out\n        /* \"#utility.yul\":1149:1371   */\n    tag_15:\n        /* \"#utility.yul\":1242:1246   */\n      0x00\n        /* \"#utility.yul\":1280:1282   */\n      0x20\n        /* \"#utility.yul\":1269:1278   */\n      dup3\n        /* \"#utility.yul\":1265:1283   */\n      add\n        /* \"#utility.yul\":1257:1283   */\n      swap1\n      pop\n        /* \"#utility.yul\":1293:1364   */\n      tag_83\n        /* \"#utility.yul\":1361:1362   */\n      0x00\n        /* \"#utility.yul\":1350:1359   */\n      dup4\n        /* \"#utility.yul\":1346:1363   */\n      add\n        /* \"#utility.yul\":1337:1343   */\n      dup5\n        /* \"#utility.yul\":1293:1364   */\n      tag_52\n      jump\t// in\n    tag_83:\n        /* \"#utility.yul\":1149:1371   */\n      swap3\n      swap2\n      pop\n      pop\n      jump\t// out\n        /* \"#utility.yul\":1377:1557   */\n    tag_53:\n        /* \"#utility.yul\":1425:1502   */\n      0x4e487b7100000000000000000000000000000000000000000000000000000000\n        /* \"#utility.yul\":1422:1423   */\n      0x00\n        /* \"#utility.yul\":1415:1503   */\n      mstore\n        /* \"#utility.yul\":1522:1526   */\n      0x11\n        /* \"#utility.yul\":1519:1520   */\n      0x04\n        /* \"#utility.yul\":1512:1527   */\n      mstore\n        /* \"#utility.yul\":1546:1550   */\n      0x24\n        /* \"#utility.yul\":1543:1544   */\n      0x00\n        /* \"#utility.yul\":1536:1551   */\n      revert\n        /* \"#utility.yul\":1563:1973   */\n    tag_26:\n        /* \"#utility.yul\":1603:1610   */\n      0x00\n        /* \"#utility.yul\":1626:1646   */\n      tag_86\n        /* \"#utility.yul\":1644:1645   */\n      dup3\n        /* \"#utility.yul\":1626:1646   */\n      tag_49\n      jump\t// in\n    tag_86:\n        /* \"#utility.yul\":1621:1646   */\n      swap2\n      pop\n        /* \"#utility.yul\":1660:1680   */\n      tag_87\n        /* \"#utility.yul\":1678:1679   */\n      dup4\n        /* \"#utility.yul\":1660:1680   */\n      tag_49\n      jump\t// in\n    tag_87:\n        /* \"#utility.yul\":1655:1680   */\n      swap3\n      pop\n        /* \"#utility.yul\":1715:1716   */\n      dup3\n        /* \"#utility.yul\":1712:1713   */\n      dup3\n        /* \"#utility.yul\":1708:1717   */\n      mul\n        /* \"#utility.yul\":1737:1767   */\n      tag_88\n        /* \"#utility.yul\":1755:1766   */\n      dup2\n        /* \"#utility.yul\":1737:1767   */\n      tag_49\n      jump\t// in\n    tag_88:\n        /* \"#utility.yul\":1726:1767   */\n      swap2\n      pop\n        /* \"#utility.yul\":1916:1917   */\n      dup3\n        /* \"#utility.yul\":1907:1914   */\n      dup3\n        /* \"#utility.yul\":1903:1918   */\n      div\n        /* \"#utility.yul\":1900:1901   */\n      dup5\n        /* \"#utility.yul\":1897:1919   */\n      eq\n        /* \"#utility.yul\":1877:1878   */\n      dup4\n        /* \"#utility.yul\":1870:1879   */\n      iszero\n        /* \"#utility.yul\":1850:1933   */\n      or\n        /* \"#utility.yul\":1827:1966   */\n      tag_89\n      jumpi\n        /* \"#utility.yul\":1946:1964   */\n      tag_90\n      tag_53\n      jump\t// in\n    tag_90:\n        /* \"#utility.yul\":1827:1966   */\n    tag_89:\n        /* \"#utility.yul\":1611:1973   */\n      pop\n        /* \"#utility.yul\":1563:1973   */\n      swap3\n      swap2\n      pop\n      pop\n      jump\t// out\n        /* \"#utility.yul\":1979:2159   */\n    tag_54:\n        /* \"#utility.yul\":2027:2104   */\n      0x4e487b7100000000000000000000000000000000000000000000000000000000\n        /* \"#utility.yul\":2024:2025   */\n      0x00\n        /* \"#utility.yul\":2017:2105   */\n      mstore\n        /* \"#utility.yul\":2124:2128   */\n      0x12\n        /* \"#utility.yul\":2121:2122   */\n      0x04\n        /* \"#utility.yul\":2114:2129   */\n      mstore\n        /* \"#utility.yul\":2148:2152   */\n      0x24\n        /* \"#utility.yul\":2145:2146   */\n      0x00\n        /* \"#utility.yul\":2138:2153   */\n      revert\n        /* \"#utility.yul\":2165:2350   */\n    tag_28:\n        /* \"#utility.yul\":2205:2206   */\n      0x00\n        /* \"#utility.yul\":2222:2242   */\n      tag_93\n        /* \"#utility.yul\":2240:2241   */\n      dup3\n        /* \"#utility.yul\":2222:2242   */\n      tag_49\n      jump\t// in\n    tag_93:\n        /* \"#utility.yul\":2217:2242   */\n      swap2\n      pop\n        /* \"#utility.yul\":2256:2276   */\n      tag_94\n        /* \"#utility.yul\":2274:2275   */\n      dup4\n        /* \"#utility.yul\":2256:2276   */\n      tag_49\n      jump\t// in\n    tag_94:\n        /* \"#utility.yul\":2251:2276   */\n      swap3\n      pop\n        /* \"#utility.yul\":2295:2296   */\n      dup3\n        /* \"#utility.yul\":2285:2320   */\n      tag_95\n      jumpi\n        /* \"#utility.yul\":2300:2318   */\n      tag_96\n      tag_54\n      jump\t// in\n    tag_96:\n        /* \"#utility.yul\":2285:2320   */\n    tag_95:\n        /* \"#utility.yul\":2342:2343   */\n      dup3\n        /* \"#utility.yul\":2339:2340   */\n      dup3\n        /* \"#utility.yul\":2335:2344   */\n      div\n        /* \"#utility.yul\":2330:2344   */\n      swap1\n      pop\n        /* \"#utility.yul\":2165:2350   */\n      swap3\n      swap2\n      pop\n      pop\n      jump\t// out\n        /* \"#utility.yul\":2356:2461   */\n    tag_55:\n        /* \"#utility.yul\":2392:2399   */\n      0x00\n        /* \"#utility.yul\":2432:2454   */\n      0xffffffffffffffffffff\n        /* \"#utility.yul\":2425:2430   */\n      dup3\n        /* \"#utility.yul\":2421:2455   */\n      and\n        /* \"#utility.yul\":2410:2455   */\n      swap1\n      pop\n        /* \"#utility.yul\":2356:2461   */\n      swap2\n      swap1\n      pop\n      jump\t// out\n        /* \"#utility.yul\":2467:2587   */\n    tag_56:\n        /* \"#utility.yul\":2539:2562   */\n      tag_99\n        /* \"#utility.yul\":2556:2561   */\n      dup2\n        /* \"#utility.yul\":2539:2562   */\n      tag_55\n      jump\t// in\n    tag_99:\n        /* \"#utility.yul\":2532:2537   */\n      dup2\n        /* \"#utility.yul\":2529:2563   */\n      eq\n        /* \"#utility.yul\":2519:2581   */\n      tag_100\n      jumpi\n        /* \"#utility.yul\":2577:2578   */\n      0x00\n        /* \"#utility.yul\":2574:2575   */\n      dup1\n        /* \"#utility.yul\":2567:2579   */\n      revert\n        /* \"#utility.yul\":2519:2581   */\n    tag_100:\n        /* \"#utility.yul\":2467:2587   */\n      pop\n      jump\t// out\n        /* \"#utility.yul\":2593:2734   */\n    tag_57:\n        /* \"#utility.yul\":2649:2654   */\n      0x00\n        /* \"#utility.yul\":2680:2686   */\n      dup2\n        /* \"#utility.yul\":2674:2687   */\n      mload\n        /* \"#utility.yul\":2665:2687   */\n      swap1\n      pop\n        /* \"#utility.yul\":2696:2728   */\n      tag_102\n        /* \"#utility.yul\":2722:2727   */\n      dup2\n        /* \"#utility.yul\":2696:2728   */\n      tag_56\n      jump\t// in\n    tag_102:\n        /* \"#utility.yul\":2593:2734   */\n      swap3\n      swap2\n      pop\n      pop\n      jump\t// out\n        /* \"#utility.yul\":2740:2816   */\n    tag_58:\n        /* \"#utility.yul\":2776:2783   */\n      0x00\n        /* \"#utility.yul\":2805:2810   */\n      dup2\n        /* \"#utility.yul\":2794:2810   */\n      swap1\n      pop\n        /* \"#utility.yul\":2740:2816   */\n      swap2\n      swap1\n      pop\n      jump\t// out\n        /* \"#utility.yul\":2822:2942   */\n    tag_59:\n        /* \"#utility.yul\":2894:2917   */\n      tag_105\n        /* \"#utility.yul\":2911:2916   */\n      dup2\n        /* \"#utility.yul\":2894:2917   */\n      tag_58\n      jump\t// in\n    tag_105:\n        /* \"#utility.yul\":2887:2892   */\n      dup2\n        /* \"#utility.yul\":2884:2918   */\n      eq\n        /* \"#utility.yul\":2874:2936   */\n      tag_106\n      jumpi\n        /* \"#utility.yul\":2932:2933   */\n      0x00\n        /* \"#utility.yul\":2929:2930   */\n      dup1\n        /* \"#utility.yul\":2922:2934   */\n      revert\n        /* \"#utility.yul\":2874:2936   */\n    tag_106:\n        /* \"#utility.yul\":2822:2942   */\n      pop\n      jump\t// out\n        /* \"#utility.yul\":2948:3089   */\n    tag_60:\n        /* \"#utility.yul\":3004:3009   */\n      0x00\n        /* \"#utility.yul\":3035:3041   */\n      dup2\n        /* \"#utility.yul\":3029:3042   */\n      mload\n        /* \"#utility.yul\":3020:3042   */\n      swap1\n      pop\n        /* \"#utility.yul\":3051:3083   */\n      tag_108\n        /* \"#utility.yul\":3077:3082   */\n      dup2\n        /* \"#utility.yul\":3051:3083   */\n      tag_59\n      jump\t// in\n    tag_108:\n        /* \"#utility.yul\":2948:3089   */\n      swap3\n      swap2\n      pop\n      pop\n      jump\t// out\n        /* \"#utility.yul\":3095:3238   */\n    tag_61:\n        /* \"#utility.yul\":3152:3157   */\n      0x00\n        /* \"#utility.yul\":3183:3189   */\n      dup2\n        /* \"#utility.yul\":3177:3190   */\n      mload\n        /* \"#utility.yul\":3168:3190   */\n      swap1\n      pop\n        /* \"#utility.yul\":3199:3232   */\n      tag_110\n        /* \"#utility.yul\":3226:3231   */\n      dup2\n        /* \"#utility.yul\":3199:3232   */\n      tag_50\n      jump\t// in\n    tag_110:\n        /* \"#utility.yul\":3095:3238   */\n      swap3\n      swap2\n      pop\n      pop\n      jump\t// out\n        /* \"#utility.yul\":3244:4215   */\n    tag_33:\n        /* \"#utility.yul\":3347:3353   */\n      0x00\n        /* \"#utility.yul\":3355:3361   */\n      dup1\n        /* \"#utility.yul\":3363:3369   */\n      0x00\n        /* \"#utility.yul\":3371:3377   */\n      dup1\n        /* \"#utility.yul\":3379:3385   */\n      0x00\n        /* \"#utility.yul\":3428:3431   */\n      0xa0\n        /* \"#utility.yul\":3416:3425   */\n      dup7\n        /* \"#utility.yul\":3407:3414   */\n      dup9\n        /* \"#utility.yul\":3403:3426   */\n      sub\n        /* \"#utility.yul\":3399:3432   */\n      slt\n        /* \"#utility.yul\":3396:3516   */\n      iszero\n      tag_112\n      jumpi\n        /* \"#utility.yul\":3435:3514   */\n      tag_113\n      tag_47\n      jump\t// in\n    tag_113:\n        /* \"#utility.yul\":3396:3516   */\n    tag_112:\n        /* \"#utility.yul\":3555:3556   */\n      0x00\n        /* \"#utility.yul\":3580:3643   */\n      tag_114\n        /* \"#utility.yul\":3635:3642   */\n      dup9\n        /* \"#utility.yul\":3626:3632   */\n      dup3\n        /* \"#utility.yul\":3615:3624   */\n      dup10\n        /* \"#utility.yul\":3611:3633   */\n      add\n        /* \"#utility.yul\":3580:3643   */\n      tag_57\n      jump\t// in\n    tag_114:\n        /* \"#utility.yul\":3570:3643   */\n      swap6\n      pop\n        /* \"#utility.yul\":3526:3653   */\n      pop\n        /* \"#utility.yul\":3692:3694   */\n      0x20\n        /* \"#utility.yul\":3718:3781   */\n      tag_115\n        /* \"#utility.yul\":3773:3780   */\n      dup9\n        /* \"#utility.yul\":3764:3770   */\n      dup3\n        /* \"#utility.yul\":3753:3762   */\n      dup10\n        /* \"#utility.yul\":3749:3771   */\n      add\n        /* \"#utility.yul\":3718:3781   */\n      tag_60\n      jump\t// in\n    tag_115:\n        /* \"#utility.yul\":3708:3781   */\n      swap5\n      pop\n        /* \"#utility.yul\":3663:3791   */\n      pop\n        /* \"#utility.yul\":3830:3832   */\n      0x40\n        /* \"#utility.yul\":3856:3920   */\n      tag_116\n        /* \"#utility.yul\":3912:3919   */\n      dup9\n        /* \"#utility.yul\":3903:3909   */\n      dup3\n        /* \"#utility.yul\":3892:3901   */\n      dup10\n        /* \"#utility.yul\":3888:3910   */\n      add\n        /* \"#utility.yul\":3856:3920   */\n      tag_61\n      jump\t// in\n    tag_116:\n        /* \"#utility.yul\":3846:3920   */\n      swap4\n      pop\n        /* \"#utility.yul\":3801:3930   */\n      pop\n        /* \"#utility.yul\":3969:3971   */\n      0x60\n        /* \"#utility.yul\":3995:4059   */\n      tag_117\n        /* \"#utility.yul\":4051:4058   */\n      dup9\n        /* \"#utility.yul\":4042:4048   */\n      dup3\n        /* \"#utility.yul\":4031:4040   */\n      dup10\n        /* \"#utility.yul\":4027:4049   */\n      add\n        /* \"#utility.yul\":3995:4059   */\n      tag_61\n      jump\t// in\n    tag_117:\n        /* \"#utility.yul\":3985:4059   */\n      swap3\n      pop\n        /* \"#utility.yul\":3940:4069   */\n      pop\n        /* \"#utility.yul\":4108:4111   */\n      0x80\n        /* \"#utility.yul\":4135:4198   */\n      tag_118\n        /* \"#utility.yul\":4190:4197   */\n      dup9\n        /* \"#utility.yul\":4181:4187   */\n      dup3\n        /* \"#utility.yul\":4170:4179   */\n      dup10\n        /* \"#utility.yul\":4166:4188   */\n      add\n        /* \"#utility.yul\":4135:4198   */\n      tag_57\n      jump\t// in\n    tag_118:\n        /* \"#utility.yul\":4125:4198   */\n      swap2\n      pop\n        /* \"#utility.yul\":4079:4208   */\n      pop\n        /* \"#utility.yul\":3244:4215   */\n      swap3\n      swap6\n      pop\n      swap3\n      swap6\n      swap1\n      swap4\n      pop\n      jump\t// out\n        /* \"#utility.yul\":4221:4777   */\n    tag_35:\n        /* \"#utility.yul\":4260:4267   */\n      0x00\n        /* \"#utility.yul\":4283:4302   */\n      tag_120\n        /* \"#utility.yul\":4300:4301   */\n      dup3\n        /* \"#utility.yul\":4283:4302   */\n      tag_58\n      jump\t// in\n    tag_120:\n        /* \"#utility.yul\":4278:4302   */\n      swap2\n      pop\n        /* \"#utility.yul\":4316:4335   */\n      tag_121\n        /* \"#utility.yul\":4333:4334   */\n      dup4\n        /* \"#utility.yul\":4316:4335   */\n      tag_58\n      jump\t// in\n    tag_121:\n        /* \"#utility.yul\":4311:4335   */\n      swap3\n      pop\n        /* \"#utility.yul\":4370:4371   */\n      dup3\n        /* \"#utility.yul\":4367:4368   */\n      dup3\n        /* \"#utility.yul\":4363:4372   */\n      mul\n        /* \"#utility.yul\":4392:4421   */\n      tag_122\n        /* \"#utility.yul\":4409:4420   */\n      dup2\n        /* \"#utility.yul\":4392:4421   */\n      tag_58\n      jump\t// in\n    tag_122:\n        /* \"#utility.yul\":4381:4421   */\n      swap2\n      pop\n        /* \"#utility.yul\":4479:4545   */\n      0x8000000000000000000000000000000000000000000000000000000000000000\n        /* \"#utility.yul\":4476:4477   */\n      dup5\n        /* \"#utility.yul\":4473:4546   */\n      eq\n        /* \"#utility.yul\":4469:4470   */\n      0x00\n        /* \"#utility.yul\":4466:4467   */\n      dup5\n        /* \"#utility.yul\":4462:4471   */\n      slt\n        /* \"#utility.yul\":4458:4547   */\n      and\n        /* \"#utility.yul\":4455:4570   */\n      iszero\n      tag_123\n      jumpi\n        /* \"#utility.yul\":4550:4568   */\n      tag_124\n      tag_53\n      jump\t// in\n    tag_124:\n        /* \"#utility.yul\":4455:4570   */\n    tag_123:\n        /* \"#utility.yul\":4720:4721   */\n      dup3\n        /* \"#utility.yul\":4711:4718   */\n      dup3\n        /* \"#utility.yul\":4706:4722   */\n      sdiv\n        /* \"#utility.yul\":4703:4704   */\n      dup5\n        /* \"#utility.yul\":4700:4723   */\n      eq\n        /* \"#utility.yul\":4680:4681   */\n      dup4\n        /* \"#utility.yul\":4673:4682   */\n      iszero\n        /* \"#utility.yul\":4653:4737   */\n      or\n        /* \"#utility.yul\":4630:4770   */\n      tag_125\n      jumpi\n        /* \"#utility.yul\":4750:4768   */\n      tag_126\n      tag_53\n      jump\t// in\n    tag_126:\n        /* \"#utility.yul\":4630:4770   */\n    tag_125:\n        /* \"#utility.yul\":4268:4777   */\n      pop\n        /* \"#utility.yul\":4221:4777   */\n      swap3\n      swap2\n      pop\n      pop\n      jump\t// out\n        /* \"#utility.yul\":4783:4909   */\n    tag_62:\n        /* \"#utility.yul\":4878:4902   */\n      tag_128\n        /* \"#utility.yul\":4896:4901   */\n      dup2\n        /* \"#utility.yul\":4878:4902   */\n      tag_49\n      jump\t// in\n    tag_128:\n        /* \"#utility.yul\":4873:4876   */\n      dup3\n        /* \"#utility.yul\":4866:4903   */\n      mstore\n        /* \"#utility.yul\":4783:4909   */\n      pop\n      pop\n      jump\t// out\n        /* \"#utility.yul\":4915:5153   */\n    tag_38:\n        /* \"#utility.yul\":5016:5020   */\n      0x00\n        /* \"#utility.yul\":5054:5056   */\n      0x20\n        /* \"#utility.yul\":5043:5052   */\n      dup3\n        /* \"#utility.yul\":5039:5057   */\n      add\n        /* \"#utility.yul\":5031:5057   */\n      swap1\n      pop\n        /* \"#utility.yul\":5067:5146   */\n      tag_130\n        /* \"#utility.yul\":5143:5144   */\n      0x00\n        /* \"#utility.yul\":5132:5141   */\n      dup4\n        /* \"#utility.yul\":5128:5145   */\n      add\n        /* \"#utility.yul\":5119:5125   */\n      dup5\n        /* \"#utility.yul\":5067:5146   */\n      tag_62\n      jump\t// in\n    tag_130:\n        /* \"#utility.yul\":4915:5153   */\n      swap3\n      swap2\n      pop\n      pop\n      jump\t// out\n        /* \"#utility.yul\":5159:5510   */\n    tag_42:\n        /* \"#utility.yul\":5229:5235   */\n      0x00\n        /* \"#utility.yul\":5278:5280   */\n      0x20\n        /* \"#utility.yul\":5266:5275   */\n      dup3\n        /* \"#utility.yul\":5257:5264   */\n      dup5\n        /* \"#utility.yul\":5253:5276   */\n      sub\n        /* \"#utility.yul\":5249:5281   */\n      slt\n        /* \"#utility.yul\":5246:5365   */\n      iszero\n      tag_132\n      jumpi\n        /* \"#utility.yul\":5284:5363   */\n      tag_133\n      tag_47\n      jump\t// in\n    tag_133:\n        /* \"#utility.yul\":5246:5365   */\n    tag_132:\n        /* \"#utility.yul\":5404:5405   */\n      0x00\n        /* \"#utility.yul\":5429:5493   */\n      tag_134\n        /* \"#utility.yul\":5485:5492   */\n      dup5\n        /* \"#utility.yul\":5476:5482   */\n      dup3\n        /* \"#utility.yul\":5465:5474   */\n      dup6\n        /* \"#utility.yul\":5461:5483   */\n      add\n        /* \"#utility.yul\":5429:5493   */\n      tag_61\n      jump\t// in\n    tag_134:\n        /* \"#utility.yul\":5419:5493   */\n      swap2\n      pop\n        /* \"#utility.yul\":5375:5503   */\n      pop\n        /* \"#utility.yul\":5159:5510   */\n      swap3\n      swap2\n      pop\n      pop\n      jump\t// out\n        /* \"#utility.yul\":5516:5685   */\n    tag_63:\n        /* \"#utility.yul\":5600:5611   */\n      0x00\n        /* \"#utility.yul\":5634:5640   */\n      dup3\n        /* \"#utility.yul\":5629:5632   */\n      dup3\n        /* \"#utility.yul\":5622:5641   */\n      mstore\n        /* \"#utility.yul\":5674:5678   */\n      0x20\n        /* \"#utility.yul\":5669:5672   */\n      dup3\n        /* \"#utility.yul\":5665:5679   */\n      add\n        /* \"#utility.yul\":5650:5679   */\n      swap1\n      pop\n        /* \"#utility.yul\":5516:5685   */\n      swap3\n      swap2\n      pop\n      pop\n      jump\t// out\n        /* \"#utility.yul\":5691:5863   */\n    tag_64:\n        /* \"#utility.yul\":5831:5855   */\n      0x6469646e27742073656e6420656e6f7567682055534400000000000000000000\n        /* \"#utility.yul\":5827:5828   */\n      0x00\n        /* \"#utility.yul\":5819:5825   */\n      dup3\n        /* \"#utility.yul\":5815:5829   */\n      add\n        /* \"#utility.yul\":5808:5856   */\n      mstore\n        /* \"#utility.yul\":5691:5863   */\n      pop\n      jump\t// out\n        /* \"#utility.yul\":5869:6235   */\n    tag_65:\n        /* \"#utility.yul\":6011:6014   */\n      0x00\n        /* \"#utility.yul\":6032:6099   */\n      tag_138\n        /* \"#utility.yul\":6096:6098   */\n      0x16\n        /* \"#utility.yul\":6091:6094   */\n      dup4\n        /* \"#utility.yul\":6032:6099   */\n      tag_63\n      jump\t// in\n    tag_138:\n        /* \"#utility.yul\":6025:6099   */\n      swap2\n      pop\n        /* \"#utility.yul\":6108:6201   */\n      tag_139\n        /* \"#utility.yul\":6197:6200   */\n      dup3\n        /* \"#utility.yul\":6108:6201   */\n      tag_64\n      jump\t// in\n    tag_139:\n        /* \"#utility.yul\":6226:6228   */\n      0x20\n        /* \"#utility.yul\":6221:6224   */\n      dup3\n        /* \"#utility.yul\":6217:6229   */\n      add\n        /* \"#utility.yul\":6210:6229   */\n      swap1\n      pop\n        /* \"#utility.yul\":5869:6235   */\n      swap2\n      swap1\n      pop\n      jump\t// out\n        /* \"#utility.yul\":6241:6660   */\n    tag_45:\n        /* \"#utility.yul\":6407:6411   */\n      0x00\n        /* \"#utility.yul\":6445:6447   */\n      0x20\n        /* \"#utility.yul\":6434:6443   */\n      dup3\n        /* \"#utility.yul\":6430:6448   */\n      add\n        /* \"#utility.yul\":6422:6448   */\n      swap1\n      pop\n        /* \"#utility.yul\":6494:6503   */\n      dup2\n        /* \"#utility.yul\":6488:6492   */\n      dup2\n        /* \"#utility.yul\":6484:6504   */\n      sub\n        /* \"#utility.yul\":6480:6481   */\n      0x00\n        /* \"#utility.yul\":6469:6478   */\n      dup4\n        /* \"#utility.yul\":6465:6482   */\n      add\n        /* \"#utility.yul\":6458:6505   */\n      mstore\n        /* \"#utility.yul\":6522:6653   */\n      tag_141\n        /* \"#utility.yul\":6648:6652   */\n      dup2\n        /* \"#utility.yul\":6522:6653   */\n      tag_65\n      jump\t// in\n    tag_141:\n        /* \"#utility.yul\":6514:6653   */\n      swap1\n      pop\n        /* \"#utility.yul\":6241:6660   */\n      swap2\n      swap1\n      pop\n      jump\t// out\n\n    auxdata: 0xa2646970667358221220fc857f2dd32a2c89f83b9254f53b37af868a0d3eb571e865e986e79b1f3405a564736f6c634300081a0033\n}\n",
				"bytecode": {
					"linkReferences": {
						"FundMe/conversion.sol": {
							"conversion": [
								{
									"length": 20,
									"start": 467
								}
							]
						}
					},
					"object": "6080604052674563918244f400005f553480156019575f80fd5b5061062c806100275f395ff3fe60806040526004361061003e575f3560e01c80633ccfd60b146100425780636e5b6b281461005857806398d5fdca14610094578063b60d4288146100be575b5f80fd5b34801561004d575f80fd5b506100566100c8565b005b348015610063575f80fd5b5061007e6004803603810190610079919061029a565b6100ca565b60405161008b91906102d4565b60405180910390f35b34801561009f575f80fd5b506100a8610102565b6040516100b591906102d4565b60405180910390f35b6100c66101a7565b005b565b5f806100d4610102565b90505f670de0b6b3a764000084836100ec919061031a565b6100f69190610388565b90508092505050919050565b5f8073694aa1769357215de4fac081bf1f309adc32530690505f8173ffffffffffffffffffffffffffffffffffffffff1663feaf968c6040518163ffffffff1660e01b815260040160a060405180830381865afa158015610165573d5f803e3d5ffd5b505050506040513d601f19601f82011682018060405250810190610189919061043e565b5050509150506402540be400816101a091906104b5565b9250505090565b5f543473__$f1316a4e62e7e457e87340971b0eff0f85$__636e5b6b2890916040518263ffffffff1660e01b81526004016101e2919061053a565b602060405180830381865af41580156101fd573d5f803e3d5ffd5b505050506040513d601f19601f820116820180604052508101906102219190610553565b11610261576040517f08c379a0000000000000000000000000000000000000000000000000000000008152600401610258906105d8565b60405180910390fd5b565b5f80fd5b5f819050919050565b61027981610267565b8114610283575f80fd5b50565b5f8135905061029481610270565b92915050565b5f602082840312156102af576102ae610263565b5b5f6102bc84828501610286565b91505092915050565b6102ce81610267565b82525050565b5f6020820190506102e75f8301846102c5565b92915050565b7f4e487b71000000000000000000000000000000000000000000000000000000005f52601160045260245ffd5b5f61032482610267565b915061032f83610267565b925082820261033d81610267565b91508282048414831517610354576103536102ed565b5b5092915050565b7f4e487b71000000000000000000000000000000000000000000000000000000005f52601260045260245ffd5b5f61039282610267565b915061039d83610267565b9250826103ad576103ac61035b565b5b828204905092915050565b5f69ffffffffffffffffffff82169050919050565b6103d6816103b8565b81146103e0575f80fd5b50565b5f815190506103f1816103cd565b92915050565b5f819050919050565b610409816103f7565b8114610413575f80fd5b50565b5f8151905061042481610400565b92915050565b5f8151905061043881610270565b92915050565b5f805f805f60a0868803121561045757610456610263565b5b5f610464888289016103e3565b955050602061047588828901610416565b94505060406104868882890161042a565b93505060606104978882890161042a565b92505060806104a8888289016103e3565b9150509295509295909350565b5f6104bf826103f7565b91506104ca836103f7565b92508282026104d8816103f7565b91507f800000000000000000000000000000000000000000000000000000000000000084145f8412161561050f5761050e6102ed565b5b8282058414831517610524576105236102ed565b5b5092915050565b61053481610267565b82525050565b5f60208201905061054d5f83018461052b565b92915050565b5f6020828403121561056857610567610263565b5b5f6105758482850161042a565b91505092915050565b5f82825260208201905092915050565b7f6469646e27742073656e6420656e6f75676820555344000000000000000000005f82015250565b5f6105c260168361057e565b91506105cd8261058e565b602082019050919050565b5f6020820190508181035f8301526105ef816105b6565b905091905056fea2646970667358221220fc857f2dd32a2c89f83b9254f53b37af868a0d3eb571e865e986e79b1f3405a564736f6c634300081a0033",
					"opcodes": "PUSH1 0x80 PUSH1 0x40 MSTORE PUSH8 0x4563918244F40000 PUSH0 SSTORE CALLVALUE DUP1 ISZERO PUSH1 0x19 JUMPI PUSH0 DUP1 REVERT JUMPDEST POP PUSH2 0x62C DUP1 PUSH2 0x27 PUSH0 CODECOPY PUSH0 RETURN INVALID PUSH1 0x80 PUSH1 0x40 MSTORE PUSH1 0x4 CALLDATASIZE LT PUSH2 0x3E JUMPI PUSH0 CALLDATALOAD PUSH1 0xE0 SHR DUP1 PUSH4 0x3CCFD60B EQ PUSH2 0x42 JUMPI DUP1 PUSH4 0x6E5B6B28 EQ PUSH2 0x58 JUMPI DUP1 PUSH4 0x98D5FDCA EQ PUSH2 0x94 JUMPI DUP1 PUSH4 0xB60D4288 EQ PUSH2 0xBE JUMPI JUMPDEST PUSH0 DUP1 REVERT JUMPDEST CALLVALUE DUP1 ISZERO PUSH2 0x4D JUMPI PUSH0 DUP1 REVERT JUMPDEST POP PUSH2 0x56 PUSH2 0xC8 JUMP JUMPDEST STOP JUMPDEST CALLVALUE DUP1 ISZERO PUSH2 0x63 JUMPI PUSH0 DUP1 REVERT JUMPDEST POP PUSH2 0x7E PUSH1 0x4 DUP1 CALLDATASIZE SUB DUP2 ADD SWAP1 PUSH2 0x79 SWAP2 SWAP1 PUSH2 0x29A JUMP JUMPDEST PUSH2 0xCA JUMP JUMPDEST PUSH1 0x40 MLOAD PUSH2 0x8B SWAP2 SWAP1 PUSH2 0x2D4 JUMP JUMPDEST PUSH1 0x40 MLOAD DUP1 SWAP2 SUB SWAP1 RETURN JUMPDEST CALLVALUE DUP1 ISZERO PUSH2 0x9F JUMPI PUSH0 DUP1 REVERT JUMPDEST POP PUSH2 0xA8 PUSH2 0x102 JUMP JUMPDEST PUSH1 0x40 MLOAD PUSH2 0xB5 SWAP2 SWAP1 PUSH2 0x2D4 JUMP JUMPDEST PUSH1 0x40 MLOAD DUP1 SWAP2 SUB SWAP1 RETURN JUMPDEST PUSH2 0xC6 PUSH2 0x1A7 JUMP JUMPDEST STOP JUMPDEST JUMP JUMPDEST PUSH0 DUP1 PUSH2 0xD4 PUSH2 0x102 JUMP JUMPDEST SWAP1 POP PUSH0 PUSH8 0xDE0B6B3A7640000 DUP5 DUP4 PUSH2 0xEC SWAP2 SWAP1 PUSH2 0x31A JUMP JUMPDEST PUSH2 0xF6 SWAP2 SWAP1 PUSH2 0x388 JUMP JUMPDEST SWAP1 POP DUP1 SWAP3 POP POP POP SWAP2 SWAP1 POP JUMP JUMPDEST PUSH0 DUP1 PUSH20 0x694AA1769357215DE4FAC081BF1F309ADC325306 SWAP1 POP PUSH0 DUP2 PUSH20 0xFFFFFFFFFFFFFFFFFFFFFFFFFFFFFFFFFFFFFFFF AND PUSH4 0xFEAF968C PUSH1 0x40 MLOAD DUP2 PUSH4 0xFFFFFFFF AND PUSH1 0xE0 SHL DUP2 MSTORE PUSH1 0x4 ADD PUSH1 0xA0 PUSH1 0x40 MLOAD DUP1 DUP4 SUB DUP2 DUP7 GAS STATICCALL ISZERO DUP1 ISZERO PUSH2 0x165 JUMPI RETURNDATASIZE PUSH0 DUP1 RETURNDATACOPY RETURNDATASIZE PUSH0 REVERT JUMPDEST POP POP POP POP PUSH1 0x40 MLOAD RETURNDATASIZE PUSH1 0x1F NOT PUSH1 0x1F DUP3 ADD AND DUP3 ADD DUP1 PUSH1 0x40 MSTORE POP DUP2 ADD SWAP1 PUSH2 0x189 SWAP2 SWAP1 PUSH2 0x43E JUMP JUMPDEST POP POP POP SWAP2 POP POP PUSH5 0x2540BE400 DUP2 PUSH2 0x1A0 SWAP2 SWAP1 PUSH2 0x4B5 JUMP JUMPDEST SWAP3 POP POP POP SWAP1 JUMP JUMPDEST PUSH0 SLOAD CALLVALUE PUSH20 0x0 PUSH4 0x6E5B6B28 SWAP1 SWAP2 PUSH1 0x40 MLOAD DUP3 PUSH4 0xFFFFFFFF AND PUSH1 0xE0 SHL DUP2 MSTORE PUSH1 0x4 ADD PUSH2 0x1E2 SWAP2 SWAP1 PUSH2 0x53A JUMP JUMPDEST PUSH1 0x20 PUSH1 0x40 MLOAD DUP1 DUP4 SUB DUP2 DUP7 GAS DELEGATECALL ISZERO DUP1 ISZERO PUSH2 0x1FD JUMPI RETURNDATASIZE PUSH0 DUP1 RETURNDATACOPY RETURNDATASIZE PUSH0 REVERT JUMPDEST POP POP POP POP PUSH1 0x40 MLOAD RETURNDATASIZE PUSH1 0x1F NOT PUSH1 0x1F DUP3 ADD AND DUP3 ADD DUP1 PUSH1 0x40 MSTORE POP DUP2 ADD SWAP1 PUSH2 0x221 SWAP2 SWAP1 PUSH2 0x553 JUMP JUMPDEST GT PUSH2 0x261 JUMPI PUSH1 0x40 MLOAD PUSH32 0x8C379A000000000000000000000000000000000000000000000000000000000 DUP2 MSTORE PUSH1 0x4 ADD PUSH2 0x258 SWAP1 PUSH2 0x5D8 JUMP JUMPDEST PUSH1 0x40 MLOAD DUP1 SWAP2 SUB SWAP1 REVERT JUMPDEST JUMP JUMPDEST PUSH0 DUP1 REVERT JUMPDEST PUSH0 DUP2 SWAP1 POP SWAP2 SWAP1 POP JUMP JUMPDEST PUSH2 0x279 DUP2 PUSH2 0x267 JUMP JUMPDEST DUP2 EQ PUSH2 0x283 JUMPI PUSH0 DUP1 REVERT JUMPDEST POP JUMP JUMPDEST PUSH0 DUP2 CALLDATALOAD SWAP1 POP PUSH2 0x294 DUP2 PUSH2 0x270 JUMP JUMPDEST SWAP3 SWAP2 POP POP JUMP JUMPDEST PUSH0 PUSH1 0x20 DUP3 DUP5 SUB SLT ISZERO PUSH2 0x2AF JUMPI PUSH2 0x2AE PUSH2 0x263 JUMP JUMPDEST JUMPDEST PUSH0 PUSH2 0x2BC DUP5 DUP3 DUP6 ADD PUSH2 0x286 JUMP JUMPDEST SWAP2 POP POP SWAP3 SWAP2 POP POP JUMP JUMPDEST PUSH2 0x2CE DUP2 PUSH2 0x267 JUMP JUMPDEST DUP3 MSTORE POP POP JUMP JUMPDEST PUSH0 PUSH1 0x20 DUP3 ADD SWAP1 POP PUSH2 0x2E7 PUSH0 DUP4 ADD DUP5 PUSH2 0x2C5 JUMP JUMPDEST SWAP3 SWAP2 POP POP JUMP JUMPDEST PUSH32 0x4E487B7100000000000000000000000000000000000000000000000000000000 PUSH0 MSTORE PUSH1 0x11 PUSH1 0x4 MSTORE PUSH1 0x24 PUSH0 REVERT JUMPDEST PUSH0 PUSH2 0x324 DUP3 PUSH2 0x267 JUMP JUMPDEST SWAP2 POP PUSH2 0x32F DUP4 PUSH2 0x267 JUMP JUMPDEST SWAP3 POP DUP3 DUP3 MUL PUSH2 0x33D DUP2 PUSH2 0x267 JUMP JUMPDEST SWAP2 POP DUP3 DUP3 DIV DUP5 EQ DUP4 ISZERO OR PUSH2 0x354 JUMPI PUSH2 0x353 PUSH2 0x2ED JUMP JUMPDEST JUMPDEST POP SWAP3 SWAP2 POP POP JUMP JUMPDEST PUSH32 0x4E487B7100000000000000000000000000000000000000000000000000000000 PUSH0 MSTORE PUSH1 0x12 PUSH1 0x4 MSTORE PUSH1 0x24 PUSH0 REVERT JUMPDEST PUSH0 PUSH2 0x392 DUP3 PUSH2 0x267 JUMP JUMPDEST SWAP2 POP PUSH2 0x39D DUP4 PUSH2 0x267 JUMP JUMPDEST SWAP3 POP DUP3 PUSH2 0x3AD JUMPI PUSH2 0x3AC PUSH2 0x35B JUMP JUMPDEST JUMPDEST DUP3 DUP3 DIV SWAP1 POP SWAP3 SWAP2 POP POP JUMP JUMPDEST PUSH0 PUSH10 0xFFFFFFFFFFFFFFFFFFFF DUP3 AND SWAP1 POP SWAP2 SWAP1 POP JUMP JUMPDEST PUSH2 0x3D6 DUP2 PUSH2 0x3B8 JUMP JUMPDEST DUP2 EQ PUSH2 0x3E0 JUMPI PUSH0 DUP1 REVERT JUMPDEST POP JUMP JUMPDEST PUSH0 DUP2 MLOAD SWAP1 POP PUSH2 0x3F1 DUP2 PUSH2 0x3CD JUMP JUMPDEST SWAP3 SWAP2 POP POP JUMP JUMPDEST PUSH0 DUP2 SWAP1 POP SWAP2 SWAP1 POP JUMP JUMPDEST PUSH2 0x409 DUP2 PUSH2 0x3F7 JUMP JUMPDEST DUP2 EQ PUSH2 0x413 JUMPI PUSH0 DUP1 REVERT JUMPDEST POP JUMP JUMPDEST PUSH0 DUP2 MLOAD SWAP1 POP PUSH2 0x424 DUP2 PUSH2 0x400 JUMP JUMPDEST SWAP3 SWAP2 POP POP JUMP JUMPDEST PUSH0 DUP2 MLOAD SWAP1 POP PUSH2 0x438 DUP2 PUSH2 0x270 JUMP JUMPDEST SWAP3 SWAP2 POP POP JUMP JUMPDEST PUSH0 DUP1 PUSH0 DUP1 PUSH0 PUSH1 0xA0 DUP7 DUP9 SUB SLT ISZERO PUSH2 0x457 JUMPI PUSH2 0x456 PUSH2 0x263 JUMP JUMPDEST JUMPDEST PUSH0 PUSH2 0x464 DUP9 DUP3 DUP10 ADD PUSH2 0x3E3 JUMP JUMPDEST SWAP6 POP POP PUSH1 0x20 PUSH2 0x475 DUP9 DUP3 DUP10 ADD PUSH2 0x416 JUMP JUMPDEST SWAP5 POP POP PUSH1 0x40 PUSH2 0x486 DUP9 DUP3 DUP10 ADD PUSH2 0x42A JUMP JUMPDEST SWAP4 POP POP PUSH1 0x60 PUSH2 0x497 DUP9 DUP3 DUP10 ADD PUSH2 0x42A JUMP JUMPDEST SWAP3 POP POP PUSH1 0x80 PUSH2 0x4A8 DUP9 DUP3 DUP10 ADD PUSH2 0x3E3 JUMP JUMPDEST SWAP2 POP POP SWAP3 SWAP6 POP SWAP3 SWAP6 SWAP1 SWAP4 POP JUMP JUMPDEST PUSH0 PUSH2 0x4BF DUP3 PUSH2 0x3F7 JUMP JUMPDEST SWAP2 POP PUSH2 0x4CA DUP4 PUSH2 0x3F7 JUMP JUMPDEST SWAP3 POP DUP3 DUP3 MUL PUSH2 0x4D8 DUP2 PUSH2 0x3F7 JUMP JUMPDEST SWAP2 POP PUSH32 0x8000000000000000000000000000000000000000000000000000000000000000 DUP5 EQ PUSH0 DUP5 SLT AND ISZERO PUSH2 0x50F JUMPI PUSH2 0x50E PUSH2 0x2ED JUMP JUMPDEST JUMPDEST DUP3 DUP3 SDIV DUP5 EQ DUP4 ISZERO OR PUSH2 0x524 JUMPI PUSH2 0x523 PUSH2 0x2ED JUMP JUMPDEST JUMPDEST POP SWAP3 SWAP2 POP POP JUMP JUMPDEST PUSH2 0x534 DUP2 PUSH2 0x267 JUMP JUMPDEST DUP3 MSTORE POP POP JUMP JUMPDEST PUSH0 PUSH1 0x20 DUP3 ADD SWAP1 POP PUSH2 0x54D PUSH0 DUP4 ADD DUP5 PUSH2 0x52B JUMP JUMPDEST SWAP3 SWAP2 POP POP JUMP JUMPDEST PUSH0 PUSH1 0x20 DUP3 DUP5 SUB SLT ISZERO PUSH2 0x568 JUMPI PUSH2 0x567 PUSH2 0x263 JUMP JUMPDEST JUMPDEST PUSH0 PUSH2 0x575 DUP5 DUP3 DUP6 ADD PUSH2 0x42A JUMP JUMPDEST SWAP2 POP POP SWAP3 SWAP2 POP POP JUMP JUMPDEST PUSH0 DUP3 DUP3 MSTORE PUSH1 0x20 DUP3 ADD SWAP1 POP SWAP3 SWAP2 POP POP JUMP JUMPDEST PUSH32 0x6469646E27742073656E6420656E6F7567682055534400000000000000000000 PUSH0 DUP3 ADD MSTORE POP JUMP JUMPDEST PUSH0 PUSH2 0x5C2 PUSH1 0x16 DUP4 PUSH2 0x57E JUMP JUMPDEST SWAP2 POP PUSH2 0x5CD DUP3 PUSH2 0x58E JUMP JUMPDEST PUSH1 0x20 DUP3 ADD SWAP1 POP SWAP2 SWAP1 POP JUMP JUMPDEST PUSH0 PUSH1 0x20 DUP3 ADD SWAP1 POP DUP2 DUP2 SUB PUSH0 DUP4 ADD MSTORE PUSH2 0x5EF DUP2 PUSH2 0x5B6 JUMP JUMPDEST SWAP1 POP SWAP2 SWAP1 POP JUMP INVALID LOG2 PUSH5 0x6970667358 0x22 SLT KECCAK256 0xFC DUP6 PUSH32 0x2DD32A2C89F83B9254F53B37AF868A0D3EB571E865E986E79B1F3405A564736F PUSH13 0x634300081A0033000000000000 "
				},
				"gasEstimates": {
					"creation": {
						"codeDepositCost": "316000",
						"executionCost": "22458",
						"totalCost": "338458"
					},
					"external": {
						"fund()": "infinite",
						"getConversionRate(uint256)": "infinite",
						"getPrice()": "infinite",
						"withdraw()": "121"
					}
				},
				"methodIdentifiers": {
					"fund()": "b60d4288",
					"getConversionRate(uint256)": "6e5b6b28",
					"getPrice()": "98d5fdca",
					"withdraw()": "3ccfd60b"
				}
			},
			"storageLayout": {
				"storage": [
					{
						"astId": 112,
						"contract": "FundMe/fundme.sol:FundMe",
						"label": "numberUSD",
						"offset": 0,
						"slot": "0",
						"type": "t_uint256"
					}
				],
				"types": {
					"t_uint256": {
						"encoding": "inplace",
						"label": "uint256",
						"numberOfBytes": "32"
					}
				}
			},
			"userdoc": {
				"kind": "user",
				"methods": {},
				"version": 1
			}
		}
	}
}