{
	"FundMe/fundme.sol": {
		"FundMe": {
			"abi": [
				{
					"inputs": [],
					"name": "fund",
					"outputs": [],
					"stateMutability": "payable",
					"type": "function"
				},
				{
					"inputs": [],
					"name": "getConversionRate",
					"outputs": [],
					"stateMutability": "nonpayable",
					"type": "function"
				},
				{
					"inputs": [],
					"name": "getPrice",
					"outputs": [
						{
							"internalType": "int256",
							"name": "",
							"type": "int256"
						}
					],
					"stateMutability": "view",
					"type": "function"
				},
				{
					"inputs": [],
					"name": "number",
					"outputs": [
						{
							"internalType": "int256",
							"name": "",
							"type": "int256"
						}
					],
					"stateMutability": "view",
					"type": "function"
				},
				{
					"inputs": [],
					"name": "withdraw",
					"outputs": [],
					"stateMutability": "nonpayable",
					"type": "function"
				}
			],
			"devdoc": {
				"kind": "dev",
				"methods": {},
				"version": 1
			},
			"evm": {
				"assembly": "    /* \"FundMe/fundme.sol\":293:1993  contract FundMe{... */\n  mstore(0x40, 0x80)\n  callvalue\n  dup1\n  iszero\n  tag_1\n  jumpi\n  0x00\n  dup1\n  revert\ntag_1:\n  pop\n  dataSize(sub_0)\n  dup1\n  dataOffset(sub_0)\n  0x00\n  codecopy\n  0x00\n  return\nstop\n\nsub_0: assembly {\n        /* \"FundMe/fundme.sol\":293:1993  contract FundMe{... */\n      mstore(0x40, 0x80)\n      jumpi(tag_1, lt(calldatasize, 0x04))\n      shr(0xe0, calldataload(0x00))\n      dup1\n      0x3ccfd60b\n      eq\n      tag_2\n      jumpi\n      dup1\n      0x8381f58a\n      eq\n      tag_3\n      jumpi\n      dup1\n      0x98d5fdca\n      eq\n      tag_4\n      jumpi\n      dup1\n      0xb60d4288\n      eq\n      tag_5\n      jumpi\n      dup1\n      0xf36089ec\n      eq\n      tag_6\n      jumpi\n    tag_1:\n      0x00\n      dup1\n      revert\n        /* \"FundMe/fundme.sol\":1327:1356  function withdraw() public {} */\n    tag_2:\n      callvalue\n      dup1\n      iszero\n      tag_7\n      jumpi\n      0x00\n      dup1\n      revert\n    tag_7:\n      pop\n      tag_8\n      tag_9\n      jump\t// in\n    tag_8:\n      stop\n        /* \"FundMe/fundme.sol\":321:341  int256 public number */\n    tag_3:\n      callvalue\n      dup1\n      iszero\n      tag_10\n      jumpi\n      0x00\n      dup1\n      revert\n    tag_10:\n      pop\n      tag_11\n      tag_12\n      jump\t// in\n    tag_11:\n      mload(0x40)\n      tag_13\n      swap2\n      swap1\n      tag_14\n      jump\t// in\n    tag_13:\n      mload(0x40)\n      dup1\n      swap2\n      sub\n      swap1\n      return\n        /* \"FundMe/fundme.sol\":1364:1944  function getPrice() public view returns(int256){... */\n    tag_4:\n      callvalue\n      dup1\n      iszero\n      tag_15\n      jumpi\n      0x00\n      dup1\n      revert\n    tag_15:\n      pop\n      tag_16\n      tag_17\n      jump\t// in\n    tag_16:\n      mload(0x40)\n      tag_18\n      swap2\n      swap1\n      tag_14\n      jump\t// in\n    tag_18:\n      mload(0x40)\n      dup1\n      swap2\n      sub\n      swap1\n      return\n        /* \"FundMe/fundme.sol\":350:1247  function fund() public payable{ // using payable keyword, we make this function able to receive eth... */\n    tag_5:\n      tag_19\n      tag_20\n      jump\t// in\n    tag_19:\n      stop\n        /* \"FundMe/fundme.sol\":1952:1990  function getConversionRate() public {} */\n    tag_6:\n      callvalue\n      dup1\n      iszero\n      tag_21\n      jumpi\n      0x00\n      dup1\n      revert\n    tag_21:\n      pop\n      tag_22\n      tag_23\n      jump\t// in\n    tag_22:\n      stop\n        /* \"FundMe/fundme.sol\":1327:1356  function withdraw() public {} */\n    tag_9:\n      jump\t// out\n        /* \"FundMe/fundme.sol\":321:341  int256 public number */\n    tag_12:\n      sload(0x00)\n      dup2\n      jump\t// out\n        /* \"FundMe/fundme.sol\":1364:1944  function getPrice() public view returns(int256){... */\n    tag_17:\n        /* \"FundMe/fundme.sol\":1404:1410  int256 */\n      0x00\n        /* \"FundMe/fundme.sol\":1422:1452  AggregatorV3Interface dataFeed */\n      dup1\n        /* \"FundMe/fundme.sol\":1496:1538  0x694AA1769357215DE4FAC081bf1f309aDC325306 */\n      0x694aa1769357215de4fac081bf1f309adc325306\n        /* \"FundMe/fundme.sol\":1463:1539  dataFeed = AggregatorV3Interface(0x694AA1769357215DE4FAC081bf1f309aDC325306) */\n      swap1\n      pop\n        /* \"FundMe/fundme.sol\":1572:1585  int256 answer */\n      0x00\n        /* \"FundMe/fundme.sol\":1660:1668  dataFeed */\n      dup2\n        /* \"FundMe/fundme.sol\":1660:1684  dataFeed.latestRoundData */\n      0xffffffffffffffffffffffffffffffffffffffff\n      and\n      0xfeaf968c\n        /* \"FundMe/fundme.sol\":1660:1686  dataFeed.latestRoundData() */\n      mload(0x40)\n      dup2\n      0xffffffff\n      and\n      0xe0\n      shl\n      dup2\n      mstore\n      0x04\n      add\n      0xa0\n      mload(0x40)\n      dup1\n      dup4\n      sub\n      dup2\n      dup7\n      gas\n      staticcall\n      iszero\n      dup1\n      iszero\n      tag_27\n      jumpi\n      returndatasize\n      0x00\n      dup1\n      returndatacopy\n      revert(0x00, returndatasize)\n    tag_27:\n      pop\n      pop\n      pop\n      pop\n      mload(0x40)\n      returndatasize\n      not(0x1f)\n      0x1f\n      dup3\n      add\n      and\n      dup3\n      add\n      dup1\n      0x40\n      mstore\n      pop\n      dup2\n      add\n      swap1\n      tag_28\n      swap2\n      swap1\n      tag_29\n      jump\t// in\n    tag_28:\n        /* \"FundMe/fundme.sol\":1550:1686  (/* uint80 roundId */,int256 answer,/*uint256 startedAt*/,/*uint256 updatedAt*/,/*uint80 answeredInRound*/) = dataFeed.latestRoundData() */\n      pop\n      pop\n      pop\n      swap2\n      pop\n      pop\n        /* \"FundMe/fundme.sol\":1930:1936  answer */\n      dup1\n        /* \"FundMe/fundme.sol\":1923:1936  return answer */\n      swap3\n      pop\n      pop\n      pop\n        /* \"FundMe/fundme.sol\":1364:1944  function getPrice() public view returns(int256){... */\n      swap1\n      jump\t// out\n        /* \"FundMe/fundme.sol\":350:1247  function fund() public payable{ // using payable keyword, we make this function able to receive eth... */\n    tag_20:\n        /* \"FundMe/fundme.sol\":468:469  1 */\n      0x01\n        /* \"FundMe/fundme.sol\":461:467  number */\n      0x00\n        /* \"FundMe/fundme.sol\":461:469  number=1 */\n      dup2\n      swap1\n      sstore\n      pop\n        /* \"FundMe/fundme.sol\":500:504  1e18 */\n      0x0de0b6b3a7640000\n        /* \"FundMe/fundme.sol\":488:497  msg.value */\n      callvalue\n        /* \"FundMe/fundme.sol\":488:504  msg.value > 1e18 */\n      gt\n        /* \"FundMe/fundme.sol\":480:531  require(msg.value > 1e18, \"didn't send enough ETH\") */\n      tag_31\n      jumpi\n      mload(0x40)\n      0x08c379a000000000000000000000000000000000000000000000000000000000\n      dup2\n      mstore\n      0x04\n      add\n      tag_32\n      swap1\n      tag_33\n      jump\t// in\n    tag_32:\n      mload(0x40)\n      dup1\n      swap2\n      sub\n      swap1\n      revert\n    tag_31:\n        /* \"FundMe/fundme.sol\":350:1247  function fund() public payable{ // using payable keyword, we make this function able to receive eth... */\n      jump\t// out\n        /* \"FundMe/fundme.sol\":1952:1990  function getConversionRate() public {} */\n    tag_23:\n      jump\t// out\n        /* \"#utility.yul\":7:83   */\n    tag_35:\n        /* \"#utility.yul\":43:50   */\n      0x00\n        /* \"#utility.yul\":72:77   */\n      dup2\n        /* \"#utility.yul\":61:77   */\n      swap1\n      pop\n        /* \"#utility.yul\":7:83   */\n      swap2\n      swap1\n      pop\n      jump\t// out\n        /* \"#utility.yul\":89:204   */\n    tag_36:\n        /* \"#utility.yul\":174:197   */\n      tag_54\n        /* \"#utility.yul\":191:196   */\n      dup2\n        /* \"#utility.yul\":174:197   */\n      tag_35\n      jump\t// in\n    tag_54:\n        /* \"#utility.yul\":169:172   */\n      dup3\n        /* \"#utility.yul\":162:198   */\n      mstore\n        /* \"#utility.yul\":89:204   */\n      pop\n      pop\n      jump\t// out\n        /* \"#utility.yul\":210:428   */\n    tag_14:\n        /* \"#utility.yul\":301:305   */\n      0x00\n        /* \"#utility.yul\":339:341   */\n      0x20\n        /* \"#utility.yul\":328:337   */\n      dup3\n        /* \"#utility.yul\":324:342   */\n      add\n        /* \"#utility.yul\":316:342   */\n      swap1\n      pop\n        /* \"#utility.yul\":352:421   */\n      tag_56\n        /* \"#utility.yul\":418:419   */\n      0x00\n        /* \"#utility.yul\":407:416   */\n      dup4\n        /* \"#utility.yul\":403:420   */\n      add\n        /* \"#utility.yul\":394:400   */\n      dup5\n        /* \"#utility.yul\":352:421   */\n      tag_36\n      jump\t// in\n    tag_56:\n        /* \"#utility.yul\":210:428   */\n      swap3\n      swap2\n      pop\n      pop\n      jump\t// out\n        /* \"#utility.yul\":515:632   */\n    tag_38:\n        /* \"#utility.yul\":624:625   */\n      0x00\n        /* \"#utility.yul\":621:622   */\n      dup1\n        /* \"#utility.yul\":614:626   */\n      revert\n        /* \"#utility.yul\":761:866   */\n    tag_40:\n        /* \"#utility.yul\":797:804   */\n      0x00\n        /* \"#utility.yul\":837:859   */\n      0xffffffffffffffffffff\n        /* \"#utility.yul\":830:835   */\n      dup3\n        /* \"#utility.yul\":826:860   */\n      and\n        /* \"#utility.yul\":815:860   */\n      swap1\n      pop\n        /* \"#utility.yul\":761:866   */\n      swap2\n      swap1\n      pop\n      jump\t// out\n        /* \"#utility.yul\":872:992   */\n    tag_41:\n        /* \"#utility.yul\":944:967   */\n      tag_62\n        /* \"#utility.yul\":961:966   */\n      dup2\n        /* \"#utility.yul\":944:967   */\n      tag_40\n      jump\t// in\n    tag_62:\n        /* \"#utility.yul\":937:942   */\n      dup2\n        /* \"#utility.yul\":934:968   */\n      eq\n        /* \"#utility.yul\":924:986   */\n      tag_63\n      jumpi\n        /* \"#utility.yul\":982:983   */\n      0x00\n        /* \"#utility.yul\":979:980   */\n      dup1\n        /* \"#utility.yul\":972:984   */\n      revert\n        /* \"#utility.yul\":924:986   */\n    tag_63:\n        /* \"#utility.yul\":872:992   */\n      pop\n      jump\t// out\n        /* \"#utility.yul\":998:1139   */\n    tag_42:\n        /* \"#utility.yul\":1054:1059   */\n      0x00\n        /* \"#utility.yul\":1085:1091   */\n      dup2\n        /* \"#utility.yul\":1079:1092   */\n      mload\n        /* \"#utility.yul\":1070:1092   */\n      swap1\n      pop\n        /* \"#utility.yul\":1101:1133   */\n      tag_65\n        /* \"#utility.yul\":1127:1132   */\n      dup2\n        /* \"#utility.yul\":1101:1133   */\n      tag_41\n      jump\t// in\n    tag_65:\n        /* \"#utility.yul\":998:1139   */\n      swap3\n      swap2\n      pop\n      pop\n      jump\t// out\n        /* \"#utility.yul\":1145:1265   */\n    tag_43:\n        /* \"#utility.yul\":1217:1240   */\n      tag_67\n        /* \"#utility.yul\":1234:1239   */\n      dup2\n        /* \"#utility.yul\":1217:1240   */\n      tag_35\n      jump\t// in\n    tag_67:\n        /* \"#utility.yul\":1210:1215   */\n      dup2\n        /* \"#utility.yul\":1207:1241   */\n      eq\n        /* \"#utility.yul\":1197:1259   */\n      tag_68\n      jumpi\n        /* \"#utility.yul\":1255:1256   */\n      0x00\n        /* \"#utility.yul\":1252:1253   */\n      dup1\n        /* \"#utility.yul\":1245:1257   */\n      revert\n        /* \"#utility.yul\":1197:1259   */\n    tag_68:\n        /* \"#utility.yul\":1145:1265   */\n      pop\n      jump\t// out\n        /* \"#utility.yul\":1271:1412   */\n    tag_44:\n        /* \"#utility.yul\":1327:1332   */\n      0x00\n        /* \"#utility.yul\":1358:1364   */\n      dup2\n        /* \"#utility.yul\":1352:1365   */\n      mload\n        /* \"#utility.yul\":1343:1365   */\n      swap1\n      pop\n        /* \"#utility.yul\":1374:1406   */\n      tag_70\n        /* \"#utility.yul\":1400:1405   */\n      dup2\n        /* \"#utility.yul\":1374:1406   */\n      tag_43\n      jump\t// in\n    tag_70:\n        /* \"#utility.yul\":1271:1412   */\n      swap3\n      swap2\n      pop\n      pop\n      jump\t// out\n        /* \"#utility.yul\":1418:1495   */\n    tag_45:\n        /* \"#utility.yul\":1455:1462   */\n      0x00\n        /* \"#utility.yul\":1484:1489   */\n      dup2\n        /* \"#utility.yul\":1473:1489   */\n      swap1\n      pop\n        /* \"#utility.yul\":1418:1495   */\n      swap2\n      swap1\n      pop\n      jump\t// out\n        /* \"#utility.yul\":1501:1623   */\n    tag_46:\n        /* \"#utility.yul\":1574:1598   */\n      tag_73\n        /* \"#utility.yul\":1592:1597   */\n      dup2\n        /* \"#utility.yul\":1574:1598   */\n      tag_45\n      jump\t// in\n    tag_73:\n        /* \"#utility.yul\":1567:1572   */\n      dup2\n        /* \"#utility.yul\":1564:1599   */\n      eq\n        /* \"#utility.yul\":1554:1617   */\n      tag_74\n      jumpi\n        /* \"#utility.yul\":1613:1614   */\n      0x00\n        /* \"#utility.yul\":1610:1611   */\n      dup1\n        /* \"#utility.yul\":1603:1615   */\n      revert\n        /* \"#utility.yul\":1554:1617   */\n    tag_74:\n        /* \"#utility.yul\":1501:1623   */\n      pop\n      jump\t// out\n        /* \"#utility.yul\":1629:1772   */\n    tag_47:\n        /* \"#utility.yul\":1686:1691   */\n      0x00\n        /* \"#utility.yul\":1717:1723   */\n      dup2\n        /* \"#utility.yul\":1711:1724   */\n      mload\n        /* \"#utility.yul\":1702:1724   */\n      swap1\n      pop\n        /* \"#utility.yul\":1733:1766   */\n      tag_76\n        /* \"#utility.yul\":1760:1765   */\n      dup2\n        /* \"#utility.yul\":1733:1766   */\n      tag_46\n      jump\t// in\n    tag_76:\n        /* \"#utility.yul\":1629:1772   */\n      swap3\n      swap2\n      pop\n      pop\n      jump\t// out\n        /* \"#utility.yul\":1778:2749   */\n    tag_29:\n        /* \"#utility.yul\":1881:1887   */\n      0x00\n        /* \"#utility.yul\":1889:1895   */\n      dup1\n        /* \"#utility.yul\":1897:1903   */\n      0x00\n        /* \"#utility.yul\":1905:1911   */\n      dup1\n        /* \"#utility.yul\":1913:1919   */\n      0x00\n        /* \"#utility.yul\":1962:1965   */\n      0xa0\n        /* \"#utility.yul\":1950:1959   */\n      dup7\n        /* \"#utility.yul\":1941:1948   */\n      dup9\n        /* \"#utility.yul\":1937:1960   */\n      sub\n        /* \"#utility.yul\":1933:1966   */\n      slt\n        /* \"#utility.yul\":1930:2050   */\n      iszero\n      tag_78\n      jumpi\n        /* \"#utility.yul\":1969:2048   */\n      tag_79\n      tag_38\n      jump\t// in\n    tag_79:\n        /* \"#utility.yul\":1930:2050   */\n    tag_78:\n        /* \"#utility.yul\":2089:2090   */\n      0x00\n        /* \"#utility.yul\":2114:2177   */\n      tag_80\n        /* \"#utility.yul\":2169:2176   */\n      dup9\n        /* \"#utility.yul\":2160:2166   */\n      dup3\n        /* \"#utility.yul\":2149:2158   */\n      dup10\n        /* \"#utility.yul\":2145:2167   */\n      add\n        /* \"#utility.yul\":2114:2177   */\n      tag_42\n      jump\t// in\n    tag_80:\n        /* \"#utility.yul\":2104:2177   */\n      swap6\n      pop\n        /* \"#utility.yul\":2060:2187   */\n      pop\n        /* \"#utility.yul\":2226:2228   */\n      0x20\n        /* \"#utility.yul\":2252:2315   */\n      tag_81\n        /* \"#utility.yul\":2307:2314   */\n      dup9\n        /* \"#utility.yul\":2298:2304   */\n      dup3\n        /* \"#utility.yul\":2287:2296   */\n      dup10\n        /* \"#utility.yul\":2283:2305   */\n      add\n        /* \"#utility.yul\":2252:2315   */\n      tag_44\n      jump\t// in\n    tag_81:\n        /* \"#utility.yul\":2242:2315   */\n      swap5\n      pop\n        /* \"#utility.yul\":2197:2325   */\n      pop\n        /* \"#utility.yul\":2364:2366   */\n      0x40\n        /* \"#utility.yul\":2390:2454   */\n      tag_82\n        /* \"#utility.yul\":2446:2453   */\n      dup9\n        /* \"#utility.yul\":2437:2443   */\n      dup3\n        /* \"#utility.yul\":2426:2435   */\n      dup10\n        /* \"#utility.yul\":2422:2444   */\n      add\n        /* \"#utility.yul\":2390:2454   */\n      tag_47\n      jump\t// in\n    tag_82:\n        /* \"#utility.yul\":2380:2454   */\n      swap4\n      pop\n        /* \"#utility.yul\":2335:2464   */\n      pop\n        /* \"#utility.yul\":2503:2505   */\n      0x60\n        /* \"#utility.yul\":2529:2593   */\n      tag_83\n        /* \"#utility.yul\":2585:2592   */\n      dup9\n        /* \"#utility.yul\":2576:2582   */\n      dup3\n        /* \"#utility.yul\":2565:2574   */\n      dup10\n        /* \"#utility.yul\":2561:2583   */\n      add\n        /* \"#utility.yul\":2529:2593   */\n      tag_47\n      jump\t// in\n    tag_83:\n        /* \"#utility.yul\":2519:2593   */\n      swap3\n      pop\n        /* \"#utility.yul\":2474:2603   */\n      pop\n        /* \"#utility.yul\":2642:2645   */\n      0x80\n        /* \"#utility.yul\":2669:2732   */\n      tag_84\n        /* \"#utility.yul\":2724:2731   */\n      dup9\n        /* \"#utility.yul\":2715:2721   */\n      dup3\n        /* \"#utility.yul\":2704:2713   */\n      dup10\n        /* \"#utility.yul\":2700:2722   */\n      add\n        /* \"#utility.yul\":2669:2732   */\n      tag_42\n      jump\t// in\n    tag_84:\n        /* \"#utility.yul\":2659:2732   */\n      swap2\n      pop\n        /* \"#utility.yul\":2613:2742   */\n      pop\n        /* \"#utility.yul\":1778:2749   */\n      swap3\n      swap6\n      pop\n      swap3\n      swap6\n      swap1\n      swap4\n      pop\n      jump\t// out\n        /* \"#utility.yul\":2755:2924   */\n    tag_48:\n        /* \"#utility.yul\":2839:2850   */\n      0x00\n        /* \"#utility.yul\":2873:2879   */\n      dup3\n        /* \"#utility.yul\":2868:2871   */\n      dup3\n        /* \"#utility.yul\":2861:2880   */\n      mstore\n        /* \"#utility.yul\":2913:2917   */\n      0x20\n        /* \"#utility.yul\":2908:2911   */\n      dup3\n        /* \"#utility.yul\":2904:2918   */\n      add\n        /* \"#utility.yul\":2889:2918   */\n      swap1\n      pop\n        /* \"#utility.yul\":2755:2924   */\n      swap3\n      swap2\n      pop\n      pop\n      jump\t// out\n        /* \"#utility.yul\":2930:3102   */\n    tag_49:\n        /* \"#utility.yul\":3070:3094   */\n      0x6469646e27742073656e6420656e6f7567682045544800000000000000000000\n        /* \"#utility.yul\":3066:3067   */\n      0x00\n        /* \"#utility.yul\":3058:3064   */\n      dup3\n        /* \"#utility.yul\":3054:3068   */\n      add\n        /* \"#utility.yul\":3047:3095   */\n      mstore\n        /* \"#utility.yul\":2930:3102   */\n      pop\n      jump\t// out\n        /* \"#utility.yul\":3108:3474   */\n    tag_50:\n        /* \"#utility.yul\":3250:3253   */\n      0x00\n        /* \"#utility.yul\":3271:3338   */\n      tag_88\n        /* \"#utility.yul\":3335:3337   */\n      0x16\n        /* \"#utility.yul\":3330:3333   */\n      dup4\n        /* \"#utility.yul\":3271:3338   */\n      tag_48\n      jump\t// in\n    tag_88:\n        /* \"#utility.yul\":3264:3338   */\n      swap2\n      pop\n        /* \"#utility.yul\":3347:3440   */\n      tag_89\n        /* \"#utility.yul\":3436:3439   */\n      dup3\n        /* \"#utility.yul\":3347:3440   */\n      tag_49\n      jump\t// in\n    tag_89:\n        /* \"#utility.yul\":3465:3467   */\n      0x20\n        /* \"#utility.yul\":3460:3463   */\n      dup3\n        /* \"#utility.yul\":3456:3468   */\n      add\n        /* \"#utility.yul\":3449:3468   */\n      swap1\n      pop\n        /* \"#utility.yul\":3108:3474   */\n      swap2\n      swap1\n      pop\n      jump\t// out\n        /* \"#utility.yul\":3480:3899   */\n    tag_33:\n        /* \"#utility.yul\":3646:3650   */\n      0x00\n        /* \"#utility.yul\":3684:3686   */\n      0x20\n        /* \"#utility.yul\":3673:3682   */\n      dup3\n        /* \"#utility.yul\":3669:3687   */\n      add\n        /* \"#utility.yul\":3661:3687   */\n      swap1\n      pop\n        /* \"#utility.yul\":3733:3742   */\n      dup2\n        /* \"#utility.yul\":3727:3731   */\n      dup2\n        /* \"#utility.yul\":3723:3743   */\n      sub\n        /* \"#utility.yul\":3719:3720   */\n      0x00\n        /* \"#utility.yul\":3708:3717   */\n      dup4\n        /* \"#utility.yul\":3704:3721   */\n      add\n        /* \"#utility.yul\":3697:3744   */\n      mstore\n        /* \"#utility.yul\":3761:3892   */\n      tag_91\n        /* \"#utility.yul\":3887:3891   */\n      dup2\n        /* \"#utility.yul\":3761:3892   */\n      tag_50\n      jump\t// in\n    tag_91:\n        /* \"#utility.yul\":3753:3892   */\n      swap1\n      pop\n        /* \"#utility.yul\":3480:3899   */\n      swap2\n      swap1\n      pop\n      jump\t// out\n\n    auxdata: 0xa26469706673582212209239a3c096b4fea22a3200c7716569b0db17a1619e8480506c0e34f19f8ed57364736f6c634300081a0033\n}\n",
				"bytecode": {
					"linkReferences": {},
					"object": "6080604052348015600e575f80fd5b506103be8061001c5f395ff3fe608060405260043610610049575f3560e01c80633ccfd60b1461004d5780638381f58a1461006357806398d5fdca1461008d578063b60d4288146100b7578063f36089ec146100c1575b5f80fd5b348015610058575f80fd5b506100616100d7565b005b34801561006e575f80fd5b506100776100d9565b60405161008491906101e0565b60405180910390f35b348015610098575f80fd5b506100a16100de565b6040516100ae91906101e0565b60405180910390f35b6100bf610173565b005b3480156100cc575f80fd5b506100d56101c6565b005b565b5f5481565b5f8073694aa1769357215de4fac081bf1f309adc32530690505f8173ffffffffffffffffffffffffffffffffffffffff1663feaf968c6040518163ffffffff1660e01b815260040160a060405180830381865afa158015610141573d5f803e3d5ffd5b505050506040513d601f19601f820116820180604052508101906101659190610299565b505050915050809250505090565b60015f81905550670de0b6b3a764000034116101c4576040517f08c379a00000000000000000000000000000000000000000000000000000000081526004016101bb9061036a565b60405180910390fd5b565b565b5f819050919050565b6101da816101c8565b82525050565b5f6020820190506101f35f8301846101d1565b92915050565b5f80fd5b5f69ffffffffffffffffffff82169050919050565b61021b816101fd565b8114610225575f80fd5b50565b5f8151905061023681610212565b92915050565b610245816101c8565b811461024f575f80fd5b50565b5f815190506102608161023c565b92915050565b5f819050919050565b61027881610266565b8114610282575f80fd5b50565b5f815190506102938161026f565b92915050565b5f805f805f60a086880312156102b2576102b16101f9565b5b5f6102bf88828901610228565b95505060206102d088828901610252565b94505060406102e188828901610285565b93505060606102f288828901610285565b925050608061030388828901610228565b9150509295509295909350565b5f82825260208201905092915050565b7f6469646e27742073656e6420656e6f75676820455448000000000000000000005f82015250565b5f610354601683610310565b915061035f82610320565b602082019050919050565b5f6020820190508181035f83015261038181610348565b905091905056fea26469706673582212209239a3c096b4fea22a3200c7716569b0db17a1619e8480506c0e34f19f8ed57364736f6c634300081a0033",
					"opcodes": "PUSH1 0x80 PUSH1 0x40 MSTORE CALLVALUE DUP1 ISZERO PUSH1 0xE JUMPI PUSH0 DUP1 REVERT JUMPDEST POP PUSH2 0x3BE DUP1 PUSH2 0x1C PUSH0 CODECOPY PUSH0 RETURN INVALID PUSH1 0x80 PUSH1 0x40 MSTORE PUSH1 0x4 CALLDATASIZE LT PUSH2 0x49 JUMPI PUSH0 CALLDATALOAD PUSH1 0xE0 SHR DUP1 PUSH4 0x3CCFD60B EQ PUSH2 0x4D JUMPI DUP1 PUSH4 0x8381F58A EQ PUSH2 0x63 JUMPI DUP1 PUSH4 0x98D5FDCA EQ PUSH2 0x8D JUMPI DUP1 PUSH4 0xB60D4288 EQ PUSH2 0xB7 JUMPI DUP1 PUSH4 0xF36089EC EQ PUSH2 0xC1 JUMPI JUMPDEST PUSH0 DUP1 REVERT JUMPDEST CALLVALUE DUP1 ISZERO PUSH2 0x58 JUMPI PUSH0 DUP1 REVERT JUMPDEST POP PUSH2 0x61 PUSH2 0xD7 JUMP JUMPDEST STOP JUMPDEST CALLVALUE DUP1 ISZERO PUSH2 0x6E JUMPI PUSH0 DUP1 REVERT JUMPDEST POP PUSH2 0x77 PUSH2 0xD9 JUMP JUMPDEST PUSH1 0x40 MLOAD PUSH2 0x84 SWAP2 SWAP1 PUSH2 0x1E0 JUMP JUMPDEST PUSH1 0x40 MLOAD DUP1 SWAP2 SUB SWAP1 RETURN JUMPDEST CALLVALUE DUP1 ISZERO PUSH2 0x98 JUMPI PUSH0 DUP1 REVERT JUMPDEST POP PUSH2 0xA1 PUSH2 0xDE JUMP JUMPDEST PUSH1 0x40 MLOAD PUSH2 0xAE SWAP2 SWAP1 PUSH2 0x1E0 JUMP JUMPDEST PUSH1 0x40 MLOAD DUP1 SWAP2 SUB SWAP1 RETURN JUMPDEST PUSH2 0xBF PUSH2 0x173 JUMP JUMPDEST STOP JUMPDEST CALLVALUE DUP1 ISZERO PUSH2 0xCC JUMPI PUSH0 DUP1 REVERT JUMPDEST POP PUSH2 0xD5 PUSH2 0x1C6 JUMP JUMPDEST STOP JUMPDEST JUMP JUMPDEST PUSH0 SLOAD DUP2 JUMP JUMPDEST PUSH0 DUP1 PUSH20 0x694AA1769357215DE4FAC081BF1F309ADC325306 SWAP1 POP PUSH0 DUP2 PUSH20 0xFFFFFFFFFFFFFFFFFFFFFFFFFFFFFFFFFFFFFFFF AND PUSH4 0xFEAF968C PUSH1 0x40 MLOAD DUP2 PUSH4 0xFFFFFFFF AND PUSH1 0xE0 SHL DUP2 MSTORE PUSH1 0x4 ADD PUSH1 0xA0 PUSH1 0x40 MLOAD DUP1 DUP4 SUB DUP2 DUP7 GAS STATICCALL ISZERO DUP1 ISZERO PUSH2 0x141 JUMPI RETURNDATASIZE PUSH0 DUP1 RETURNDATACOPY RETURNDATASIZE PUSH0 REVERT JUMPDEST POP POP POP POP PUSH1 0x40 MLOAD RETURNDATASIZE PUSH1 0x1F NOT PUSH1 0x1F DUP3 ADD AND DUP3 ADD DUP1 PUSH1 0x40 MSTORE POP DUP2 ADD SWAP1 PUSH2 0x165 SWAP2 SWAP1 PUSH2 0x299 JUMP JUMPDEST POP POP POP SWAP2 POP POP DUP1 SWAP3 POP POP POP SWAP1 JUMP JUMPDEST PUSH1 0x1 PUSH0 DUP2 SWAP1 SSTORE POP PUSH8 0xDE0B6B3A7640000 CALLVALUE GT PUSH2 0x1C4 JUMPI PUSH1 0x40 MLOAD PUSH32 0x8C379A000000000000000000000000000000000000000000000000000000000 DUP2 MSTORE PUSH1 0x4 ADD PUSH2 0x1BB SWAP1 PUSH2 0x36A JUMP JUMPDEST PUSH1 0x40 MLOAD DUP1 SWAP2 SUB SWAP1 REVERT JUMPDEST JUMP JUMPDEST JUMP JUMPDEST PUSH0 DUP2 SWAP1 POP SWAP2 SWAP1 POP JUMP JUMPDEST PUSH2 0x1DA DUP2 PUSH2 0x1C8 JUMP JUMPDEST DUP3 MSTORE POP POP JUMP JUMPDEST PUSH0 PUSH1 0x20 DUP3 ADD SWAP1 POP PUSH2 0x1F3 PUSH0 DUP4 ADD DUP5 PUSH2 0x1D1 JUMP JUMPDEST SWAP3 SWAP2 POP POP JUMP JUMPDEST PUSH0 DUP1 REVERT JUMPDEST PUSH0 PUSH10 0xFFFFFFFFFFFFFFFFFFFF DUP3 AND SWAP1 POP SWAP2 SWAP1 POP JUMP JUMPDEST PUSH2 0x21B DUP2 PUSH2 0x1FD JUMP JUMPDEST DUP2 EQ PUSH2 0x225 JUMPI PUSH0 DUP1 REVERT JUMPDEST POP JUMP JUMPDEST PUSH0 DUP2 MLOAD SWAP1 POP PUSH2 0x236 DUP2 PUSH2 0x212 JUMP JUMPDEST SWAP3 SWAP2 POP POP JUMP JUMPDEST PUSH2 0x245 DUP2 PUSH2 0x1C8 JUMP JUMPDEST DUP2 EQ PUSH2 0x24F JUMPI PUSH0 DUP1 REVERT JUMPDEST POP JUMP JUMPDEST PUSH0 DUP2 MLOAD SWAP1 POP PUSH2 0x260 DUP2 PUSH2 0x23C JUMP JUMPDEST SWAP3 SWAP2 POP POP JUMP JUMPDEST PUSH0 DUP2 SWAP1 POP SWAP2 SWAP1 POP JUMP JUMPDEST PUSH2 0x278 DUP2 PUSH2 0x266 JUMP JUMPDEST DUP2 EQ PUSH2 0x282 JUMPI PUSH0 DUP1 REVERT JUMPDEST POP JUMP JUMPDEST PUSH0 DUP2 MLOAD SWAP1 POP PUSH2 0x293 DUP2 PUSH2 0x26F JUMP JUMPDEST SWAP3 SWAP2 POP POP JUMP JUMPDEST PUSH0 DUP1 PUSH0 DUP1 PUSH0 PUSH1 0xA0 DUP7 DUP9 SUB SLT ISZERO PUSH2 0x2B2 JUMPI PUSH2 0x2B1 PUSH2 0x1F9 JUMP JUMPDEST JUMPDEST PUSH0 PUSH2 0x2BF DUP9 DUP3 DUP10 ADD PUSH2 0x228 JUMP JUMPDEST SWAP6 POP POP PUSH1 0x20 PUSH2 0x2D0 DUP9 DUP3 DUP10 ADD PUSH2 0x252 JUMP JUMPDEST SWAP5 POP POP PUSH1 0x40 PUSH2 0x2E1 DUP9 DUP3 DUP10 ADD PUSH2 0x285 JUMP JUMPDEST SWAP4 POP POP PUSH1 0x60 PUSH2 0x2F2 DUP9 DUP3 DUP10 ADD PUSH2 0x285 JUMP JUMPDEST SWAP3 POP POP PUSH1 0x80 PUSH2 0x303 DUP9 DUP3 DUP10 ADD PUSH2 0x228 JUMP JUMPDEST SWAP2 POP POP SWAP3 SWAP6 POP SWAP3 SWAP6 SWAP1 SWAP4 POP JUMP JUMPDEST PUSH0 DUP3 DUP3 MSTORE PUSH1 0x20 DUP3 ADD SWAP1 POP SWAP3 SWAP2 POP POP JUMP JUMPDEST PUSH32 0x6469646E27742073656E6420656E6F7567682045544800000000000000000000 PUSH0 DUP3 ADD MSTORE POP JUMP JUMPDEST PUSH0 PUSH2 0x354 PUSH1 0x16 DUP4 PUSH2 0x310 JUMP JUMPDEST SWAP2 POP PUSH2 0x35F DUP3 PUSH2 0x320 JUMP JUMPDEST PUSH1 0x20 DUP3 ADD SWAP1 POP SWAP2 SWAP1 POP JUMP JUMPDEST PUSH0 PUSH1 0x20 DUP3 ADD SWAP1 POP DUP2 DUP2 SUB PUSH0 DUP4 ADD MSTORE PUSH2 0x381 DUP2 PUSH2 0x348 JUMP JUMPDEST SWAP1 POP SWAP2 SWAP1 POP JUMP INVALID LOG2 PUSH5 0x6970667358 0x22 SLT KECCAK256 SWAP3 CODECOPY LOG3 0xC0 SWAP7 0xB4 INVALID LOG2 0x2A ORIGIN STOP 0xC7 PUSH18 0x6569B0DB17A1619E8480506C0E34F19F8ED5 PUSH20 0x64736F6C634300081A0033000000000000000000 "
				},
				"gasEstimates": {
					"creation": {
						"codeDepositCost": "191600",
						"executionCost": "230",
						"totalCost": "191830"
					},
					"external": {
						"fund()": "22582",
						"getConversionRate()": "209",
						"getPrice()": "infinite",
						"number()": "2424",
						"withdraw()": "121"
					}
				},
				"methodIdentifiers": {
					"fund()": "b60d4288",
					"getConversionRate()": "f36089ec",
					"getPrice()": "98d5fdca",
					"number()": "8381f58a",
					"withdraw()": "3ccfd60b"
				}
			},
			"storageLayout": {
				"storage": [
					{
						"astId": 51,
						"contract": "FundMe/fundme.sol:FundMe",
						"label": "number",
						"offset": 0,
						"slot": "0",
						"type": "t_int256"
					}
				],
				"types": {
					"t_int256": {
						"encoding": "inplace",
						"label": "int256",
						"numberOfBytes": "32"
					}
				}
			},
			"userdoc": {
				"kind": "user",
				"methods": {},
				"version": 1
			}
		}
	}
}